:020000040800F2
:10000000A8150024AD020008512300086122000851
:1000100049230008310300083928000800000000C7
:100020000000000000000000000000006926000839
:10003000F10500080000000059230008712600089F
:10004000CB020008CB020008CB020008CB0200085C
:10005000CB020008CB020008CB020008CB0200084C
:10006000CB020008CB020008CB020008CB0200083C
:10007000CB020008CB020008CB020008CB0200082C
:10008000CB020008CB020008CB020008CB0200081C
:10009000CB020008CB020008CB020008CB0200080C
:1000A000CB020008CB020008CB020008CB020008FC
:1000B000CB020008CB020008CB020008CB020008EC
:1000C000CB020008CB020008CB020008CB020008DC
:1000D000CB020008CB020008CB020008CB020008CC
:1000E000CB020008CB02000800000000CB02000891
:1000F000CB020008CB020008CB020008CB020008AC
:10010000CB020008CB020008CB020008CB0200089B
:10011000CB020008CB020008CB020008CB0200088B
:10012000CB020008CB020008CB020008CB0200087B
:10013000CB020008CB020008CB020008CB0200086B
:1001400000000000000000000000000000000000AF
:10015000CB020008CB020008CB020008CB0200084B
:10016000CB020008CB020008CB020008CB0200083B
:10017000CB020008CB020008CB0200080000000000
:10018000CB020008CB020008CB020008CB0200081B
:10019000CB020008CB020008CB020008CB0200080B
:1001A000CB020008CB020008CB020008CB020008FB
:1001B000CB020008CB020008CB020008CB020008EB
:1001C000CB020008CB020008CB020008CB020008DB
:1001D000CB020008CB020008CB020008CB020008CB
:1001E000CB020008CB020008CB020008CB020008BB
:1001F000CB020008CB020008CB020008CB020008AB
:10020000CB020008CB020008CB020008CB0200089A
:10021000CB020008CB020008CB020008CB0200088A
:10022000CB020008CB020008CB020008000000004F
:10023000CB020008CB02000800000000CB0200083F
:10024000CB020008CB020008CB020008CB0200085A
:10025000CB020008CB020008CB020008CB0200084A
:10026000CB020008CB020008CB020008CB0200083A
:10027000CB020008CB020008CB02000800000000FF
:10028000CB020008CB020008CB02000800000000EF
:1002900000000000CB020008DFF80CD000F02EF8C0
:1002A0000048004741280008A81500240748804757
:1002B0000748804707480047FEE7FEE7FEE7FEE7FE
:1002C000FEE7FEE7FEE7FEE7FEE7FEE709060008B9
:1002D0004927000899020008D2B201E000F8012B7A
:1002E000491EFBD270470022F6E710B513460A46B6
:1002F00004461946FFF7F0FF204610BD1CB509481B
:100300000090094801900546009C06E0E06840F036
:10031000010394E8070098471034AC42F6D3FFF786
:10032000BFFF0000503000087030000800000000DF
:10033000FEE700000000000010B501F095FF01F09D
:10034000D3FF40F600444FF48061C5F60204012259
:10035000204600F03DFA4FF480710122204600F063
:1003600037FA4FF4007101222046BDE8104000F03A
:100370002FBA00000000000010B582B040F6004423
:100380000021C5F6020401910822ADF804208DF881
:1003900006104FF480718DF807000022204600F00F
:1003A00017FA40F2180001A9C2F2004004224FF4EB
:1003B0007A7301F015FE4FF480710122204600F09F
:1003C00007FA4FF400710022204600F001FA4FF4C2
:1003D00000710122204600F0FBF902B010BD0000C0
:1003E00010B582B040F600440720C5F60204019023
:1003F0004FF480710022204600F0EAF940F2180024
:1004000001A9C2F2004004224FF47A7301F0E8FD22
:100410004FF480710122204600F0DAF94FF40071A8
:100420000022204600F0D4F94FF40071012220464A
:1004300000F0CEF902B010BD002A08BF70472DE9C8
:10044000F04F81B02DED0A8B82B0B5EE008B934654
:1004500040F600450322B7EE049B40F21808C5F6AB
:10046000020506059FED2CAB42EA1017A1F1080A20
:100470009FED2BBBC2F200480DF104099FED2ACB82
:10048000002400BFB0EE491B0021019100229AED2B
:10049000020B0AF1080A8DF8047000EE081B21EE29
:1004A0000A0B80EE0B0B20EE0C0BBCEEC00B10EE1B
:1004B000100A46EA0011090C8DF8051001098DF8A3
:1004C000061000018DF807004FF48071284600F0F7
:1004D0007FF904224FF47A734046494601F080FDCB
:1004E0004FF480710122284600F072F94FF4007138
:1004F0000022284600F06CF94FF4007101222846D2
:1005000000F066F901345C45BCD302B0BDEC0A8B47
:1005100001B0BDE8F04F70470000000000408F4080
:10052000000000000088A34000000000E0FFEF4052
:1005300010B582B0B5EE001B002401940324B7EE81
:10054000042B00EE012B9FED240B22EE000B9FED00
:10055000241B80EE010B9FED241B20EE010BBCEE53
:10056000C00B10EE101A0A018DF8072042EA005362
:10057000002244EA101040F60044C5F602048DF84B
:100580000400180C8DF8050008098DF806004FF4DA
:100590008071204600F01CF940F2180001A9C2F257
:1005A000004004224FF47A7301F01AFD4FF4807179
:1005B0000122204600F00CF94FF400710022204681
:1005C00000F006F94FF400710122204600F000F916
:1005D00002B010BD00BF00BF0000000000408F400F
:1005E000000000000088A34000000000E0FFEF4092
:1005F0007047000000000000EFF3108072B600BFEB
:10060000FEE700000000000044F60C00C5F6020002
:10061000016841F00201016050F8081C8904FBD513
:1006200070470000000000002DE9F04F83B00E6815
:10063000002E00F0C78000F1264742F2004507F186
:10064000FF77C5F602050A22A8424FEAB72500F156
:10065000200308BF09220093092D38BF4FEAB722B3
:10066000002400274FF0000A01920AE00AF1010A73
:100670000E6836FA0AF207F1020704F1040400F0EA
:10068000A180012202FA0AFB16EA0B08EED0D1F88B
:100690000490032209F0030EAEF10106012E02FAC6
:1006A00007F610D8D0F808C0CD682CEA0602BD4085
:1006B0002A438260C9F30015426822EA0B0205FA58
:1006C0000AF52A434260BEF1030F1FD0C2688D684D
:1006D000B243BD40BEF1020F42EA0502C26015D12D
:1006E0006FF00302009D02EA5A0B04F01C030F2274
:1006F00055F80BC002FA03FED1F810902CEA0E0C4C
:1007000009FA03F343EA0C0345F80B3002684B681F
:10071000B24303F00306BE4013F4403F42EA060230
:100720000260A3D044F2F44340F2084CC5F6020341
:10073000C5F6000C0F251A6842F002021A601A680A
:1007400002F0020202922AF00302029B04F00C0360
:1007500052F80C609D40AE43019D05FA03F333430C
:1007600042F80C304FF0B04CDCF800204B6842EA05
:100770000806DD0258BF22EA08069D02CCF8006098
:1007800040F2040CC5F6000CDCF8002042EA080632
:1007900058BF22EA08069D03CCF80060DCF88020F0
:1007A00042EA080658BF22EA0806DB03CCF880605C
:1007B000DCF87C2042EA080658BF22EA0806CCF89A
:1007C0007C6053E703B0BDE8F08F0000000000003C
:1007D000002A08BF09048161704700000000000082
:1007E00041F20000C5F600400068000C70470000B0
:1007F00040F2A000C2F20040006870470000000014
:1008000040F20C0040F2A001C2F20040C2F20041EE
:1008100000780A681044086070470000000000007B
:1008200080B5032000F09CF800F012FF44F218415C
:1008300043F24003C5F60201C0F600030A68C2F3A2
:1008400003229A5C096801F00F0102F01F02595C53
:10085000D04040F20802C2F2004201F01F0120FA2B
:1008600001F1116040F20401C2F2004108600F2062
:1008700000F00AF800281CBF012080BD00F030F80D
:10088000002080BD0000000040F20C01C2F20041D7
:10089000097819B310B5044640F20400C2F20040D2
:1008A0004FF47A72B2FBF1F10068B0FBF1F001F0A5
:1008B000BFFC0F2C01464FF001000ED8002918BFD5
:1008C00010BD4FF0FF300022214600F019F840F231
:1008D00010010020C2F200410C6010BD01207047E1
:1008E00081B044F2F440C5F60200016841F0020113
:1008F0000160006800F002000090009801B07047AD
:1009000070B54EF60C5C4FF0FF36CEF2000C00F1E5
:10091000604505F56445DCF80030C3F3022E8EF027
:100920000703042B28BF0423BEF1030406FA03F3D4
:1009300021EA030100F00F0338BF0024043B002824
:10094000634406FA04F048BF03F10C05A14022EA13
:10095000000008430001287070BD00000000000086
:100960004EF60C514FF6FF03CEF200010A681A4012
:1009700060F30A2242F0806040F0FD70086070472A
:10098000B0B544F60C05C5F6020529684907296883
:1009900005D401F00701081A18BF0120B0BD21F0ED
:1009A000070108432860FFF723FF044655F8080CA9
:1009B000800407D4FFF71CFF001BB0F57A7FF5D940
:1009C0000120B0BD0020B0BD2DE9F04381B0044648
:1009D000C07844F22C490007C5F6020901D400256D
:1009E00020E0A06E4FEA3050032838D80025DFE819
:1009F00000F0020A1C22D9F8000040F40030C9F8C7
:100A00000000D5B906E004F10800022101F0A8FCBD
:100A1000054695B9D9F82400A16E20F4401008438A
:100A2000C9F824004FF0000808E004F12800022172
:100A300001F026FD0546002DECD0A8466078C007E1
:100A400021D0A06D042800F24E81DFE810F0E9000B
:100A50001A010C00050005006DB1A84613E0012540
:100A6000002DEAD1D6E704F12800002101F008FDAD
:100A70000546002DF1D1D9F82400A16D20F0070022
:100A80000843C9F82400607880071FD5E06D4FEA5D
:100A9000B010042800F22C81DFE810F0CC00FD003B
:100AA0000800050005004DB1A8460FE004F128003C
:100AB000002101F0E5FC0546002DF5D1D9F8240010
:100AC000E16D20F4E0700843C9F824006078400725
:100AD00021D5D4F8A8004FEA7050042800F20D8107
:100AE000DFE810F0B200E3000800050005004DB19A
:100AF000A84610E004F12800002101F0C1FC0546E1
:100B0000002DF5D1D9F82C00D4F8A81020F46000FD
:100B10000843C9F82C00607800071FD5D4F8AC0052
:100B20004FEA3060042800F2ED80DFE800F097C85B
:100B3000060303004DB1A84610E004F1280000218F
:100B400001F09EFC0546002DF5D1D9F82C00D4F813
:100B5000AC1020F0E0600843C9F82C00E078800772
:100B60001BD5E06C4FEA3010032830D8DFE800F0E6
:100B7000020526024DB1A8460FE0D9F8000040F466
:100B80000030C9F80000002DF5D1D9F82000E16C43
:100B900020F030000843C9F820006078C0062AD54C
:100BA000206E4FEA3030042800F2B180DFE800F018
:100BB000609113030300B5B1A8461CE004F10800DE
:100BC000022101F0CDFB0546002DD4D1DDE7012542
:100BD000002DD0D1D9E704F12800002101F050FC0C
:100BE0000546002DE8D1D9F82400216E20F4E0401C
:100BF0000843C9F824006078800640F1A180606E47
:100C00004FEA3040052800F29080DFE800F08B03C7
:100C1000858B8B8B04F10800012101F0A1FB80E0A2
:100C2000D9F8000040F40030C9F80000002D7FF42E
:100C300014AF20E7D9F8000040F40030C9F80000F4
:100C4000002D7FF431AF39E7D9F8000040F40030CF
:100C5000C9F80000002D7FF44BAF53E7D9F800002E
:100C600040F40030C9F80000002D7FF464AF6CE759
:100C7000D9F8000040F40030C9F80000002D9BD1E5
:100C8000B1E704F10800002101F06AFB0546002DE0
:100C90007FF4E3AEEFE604F10800002101F060FB11
:100CA0000546002D7FF400AF08E704F1080000219D
:100CB00001F056FB0546002D7FF41AAF22E704F140
:100CC0000800002101F04CFB0546002D7FF433AFF6
:100CD0003BE704F10800002101F042FB0546002D2E
:100CE0007FF46AAF7FE70125002D7FF4B6AEC2E640
:100CF0000125002D7FF4D8AEE0E60125002D7FF41C
:100D0000F7AEFFE60125002D7FF415AF1DE70125A5
:100D1000002D7FF451AF66E704F12800012101F0B6
:100D2000AFFB054625B1A8460AE00125002DFAD102
:100D3000D9F82400616E20F4E0200843C9F82400AB
:100D40006078400625D5D4F8B0004FEA3070052809
:100D500013D8DFE800F00F03090F0F0F04F10800AC
:100D6000012101F0FDFA04E004F12800012101F065
:100D700087FB054625B1A8460BE00125002DFAD1D9
:100D8000D9F82C00D4F8B01020F0E0400843C9F89E
:100D90002C006078000620D5206FD8B1B0F1005F3C
:100DA00012D0B0F1805F26D1D9F8000040F40030B5
:100DB000C9F8000085B9D9F82400216F20F040500F
:100DC0000843C9F8240008E004F10800012101F0FB
:100DD000C7FA0546002DEED0A846E078C0071ED021
:100DE000A06C032800F28180DFE800F002097502A0
:100DF0006DB1A84613E00125002DEDD1DBE7D9F850
:100E0000000040F40030C9F80000002DF1D1D9F8FD
:100E10002000A16C20F003000843C9F82000A0784E
:100E2000400645D5D9F8D40340F48070C9F8D403FE
:100E3000FFF7DEFC064600BFD9F8D403C00505D491
:100E4000FFF7D6FC801B6528F6D303257DBBD9F8B8
:100E50004410D4F8B400414011F4407F11D0D9F8C7
:100E60004410D9F8442042F48032C9F84420D9F81B
:100E7000442021F4407122F48032C9F84420C9F89A
:100E80004410B0F5807F0FD1FFF7B2FC064641F267
:100E9000893700BFD9F84400800705D4FFF7A8FCC4
:100EA000801BB842F6D30325002D00F08A82A846A5
:100EB0002078C00732D0E06F4FEAF000052822D832
:100EC000DFE800F01E03181E1E1E04F108000121B9
:100ED00001F046FA13E004F10800022101F040FAA3
:100EE0000546002D7FF485AF91E70125002D7FF4A5
:100EF00080AF8CE704F12800012101F0C1FA05461A
:100F000025B1A8460AE00125002DFAD1D9F828001C
:100F1000E16F20F038000843C9F8280020788007E6
:100F200021D5A06F052813D8DFE800F00F03090FC3
:100F30000F0F04F10800012101F012FA04E004F19E
:100F40002800012101F09CFA054625B1A8460AE0D7
:100F50000125002DFAD1D9F82800A16F20F0070053
:100F60000843C9F828002078400723D5D4F8940016
:100F7000052813D8DFE800F00F03090F0F0F04F165
:100F80000800012101F0ECF904E004F1280001213E
:100F900001F076FA054625B1A8460BE00125002DA3
:100FA000FAD1D9F82C00D4F8941020F007000843A7
:100FB000C9F82C002078800625D5D4F890004FEA97
:100FC0003070052813D8DFE800F00F03090F0F0F6A
:100FD00004F10800002101F0C3F904E004F1280045
:100FE000022101F04DFA054625B1A8460BE0012586
:100FF000002DFAD1D9F82800D4F8901020F0E04064
:101000000843C9F828002078400625D5D4F89C006C
:101010004FEAB020052813D8DFE800F00F03090FCE
:101020000F0F04F10800002101F09AF904E004F127
:101030002800022101F024FA054625B1A8460BE05C
:101040000125002DFAD1D9F82C00D4F89C1020F4F9
:10105000E0500843C9F82C002078000625D5D4F8C4
:10106000A0004FEA7030052813D8DFE800F00F0326
:10107000090F0F0F04F10800002101F071F904E0DD
:1010800004F12800022101F0FBF9054625B1A8462C
:101090000BE00125002DFAD1D9F82C00D4F8A010CE
:1010A00020F460400843C9F82C002078000716D5CA
:1010B000D4F88400B0F5805F08D104F12800022143
:1010C00001F0DEF9002818BF4FF00108D9F8280018
:1010D000D4F8841020F440500843C9F82800207840
:1010E000C00616D5D4F89800B0F5807F08D104F179
:1010F0002800022101F0C4F9002818BF4FF00108B0
:10110000D9F82C00D4F8981020F440700843C9F89E
:101110002C00A078000724D5D4F8A400B0F5003F37
:101120001CD0B0F5803F13D0002840F0E98004F1D6
:101130000800002101F014F905468DB9D9F82C00FA
:10114000D4F8A41020F440300843C9F82C0008E07B
:1011500004F12800022101F093F90546002DEDD09D
:10116000A846A078400725D5D4F88800B0F5401FE0
:101170001DD0B0F5001F14D0B0F5801F40F0C58021
:10118000D9F8000040F40030C9F800008DB9D9F852
:101190002800D4F8881020F440100843C9F828002B
:1011A00008E004F12800012101F06AF90546002D4C
:1011B000EDD0A846A078C0071FD0206DB0F5803FC5
:1011C0000BD0002840F09780D9F8000040F40030A0
:1011D000C9F800004DB1A8460FE004F10800022153
:1011E00001F0BEF80546002DF5D1D9F82000216D9B
:1011F00020F480300843C9F82000E078800608D544
:1012000004F12800022101F03BF9002818BF4FF03B
:101210000108D4E900108A0340F18680D4F88020C8
:101220006FF0010303EB3223022B0AD34FEA322380
:101230003BB1012B6ED1D9F8003043F40033C9F82B
:101240000030002D69D0CA0271D4CA007AD48A0253
:1012500000F184804A0000F18C80CA0F40F0998030
:10126000090200F1A180C00707D004F108000021A5
:1012700001F076F8002818BF05462079800707D5C9
:1012800004F10800012101F06BF8002818BF0546A1
:101290002079400707D504F10800022101F060F829
:1012A000002818BF05462079000707D504F128005B
:1012B000002101F0E5F8002818BF05462079C00696
:1012C00007D504F12800012101F0DAF8002818BF41
:1012D00005462079800607D504F12800022101F097
:1012E000CFF8002818BF0125002D18BF012528467A
:1012F00001B0BDE8F0830125002D7FF46CAF74E7E9
:101300000125002D7FF42CAF18E70125002D7FF477
:1013100050AF3CE70125002D95D1D9F8283023F4B2
:1013200040731A43C9F828204546CA028DD5D9F81A
:101330002420636F22F000421A43C9F82420CA0017
:101340007FF585AF59F81C2CD4F8B83022F48042D0
:101350001A4349F81C2C8A027FF57CAFD9F8242067
:10136000E36E22F080721A43C9F824204A007FF508
:1013700074AF59F81C2C22F4004249F81C2CD4F804
:10138000BC2059F81C3C1A4349F81C2CCA0F3FF4E6
:1013900067AFD9F82020636D22F040521A43C9F894
:1013A000202009027FF55FAFD9F82810D4F88C20EF
:1013B00021F440011143C9F82810C0077FF455AF4C
:1013C0005BE74FF6CF73D4F8B40059F81C2CC0F289
:1013D000FF0300F4407122F47C5203EA1013B1F5CC
:1013E000407F08BF1A436FF31F3049F81C2CD9F80F
:1013F00044100843C9F844005AE50000000000000A
:101400002DE9F04381B0002800F0F88042F2000896
:101410000446C5F200288946D8F8000000F00F0005
:1014200081420ED9D8F8000020F00F0040EA0900F0
:10143000C8F80000D8F8000000F00F00484540F060
:10144000DD80206844F218474107C5F602070AD537
:1014500021693A6802F07002914204D93A6822F098
:1014600070021143396001070AD561697A6802F098
:101470007002914204D97A6822F0700211437960B7
:10148000C1060AD5A1697A6802F4E062914204D9E2
:101490007A6822F4E0621143796081060AD5E16935
:1014A000BA6802F07002914204D9BA6822F0700260
:1014B0001143B96081070AD5E1683A6802F00F026A
:1014C000914204D93A6822F00F0211433960C007F3
:1014D00040F08080206881070AD5E1683A6802F010
:1014E0000F02914204D23A6822F00F021143396090
:1014F000D8F8001001F00F0189450DD2D8F800107E
:1015000021F00F0141EA0901C8F80010D8F80010D5
:1015100001F00F01494571D141070AD521693A68A7
:1015200002F07002914204D23A6822F07002114334
:10153000396001070AD561697A6802F07002914248
:1015400004D27A6822F0700211437960C1060AD58C
:10155000A1697A6802F4E062914204D27A6822F4C6
:10156000E0621143796080060AD5E069B96801F04C
:101570007001884204D2B96821F070010843B86054
:1015800000F066F8396843F24002C0F60002C1F389
:101590000321515C3B6803F00F0301F01F01D25C93
:1015A00020FA01F102F01F0040F20802C2F20042EC
:1015B00021FA00F0106040F2100040F20402C2F282
:1015C0000040C2F200420068116001B0BDE8F04383
:1015D000FFF75AB9386820F47061D4E90102114369
:1015E0003960012857F8181C0CD0032804D00228B1
:1015F00028D1890302D507E0890105D4012001B073
:10160000BDE8F083C905F9D557F8081C21F007019A
:10161000084347F8080CFFF7EBF8064641F2883517
:1016200057F8080C616800F03800B0EBC10F3FF4C8
:1016300051AFFFF7DDF8801BA842F1D9032001B0BC
:10164000BDE8F0834907D9D5DEE7000000000000BF
:1016500044F20041C5F602010869C0F3C200032844
:1016600014D002280DD088BB0868800649F200001B
:10167000C0F2D03058BF70470968C1F3C101C840FB
:10168000704747F64000C0F27D1070478B6A886A49
:10169000D1F82CC04A6BC0F30510E0B1C2F3CC0204
:1016A00003F0030300EE102A9FED291AB8EE400A5A
:1016B00020EE010A9FED271ADFE803F0021F0F1F3B
:1016C0000A6892060CD49FED251A16E040F6001029
:1016D000C0F23D007047002070479FED1F1A0CE0DC
:1016E0000A6849F20003C0F2D033C2F3C10223FA00
:1016F00002F201EE102AB8EE411A0A6B9FED183A79
:101700006FF35F2202EE102A5FEACC7203FE000A3A
:1017100003EE100A086BB8EE422AC0F34620B8EE7A
:10172000433A013030EE020AB7EE002A81EE031A86
:1017300030EE020A21EE000A01EE100AB8EE411A5C
:1017400080EE010ABCEEC00A10EE100A704700BF1E
:10175000000000390024744A20BCBE4B0024744CA5
:1017600000000000000000002DE9F04381B00028D7
:1017700000F0C7818046007844F20049C007C5F6F2
:10178000020954D0D9F8100000F03801D9F8280027
:10179000102905D018290CD100F00300022808D127
:1017A000D9F8000080033ED5D8F80400D8BB012743
:1017B0002CE0D8F80440D9F800002CB1B4F5A02FE3
:1017C0000BD0B4F5803F0ED020F48030C9F8000073
:1017D000D9F8000020F4802007E040F48020C9F808
:1017E0000000D9F8000040F48030C9F80000FEF78E
:1017F000FFFF05469CB100BFD9F80000800312D45A
:10180000FEF7F6FF401B6428F6D90327002070B9C5
:10181000BCE100BFFEF7ECFF401B6428F5D8D9F807
:1018200000008003F6D40120002800F0AF8198F872
:101830000000800740F18080D9F8100010F03801D6
:10184000D9F828001CD0182908BF5FEA807017D08B
:10185000D8F80C00D9F80010002845D021F0190163
:101860000843C9F80000FEF7C3FF0546D9F8000099
:10187000400728D4FEF7BCFF401B0228F6D91EE023
:10188000D9F80000400704D5D8F80C00002800F073
:10189000DC81D9F80000D8F80C1020F019000843BA
:1018A000C9F80000FEF7A4FF054600BFD9F8000004
:1018B000400708D4FEF79CFF401B0228F6D90327F7
:1018C0000024CCBB62E1FEF78BFF41F203018842AA
:1018D00021D8D8F81000D9F80410402821F47C3120
:1018E00022D141F4003021E021F00100C9F80000CC
:1018F000FEF77EFF05460126D9F8000010F004002F
:1019000086EA900415D0FEF773FF401B0228F3D936
:1019100003278CB93AE1D9F80400D8F8101020F068
:10192000FE4040EA016001E041EA00300124C9F8CC
:101930000400002C00F02A8198F80000C00670D541
:10194000D9F8100000F03801D9F82800082905D08E
:1019500018291CD100F00300012818D1D9F8000083
:10196000C00503D5D8F81C00802855D1FEF738FFF4
:1019700041F20301884222D8D8F82000D9F8041097
:10198000202821F0F8413ED141F080403DE0D8F8D8
:101990001C000028D9F800001ED040F08000C9F8D3
:1019A0000000FEF725FF0546D9F80000C005DDD48C
:1019B000FEF71EFF401B0228F6D903272DE0D9F8B9
:1019C0000C00D8F8201020F07C50012440EA01607F
:1019D000C9F80C002CBBD9E020F08000C9F8000049
:1019E000FEF706FF05460126D9F8000010F48070C6
:1019F00086EA10240CD0FEF7FBFE401B0328F3D32D
:101A0000032774B9C2E041EA8060C9F804000124E8
:101A1000002C00F0BB8004E001270024002C00F023
:101A2000B58098F8000000076DD498F80000800693
:101A300000F1818098F80000400700F19480D8F808
:101A40002440002C5BD0D9F8100000F03800182892
:101A500040F0D980012CD9F82810D9F8300050D0A6
:101A600001F00302D8F828309A424AD1C1F3051197
:101A7000D8F82C20914244D10146D8F830206FF399
:101A80005F21013A91423CD1C0F34622D8F834108C
:101A900001398A4235D1C0F30642D8F838100139ED
:101AA0008A422ED1C0F30660D8F83C100139884232
:101AB00027D1D9F83400D8F84810C0F3CC008142BF
:101AC0001DD0D9F82C0020F00100C9F82C00FEF739
:101AD0008FFE0546FEF78CFEA842FBD0D9F83400F5
:101AE0004FF6F871D8F84820884340EAC200C9F898
:101AF0003400D9F82C0040F00100C9F82C00002770
:101B000044E0012742E0D8F814000028D9F8740016
:101B100040D040F00100C9F87400FEF769FE0546A8
:101B2000D9F8740080073FF580AFFEF761FE401BD7
:101B30000228F5D929E0D8F818000028D9F80000C3
:101B40004DD040F48050C9F80000FEF751FE054624
:101B5000D9F8000080043FF56DAFFEF749FE401B49
:101B60000228F5D911E0D9F8000440F48070C9F8D2
:101B70000004FEF73DFE0546D9F80004C0051CD45C
:101B8000FEF736FE401B6428F6D90327F8B201B0F1
:101B9000BDE8F08320F00100C9F87400FEF728FECC
:101BA00005460327D9F8740080077FF53EAFFEF79E
:101BB0001FFE401B0228F5D9E8E7D8F80840D9F8FD
:101BC00070001CB1052C42D0012C46D020F0010041
:101BD000C9F87000D9F8700020F004003FE020F44C
:101BE0008050C9F80000FEF703FE0546032700BF3A
:101BF000D9F8000080047FF51DAFFEF7F9FD401B0A
:101C00000228F5D9C2E7D9F8000020F08070C9F8A1
:101C10000000FEF7EDFD022C05464FF0030709D149
:101C2000D9F8000080013CD5FEF7E2FD401B0228F8
:101C3000F6D9ABE7D9F8000080017FF560AFFEF779
:101C4000D7FD401B0228F5D9A0E7012738E640F070
:101C50000400C9F87000D9F8700040F00100C9F81C
:101C60007000FEF7C5FD002C054641F288344FF0A8
:101C7000030711D0D9F8700080073FF5E0AEFEF7FA
:101C8000B7FD401BA042F5D980E700BFFEF7B0FDCD
:101C9000401BA0423FF67AAFD9F870008007F5D418
:101CA000CDE608F12807D9F8280040F2F33188433F
:101CB0008ECF0843591E40EA02104FF47E426FF364
:101CC0005F21C9F8280002EB47204FF4FE0280B2E2
:101CD000D8F83C300844D8F8381002EB01414FF0F6
:101CE000FE4201F4FE0102EB0362084402F0FE41F1
:101CF0000844C9F83000D9F82C004FF6F87120F0EC
:101D00000100C9F82C00D9F83400D8F848208843DD
:101D100040EAC200C9F83400D9F82C00D8F84010C5
:101D200020F00C000843C9F82C00D9F82C00D8F892
:101D3000441020F002000843C9F82C00D9F82C0008
:101D400040F48030C9F82C00D9F82C0040F4003061
:101D5000C9F82C00D9F82C0040F48020C9F82C00D8
:101D6000D9F82C0040F00100C9F82C00D9F8000087
:101D700040F08070C9F80000FEF73AFD04460327E2
:101D8000D9F8000080013FF5BAAEFEF731FD001B27
:101D90000228F5D9FAE60000002863D02DE9F047C3
:101DA00043F600040168C4F2000443F2000E43F657
:101DB000004CA142C4F2010EC4F2000C4FF000022C
:101DC000826204D0614518BF714540F0B480C26B97
:101DD0000125C368A14203F1080305EB52124FEA43
:101DE000D30303FB02F218BF714540F09280102A22
:101DF00000F2A58090F8811031B9002180F88010A0
:101E0000044600F0A1F82046022180F88110016804
:101E1000D0F818E00A68BEF1806F22F001020A6073
:101E20008B680FD144682CB1B4F5800F0AD1826B56
:101E300022B13CB9826BB2F1805F03D10A6842F4EF
:101E400080520A60D0F8049003F4F8135FEA492C3A
:101E50000AD5C268072A07D30A68056D22F4807282
:101E60002A4304E0012070470A6822F480720A6065
:101E7000B9F1000FC269856A42EA0302C36B42EA04
:101E8000050242EA0302D0E90285D0E9046A42EA87
:101E900005028A60426B876B456A42EA0502056A61
:101EA00042EA070242EA060242EA0A02D0E9124383
:101EB00042EA050242EA0302836D42EA080242EA6C
:101EC000040242EA030242EA0E0242EA0902CA603E
:101ED00009D18A68012363F3CC228A608A680223CD
:101EE00063F34A228A600A6DBCF1000F22F00102FE
:101EF0000A6505D5CA68436D22F000421A43CA60DC
:101F00000021C0F88410012180F881100020BDE874
:101F1000F087614518BF082A11D8A14218BF714542
:101F20003FF465AF61457FF465AF102A84BF01209F
:101F3000BDE8F0875EE7C2680F2A7FF648AF012050
:101F4000BDE8F08700000000B0B5B8B0044602A8B4
:101F5000C0210025CDE93655CDE934553395FEF73E
:101F6000C2F943F200012068C4F20101884201D0A5
:101F700038B0B0BD4FF48050029002A803951A9576
:101F8000FEF722FD08B1FEF737FB44F2E040C5F64C
:101F90000200016941F480510161016901F480513D
:101FA00001910199016841F001010160006833A9C4
:101FB00000F0010001900198A0203390022034909D
:101FC0000020359003203690052037900020C5F67C
:101FD0000200FEF729FB38B0B0BD00000000000091
:101FE0002DE9F0471D4617460E460446D0F80090EE
:101FF000FEF7FEFB94F8811001290BD180460120E9
:10200000002E18BF002F01D1BDE8F08794F88000A2
:10201000012802D10220BDE8F087012084F8800069
:10202000032184F881100021C4F88410E665A4F827
:102030006070A4F862706166A4F86810A4F86A1071
:10204000A2682167B2F5C02F6167216804D10868D2
:1020500040F40060086003E0CA6860F35242CA605E
:10206000D4E900014FF6FF73B1F5800F426822EA10
:1020700003023A444260026842F00101016003D168
:10208000016841F400710160E168102933D3B4F8AC
:102090006200002800F0A7806E1C0EE0E16D51F890
:1020A000042B0262E165B4F862000138A4F8620012
:1020B000B4F86200002800F0968020684169890722
:1020C000ECD4FEF795FB002EF2D0A0EB0800A8425E
:1020D000EED3204600F064FAD4F8840040F4807017
:1020E000C4F88400012084F88100002084F8800076
:1020F0000320BDE8F087B4F86200072931D9002831
:1021000071D04FF6FE706E1C471C0FE0E16D31F888
:10211000020BA9F820003846E165B4F862100844C3
:10212000A4F86200B4F8620000285CD0206841691D
:10213000890708D4FEF75CFB002EF3D0A0EB080063
:10214000A842EFD3C5E7B4F862100229DED3E16BF1
:102150000029DBD0E16D51F8042B02624FF6FE70CE
:10216000DAE700283FD04FF6FE706E1CA0F1020A9D
:10217000471C0FE0E16D097880F82010E06D411CEC
:102180003846E165B4F862100844A4F86200B4F877
:10219000620040B320684169890708D4FEF728FB34
:1021A000002EF4D0A0EB0800A842F0D391E7B4F8D9
:1021B0006210042908D3E16B412905D3E16D51F880
:1021C000042B02625046DCE7B4F862100229D1D336
:1021D000E16B0029CED0E16D31F8020BA9F82000A7
:1021E0004FF6FE70CDE76E1C2068406907070FD4DC
:1021F000FEF7FEFA002EF7D0A0EB0800A842F3D3BA
:10220000002F05D4D4F8840040F02000C4F88400E6
:10221000204600F0C5F9012084F88100002084F8F0
:102220008000D4F88400002818BF0120BDE8F087A2
:10223000411E0020B0EB116F01D0012070474EF21B
:102240001002F023CEF2000251604EF62351CEF27E
:1022500000010B70072190601160704700000000C2
:10226000FEE700000000000070B586B044F2E040D8
:102270000025C5F602000595CDE90355CDE90155C8
:10228000016840F6004441F0800101600168C5F634
:10229000020401F0800100910099016841F0010100
:1022A00001600168002201F00101009100990168BC
:1022B00041F00801016000684FF4E06100F008009F
:1022C0000090009820464FF4E066FEF781FA012066
:1022D00001A9CDE902050320049020460196FEF7EE
:1022E000A3F906B070BD000010B540F2180443F227
:1022F0000000C2F20044C4F201004FF0807120607F
:102300004FF4800060604FF40030A0600720E06070
:102310000020206161614FF08061C4E90610C4E9CA
:102320000800C4E90A0004F134002821FDF7DBFFAE
:102330002046FFF731FD002808BF10BDBDE8104062
:10234000FEF75AB900000000FEE7000000000000A0
:10235000FEE70000000000007047000000000000E1
:10236000F0B581B044F22C47C5F6020757F8042CAB
:1023700002F00302032A02D1012001B0F0BD05469C
:1023800057F82C0C0C4620F0806047F82C0CFEF718
:102390002FFA064657F82C0C000105D5FEF728FA4F
:1023A000801B0228F6D964E057F8040CEE6895E823
:1023B0000E0020F47C30012C40EA0130A2F1010132
:1023C0006FF35F214FF47E4202EB432247F8040C87
:1023D00092B24FF0FE4302EB01004FF4FE012A6976
:1023E00001EB064101F4FE0103EB0262084402F036
:1023F000FE410844F8603868696920F0C00040EA8E
:10240000010038603868A96920F0200040EA010026
:10241000386038684FF6F87120F01000386038697D
:10242000EA6920EA01004FF4001140EAC200386175
:10243000386808BF4FF4801140F01000002C38605D
:1024400008BF4FF4002138680843386057F82C0C57
:1024500040F0806047F82C0CFEF7CAF9044600BF34
:1024600057F82C0C000107D4FEF7C2F9001B032813
:10247000F6D3032001B0F0BD002001B0F0BD000094
:10248000F0B581B044F22C47C5F6020757F8042C8A
:1024900002F00302032A02D1012001B0F0BD05467B
:1024A00057F82C0C0C4620F0805047F82C0CFEF707
:1024B0009FF9064657F82C0C800005D5FEF798F9D1
:1024C000801B0228F6D964E057F8040CEE6895E802
:1024D0000E0020F07C70012C40EA0150A2F10101B5
:1024E0006FF35F214FF47E4202EB432247F8040C66
:1024F00092B24FF0FE4302EB01004FF4FE012A6955
:1025000001EB064101F4FE0103EB0262084402F014
:10251000FE41084478613868696920F4406040EA07
:10252000010038603868A96920F4007040EA0100B1
:10253000386038684FF6F87120F480703860B869F8
:10254000EA6920EA01004FF0807140EAC200B861F8
:10255000386808BF4FF4000140F48070002C3860E8
:1025600008BF4FF4800138680843386057F82C0CD6
:1025700040F0805047F82C0CFEF73AF9044600BFB3
:1025800057F82C0C800007D4FEF732F9001B032803
:10259000F6D3032001B0F0BD002001B0F0BD000073
:1025A000016840F26F32D1F814C08B6943F0080320
:1025B0008B618B6943F010038B610B6823F001037F
:1025C0000B600B6923EA02020A618A6822F4404226
:1025D0008A6090F88120042A18BF1CF0200209D0DC
:1025E000D0F8842042F08002C0F884208A6942F04A
:1025F00020028A6190F88120032A18BF1CF0400253
:1026000015D15FEA8C521FD45FEACC5209D5D0F8BD
:10261000842042F00802C0F884208A6942F4807263
:102620008A610021A0F86210A0F86A107047D0F803
:10263000842042F00402C0F884208A6942F04002FB
:102640008A615FEA8C52DFD5D0F8842042F0010223
:10265000C0F884208A6942F400728A615FEACC5231
:10266000D5D4DEE700000000704700000000000045
:10267000FEF7C6B800000000B0B59CB044F61804E0
:1026800009A84C21C5F60204FDF72DFE0220002505
:10269000CDE90755CDE90555CDE90355CDE90155FE
:1026A000FEF76EF940F22C400095C5F60000016877
:1026B00021F0010101600068012100F0010000909B
:1026C000206861F38F302060206800F44040009063
:1026D000009800BF20688004FCD5012009904FF4C9
:1026E00080300A9002200521CDE912001491482182
:1026F000CDE91510042017900C201890082019908F
:1027000009A80024CDE91A44FFF72EF818B1EFF319
:10271000108072B6FEE73F20019003204FF4A061C5
:10272000CDE9020440200494CDE90500CDE907106D
:1027300001A80321FEF764FE18B1EFF3108072B612
:10274000FEE71CB0B0BD00004EF6885042F2000C0F
:10275000CEF20000C5F2002C016841F47001016066
:10276000DCF8000000F00F00062806D8DCF80000B6
:10277000072161F30300CCF8000044F200404EF65C
:102780007F52C5F60200CEF6F622016841F0010143
:1027900001600021016103681A400260DCF800203A
:1027A000120706D5DCF80020072363F30302CCF8F8
:1027B000002040F200228161C161C0F20222016268
:1027C00082620022C0F2FF12C26240F28022C0F296
:1027D0000112026341638263C1630264416402685F
:1027E00022F48022026041F200020166C5F6004236
:1027F0001268B1EB527F05D148F208110122C5F2EF
:1028000000110A60D0F8D410C90448BF7047D0F84E
:10281000D41043F2D20241F48051C0F8D41044F2F3
:102820000001C5F200210A60D0F8D41021F48051D3
:10283000C0F8D41070470000FEE700000000000060
:10284000ADF57A6DFDF7ECFFFFF716FFFFF70CFD16
:10285000FFF74AFD40F218006C46C2F200400068E3
:10286000016841F0010101604FF47A612046FDF7F3
:102870003AFDB1EE049B0025B7EE00AB9FED148B43
:102880009FED15BB28EE0B0B00F042F838EE0A8BDB
:102890006019083520EE090BB5F57A6F80ED000B55
:1028A000F0D1FDF749FDFDF79BFD0120FDF764FD2B
:1028B000B1EE040B0020FDF73BFE6C4601204FF407
:1028C000FA722146FDF7B8FDF8E700BF00BF00BF70
:1028D0000000000000000000FA4888B665BC893F8F
:1028E00003B401984100009850EAC12018BF0420A9
:1028F0004A0D18BF40F0010040F2FF72B2EB515F89
:1029000008BF40F00200012808BF052002B0704750
:1029100010B529499FED261B2DED020B84B00598BB
:1029200020F000408842DCBF00209DED040B2EDD2E
:102930002249884209D1049840B94FF0010000F0C3
:10294000D7FA00F0ADFA06B010BD05DB9DED040B23
:1029500030EE000B06B010BD68469DED040B00F094
:102960002FF810F003000DD0012814D09DED021BAC
:102970009DED000B022816D000F0A6F9B1EE400B39
:1029800006B010BD9DED021B9DED000B012000F077
:1029900037FA06B010BD9DED021B9DED000B00F057
:1029A00093F906B010BD012000F02AFAE6E7000016
:1029B0000000000000000000FB21E93F0000F07F64
:1029C0002DE9F14F04462DED020B2DED048B94B053
:1029D0009FED9D0B80ED020B199E9D4826F0004552
:1029E00085420ADC9DED180B002084ED000B14B02D
:1029F000BDEC048B03B0BDE8F08F96489FED969B2D
:102A00009FED978BA84225DD97489FED991B9FED81
:102A10009A2B9DED180B002E0DDD30EE490B8542F3
:102A200012BF30EE480B30EE410B30EE420B84ED1E
:102A3000000B0120DBE730EE090B854212BF30EEC0
:102A4000080B30EE010B30EE020B84ED000B4FF063
:102A5000FF30CCE78A48A84253DB9DED180B51ECC0
:102A6000100B00F04BFA41EC100BB0EE401B9FED49
:102A7000862BB6EE000B01EE020BFDEEC00B10EE46
:102A8000903A00EE903AB8EEE02BB0EE410B02EE39
:102A9000490B22EE081BDFF8F8C1290D0120FC4488
:102AA00030EE411B84ED001B03281DD011EE902A4F
:102AB00000EB4015113DC2F30A528A1A954213DA0F
:102AC000B0EE403B0CEB001292ED000B20EE021B2F
:102AD00033EE410B33EE403B33EE411B92ED023BB4
:102AE00012EE031B401CDBE7002EA8BF1846BFF602
:102AF0007EAF94ED000BB1EE400B84ED000B58421D
:102B000075E7C6F3130040F4801EC6F30A50A0F226
:102B1000F530471100F01F05C5F12000DDF860B069
:102B2000139000200890099005200DF1080C5949D8
:102B3000002D07EB0002794408BF51F8221009D09C
:102B400051F8223001EB8201AB404A68139922FA16
:102B500001F11943A1FB0E26A1FB0B131A449A4263
:102B600034BF0123002303EB06080CEB8003D3E9F9
:102B700001A60E448E4234BF0121002192448A44B2
:102B800011B1924502D903E0924501D2012100E042
:102B90000021C3E901A641444CF82010011EA0F118
:102BA0000100C4DC04989DED050A00F10050810F7E
:102BB0000498DDED060A80009DED072A01EE100A5B
:102BC000B8EEC13BB8EE401B9FED334B21EE041B2A
:102BD000B8EE600B9FED324B20EE040BB8EE422BAB
:102BE0009FED314B22EE042B30EE024B34EE014BC5
:102BF00034EE034B8DED004B002000909DED004B1B
:102C000034EE433B33EE411B31EE400B32EE401BC2
:102C10009DED000B9FED262B20EE020B9FED262B4A
:102C200001EE020B9DED001B9FED252B01EE020B2B
:102C3000199810F0004F1CBF4942B1EE400B84EDD3
:102C4000000B0846D3E60000000000000000000072
:102C5000FB21E93F7CD9024000004054FB21F93FB1
:102C60003163621A61B4D03DFB21F93F00000000DE
:102C70000000601A61B4D03D7370032E8A19A33B23
:102C8000FB2139410000000083C8C96D305FE43F7B
:102C9000A60400003E040000000000000000103EFA
:102CA000000000000000103C000000000000103A8E
:102CB0003326A611460B113C182D4454FB21F93D37
:102CC00000000054FB21F93D10B52DED040B2DED56
:102CD000048B82B0B0EE419B079820F00044B4F121
:102CE000795F0FDA9DED060BBDEEC00B10EE100AFA
:102CF000002801BFB7EE000B02B0BDEC048B04B09E
:102D000008BF10BD9DED060B20EE008BB0EE480B0A
:102D10001B480621784400F039F820EE080B28EE15
:102D2000000B9DED061B01EE490BB6EE001B28EED5
:102D3000011B1448B7EE002B8442BCBF31EE400BA0
:102D400032EE400B16DB1048A042BCBFB5EE023B92
:102D50008DED003B06DBA4F50010019000200090F3
:102D60009DED003B31EE431B32EE432B31EE400B29
:102D700032EE400B02B0BDEC048B04B010BD00007D
:102D8000000200003333D33F0000E93FB0EE401BA8
:102D9000491E00EBC10292ED000B31F006020DD08E
:102DA000491E00EBC10292ED002BB0EE403BB0EEAD
:102DB000420B03EE010B31F00602F1D1022914D0CF
:102DC00004290AD0062918BF704790ED0A2B00EE9F
:102DD000012B90ED080B02EE010B90ED062B00EE9F
:102DE000012B90ED040B02EE010B90ED022B00EE97
:102DF000012B90ED000B02EE010B7047000000006C
:102E000031B504462DED040B2DED068BB0EE419B44
:102E100007989DED060B20F00040B0F1795F0DDAC8
:102E200051EC100BFFF75CFD042808BF00F044F8DC
:102E30009DED060BBDEC068B05B030BD20EE008B82
:102E400028EE00ABB0EE480B114805217844FFF79F
:102E50009DFF9FED111B8CB1B6EE002B29EE022BCE
:102E60000AEE402B18EE029B0AEE419B9DED060BED
:102E700030EE490BBDEC068B05B030BD08EE001BF3
:102E80009DED060B0AEE010BBDEC068B05B030BDC7
:102E9000C801000000000000495555555555C5BFF3
:102EA0009FED031B81EE010B704700000000000046
:102EB00000000000000000009FED030B20EE000B5F
:102EC000704700000000000000000000000000103B
:102ED00002E008C8121F08C1002AFAD170477047E3
:102EE000002001E001C1121F002AFBD17047000041
:102EF00001490860704700000000002482B0CDE95D
:102F0000000121F0004001909DED000B02B051EC5A
:102F1000100B7047000000004C5555555555A53F06
:102F20007751C1166CC156BF9015CB19A001FA3E5E
:102F3000AD529C804F7E92BEC4B1B4BD9EEE213E88
:102F4000D43888BEE9FAA8BD00004054FB21F93FFF
:102F50003163621A61B4D03D0000601A61B4D03DA3
:102F60007370032E8A19A33B0000002E8A19A33B1D
:102F7000C14920259A837B39000000000000000031
:102F80006E83F9A22915444ED15727FCC0DD34F5D4
:102F9000999562DB4190433CAB6351FE61C5BBDE5A
:102FA0003A6E24B7E0D24D42EA2E49061C92D1096E
:102FB0001CEB1DFE3EA729B1F53582E88444BB2EEB
:102FC00026709CE9417E5FB439D69139F439538338
:102FD0008B5F849C3B28F9BDFF97F81F0F9805DE97
:102FE0008B112FEF1F6D0A5ACF7E366DB709CB2795
:102FF000663F464F2DEA5F9EC7BA27757BF1E5EB2A
:10300000F739073DEA92528AB15FFB6B085D8D1F6D
:103010004630035600000000A6F810111111813F40
:10302000D561C119A0012ABF7DFEB157E31DC73E7E
:10303000EB9C2B8AE6E55ABE7CD5CF5A3AD9E53DC2
:10304000000000000102030401020304060708094E
:10305000703000080000002418000000D02E000886
:10306000883000081800002490150000E02E0008A9
:10307000000000000090D0030090D0030100000089
:08308000100000000000000038
:040000050800029954
:00000001FF
