:020000040800F2
:1000000070040020A101000803110008CD0F0008B2
:100010000111000875050008F31400080000000035
:1000200000000000000000000000000007110008B0
:1000300077050008000000000511000809110008FC
:10004000BB010008BB010008BB010008BB010008A0
:10005000BB010008BB010008BB010008BB01000890
:10006000BB010008BB010008BB010008BB01000880
:10007000BB010008BB010008BB010008BB01000870
:10008000BB010008BB010008BB010008BB01000860
:10009000BB010008BB010008BB010008BB01000850
:1000A000BB010008BB010008BB010008BB01000840
:1000B000BB010008BB010008BB010008BB01000830
:1000C000BB010008BB010008BB010008BB01000820
:1000D000BB010008BB010008BB010008BB01000810
:1000E000BB010008BB010008BB010008BB01000800
:1000F000BB010008BB010008BB010008BB010008F0
:10010000BB010008BB010008BB010008BB010008DF
:10011000BB010008BB010008BB010008BB010008CF
:10012000BB010008BB010008BB010008BB010008BF
:10013000BB010008BB010008BB010008BB010008AF
:10014000BB010008BB010008BB010008BB0100089F
:10015000BB010008BB010008BB010008BB0100088F
:10016000BB010008BB010008BB010008BB0100087F
:10017000BB010008BB010008BB0100080000000033
:10018000BB010008BB010008DFF810D000F0E0F967
:1001900000480047B1150008AFF30080700400204C
:1001A0000648804706480047FEE7FEE7FEE7FEE711
:1001B000FEE7FEE7FEE7FEE7FEE7FEE7A111000827
:1001C000890100082DE9F05F0546002092469B4614
:1001D00088460646814640241BE02846414647465D
:1001E000224600F048F953465A46C01A914110D3AE
:1001F00011461846224600F02FF92D1A67EB010828
:100200004F4622460120002100F026F917EB000995
:100210004E41201EA4F10104DFDC484631462A4647
:100220004346BDE8F09FD2B201E000F8012B491E21
:10023000FBD270470022F6E710B513460A46044683
:100240001946FFF7F0FF204610BD2DE9FE4F81EA69
:10025000030404F0004421F0004100944FF0000B2F
:1002600023F0004350EA01045ED052EA03045BD05D
:10027000C3F30A54C1F30A552C44A4F2F334019495
:10028000A0FB0254C1F3130141F48011C3F3130323
:1002900043F4801301FB024400FB034E840A970AD7
:1002A00044EA815447EA8357A4FB076802958D0A04
:1002B00005FB07854FEA932C04FB0C542705029D90
:1002C0004FEA065847EA1637B5EB08056EEB070C00
:1002D000870E920E47EA811742EA8312A7FB0201BA
:1002E000B6EB0B0164EB00042B0D43EA0C335E18F4
:1002F00044EB1C50DA465146E7FB0201C5F31304F8
:100300004FEA0B3343EA14534FEA0432019C43EAA9
:100310000603A4F10C040294009CCDE900B400F0A3
:10032000C9F803B0BDE8F08F00200146F9E72DE9D8
:10033000F04D81EA030404F0004B21F0004514461F
:100340004FF0000A23F0004150EA050220D054EAA1
:1003500001021DD0C5F30A570246C5F31303C1F3CA
:100360001300C1F30A5640F4801543F48013A7EB41
:100370000608101BD64608F2FD3873EB050002D3C1
:1003800008F1010801E092185B41B8F1000F03DAAF
:1003900000200146BDE8F08D00204FF48011064694
:1003A00084460EE0171B73EB050705D3121B63EBA6
:1003B000050306434CEA010C49084FEA3000921845
:1003C0005B4150EA0107EDD152EA030012D082EA04
:1003D000040083EA0501084305D0101BAB4106D297
:1003E0000122002306E000224FF0004302E06FF0FC
:1003F000010253101AEB06004CEB085110EB0A00F7
:1004000041EB0B01BDE8F04D00F045B80EB540F2F0
:10041000334102910021CDE900110A460B4600F05C
:1004200049F803B000BDC1F30A5210B5C1F313017E
:1004300040F2FF3341F480119A4201DA002010BDEE
:1004400040F233439A42A2F2334203DC524200F0BC
:1004500012F810BD904010BD202A04DB203A00FAAB
:1004600002F1002070479140C2F1200320FA03F30B
:10047000194390407047202A04DB203A21FA02F009
:100480000021704721FA02F3D040C2F120029140CE
:1004900008431946704710B5141E73F1000408DABA
:1004A000401C41F1000192185B411A4301D120F038
:1004B000010010BD2DE9F04D92469B4611B1B1FAF5
:1004C00081F202E0B0FA80F220329046FFF7C4FFDA
:1004D00004460F4640EA0A0041EA0B0153465A46D9
:1004E000084313D0114653EA010019D0C8F1400265
:1004F0005046FFF7C0FF05460E4650465946424655
:10050000FFF7AAFF084305D0012004E02046394642
:10051000BDE8F08D0020054346EAE0762C433743E2
:100520000A986305E40AA0EB08000022FD0A44EAE9
:1005300047540A3002D500200146E9E701051019A9
:100540006941DDE9084500196941BDE8F04DA2E7C0
:10055000064C074D06E0E06840F0010394E8070010
:1005600098471034AC42F6D3FFF712FE504600080D
:1005700070460008FEE7704772B6FEE70D4910B5F9
:10058000884200D90846FFF741FF9FED0B1B53EC53
:10059000112BFFF75AFEFFF746FF0949020AC871FF
:1005A0008A71020C4A71000E0871BDE8104000F01B
:1005B0007DBE00000084D71795D626E80B2E11408B
:1005C0001800002070B5044600F00CF90546601CC8
:1005D00002D004480078044400F004F9401BA04213
:1005E000FAD370BD000000202DE9F84FDFF8BCA160
:1005F0000022012503264FF00F090AF1040BAAF18E
:10060000040E00BF0B6805FA02F42340A34270D128
:100610000F7907F00307012F01D0022F16D1876849
:100620004FEA420806FA08FC27EA0C07D1F80CC08A
:100630000CFA08FC4CEA070CC0F808C04768A7434E
:100640000C79C4F3001494403C4344600C79E443B7
:10065000A4070AD0C4684FEA420C06FA0CF7BC4360
:100660008F6807FA0CF72743C7600C7904F003047E
:10067000022C12D1D40800EB840CDCF82040570780
:10068000FF0E09FA07F824EA0804D1F8108008FAE6
:1006900007F848EA0408CCF8208004684FEA420CC6
:1006A00006FA0CF7BC430F7907F0030707FA0CF7BB
:1006B000274307604C6814F4403F70D03C4C2768D7
:1006C00047F480472760246822F0030704F480443D
:1006D0000094384C07EB040CDCF8084897074FEA05
:1006E000177809FA08F7BC43334FB84202D1002704
:1006F00024E054E0314FB84201D101271EE0304FD1
:10070000B84201D1022719E02E4FB84201D1032788
:1007100014E02D4FB84201D104270FE02B4FB8420F
:1007200001D105270AE02A4FB84201D1062705E08A
:10073000284FB84201D1072700E0082707FA08F739
:100740002743CCF80878DAF800405746D1F804C0BF
:100750009C435FEACC2C00D51C433C60DBF8004096
:100760005F46D1F804C09C435FEA8C2C00D51C4343
:100770003C60DEF800407746D1F804C09C435FEA55
:100780008C3C00D51C433C60084F083F3C68D1F8C6
:1007900004C09C435FEACC3C00D51C433C60521C27
:1007A000102AFFF42FAFBDE8F88F0000083C01408D
:1007B0004438024000300140000002400004024082
:1007C00000080240000C02400010024000140240E9
:1007D00000180240001C02400AB181617047090400
:1007E000FBE700000148806870470000000000201F
:1007F000024881680278114481607047000000203F
:100800000B4810B5016841F400710160016841F4C2
:1008100080610160016841F480710160032000F093
:1008200061F80F2000F006F800F024F8002010BD59
:10083000003C024070B50D4D04464FF47A712878A3
:10084000B1FBF0F00A490968B1FBF0F000F0F2FAF0
:1008500048B9102C07D200222146501E00F022F881
:1008600000206C6070BD012070BD00000000002001
:100870000C0000200A4808B5016841F4804101607D
:10088000006800F4804000900548001F016841F0B6
:1008900080510160006800F08050009008BD0000A9
:1008A00044380240F0B40E4B1B680C46C3F30223DD
:1008B000C3F10705042D00D90425191D072901D20C
:1008C000002300E0DB1E012606FA05F1491E214047
:1008D00099409E40761E16403143F0BC00F02CBE7D
:1008E0000CED00E0064900F0070208684FF6FF0330
:1008F000184040EA0220034A104308607047000095
:100900000CED00E00000FA052DE9F0470E46050069
:1009100065D0DFF81481D8F80000F7B200F00700C6
:10092000B04207D288F80070D8F8000000F0070045
:10093000B04254D128683D4C810712D5400703D5F9
:10094000206840F4E05020602878000703D5206834
:1009500040F4604020602068A96820F0F00008435F
:1009600020602878C0072DD03049686808390128F0
:1009700012D0022813D0032811D009688907002952
:100980002DDA216821F0030101432160FFF72AFFDE
:10099000814641F2883A0EE009688903EFE7096869
:1009A0008901ECE7FFF71EFFA0EB0901514502D9D1
:1009B0000320BDE8F0872068696800F00C00B0EB08
:1009C000810FEFD1D8F80010404601F00701B14285
:1009D00007D90770006800F00700B04201D001207D
:1009E000E7E72878400705D52068E96820F4E0505B
:1009F000084320602878000706D52068296920F47C
:100A0000604040EAC100206000F038F82168084AE0
:100A1000C1F30311515CC8400649086006480068EC
:100A2000FFF708FF0020C4E7003C024008380240FE
:100A3000341600080C00002004000020044805497A
:100A400000680968044AC1F38221515CC8407047BC
:100A50000C000020083802404416000804480549EC
:100A600000680968044AC1F34231515CC8407047CC
:100A70000C0000200838024044160008104810B549
:100A8000006810F00C010F4818D0042916D008296E
:100A900014D10B4C241F216801F03F02216821680A
:100AA0000023C1F38811A1FB0001FFF78BFB216834
:100AB000C1F30141491C4900B0FBF1F010BD000039
:100AC000083802400024F4002DE9F84F04006ED0ED
:100AD0002078DFF84C93C007A9F104054AD009F14A
:100AE00004000168C1F38101012908D00068C0F346
:100AF000810002280AD1D9F80000400206D52868F2
:100B0000800337D560680028E1D033E06068B0F535
:100B1000803F10D0B0F5A02F286810D020F480308E
:100B20002860286820F4802028606068A8B1FFF75A
:100B300059FE06460DE0286840F48030F4E740F4A2
:100B400080202860F7E700BFFFF74CFE801B642879
:100B500073D828688003F7D50CE0FFF743FE0646FC
:100B600005E000BFFFF73EFE801B6428F0D8286830
:100B70008003F7D42078DFF8AC8280074FF0000ABA
:100B80003ED5A748001D016811F00C0F08D0006881
:100B9000C0F3810002280BD1D9F80000400207D42D
:100BA0002868800716D5E068012800D112E033E1FB
:100BB000E068B8B10120C8F80000FFF713FE064650
:100BC00005E000BFFFF70EFE801B0228C0D8286892
:100BD0008007F7D52868216920F0F80040EAC100B5
:100BE00028600DE0C8F800A0FFF7FCFD064604E011
:100BF000FFF7F8FD801B02281FD828688007F7D46C
:100C00002078000722D5864F87486169703771B117
:100C100001210160FFF7E6FD064604E0FFF7E2FD73
:100C2000801B022809D838688007F7D50EE0C0F885
:100C300000A0FFF7D7FD064605E082E0FFF7D2FDF2
:100C4000801B02287DD838688007F7D420784007B9
:100C500068D5DFF8CCB100270BF13C0BDBF80000C6
:100C6000C0000BD4DBF8001041F08051CBF800102D
:100C7000DBF80000012700F0805000906B4E3068D8
:100C8000C00510D4306840F480703060FFF7AAFDD2
:100C9000009005E0FFF7A6FD0099401A022850D801
:100CA0003068C005F6D55E4EA0686C3601280FD0BE
:100CB0000528306810D020F001003060306820F046
:100CC00004003060A068B8B1FFF78CFD00900FE021
:100CD000306840F00100F4E740F004003060F7E7CE
:100CE000FFF780FD0099411A41F28830814266D8B1
:100CF00030688007F4D50EE0FFF774FD009007E040
:100D0000FFF770FD0099411A41F28830814256D8B0
:100D100030688007F4D42FB1DBF8001021F0805147
:100D2000CBF80010A069C8B33D49091D0968C1F39B
:100D3000810102294AD00228504607D0C8F8600035
:100D400000E03CE0FFF74EFD04463BE04746C8F8B4
:100D50006000FFF747FD064605E000BFFFF742FDD4
:100D6000801B02282BD828688001F7D4D4E907011A
:100D70000843A16A2E4A490802EB0141626A41EA2E
:100D80008211084394F82C1040EA0161C9F8001060
:100D900001203866FFF726FD044606E03EE000BF6E
:100DA000FFF720FD001B022809D828688001F7D52D
:100DB00034E000BFFFF716FD001B022802D9032014
:100DC000BDE8F88F28688001F4D427E00128F7D027
:100DD000D9F80000E26900F4800191421CD1226A36
:100DE00000F03F01914217D147F6C071626A01409D
:100DF000B1EB821F10D1A26A4FF0FF3300F44031F3
:100E000003EB5202B1EB024F06D194F82C1000F024
:100E10007060B0EB016F01D00120D1E70020CFE777
:100E20000438024000004742800E474200700040F4
:100E30000000FFFF10B5401EB0F1807F01D30120FC
:100E400010BD4FF0E02460610F21601700F074FBCB
:100E50000020A06107202061002010BD70B50400B3
:100E600004D094F84100002510B106E0012070BDC7
:100E700084F84050204600F023F8242084F84100F4
:100E80002068C16821F40051C160204600F072FA68
:100E90002068016921F4904101612068416921F0D5
:100EA0002A0141612068C16841F40051C160656454
:100EB000202084F8410084F842006563002070BD62
:100EC00010B586B0044614216846FFF7B3F91449FB
:100ED0002068884221D113480021026842F01002A4
:100EE0000260006800F0100005900E481438026897
:100EF00042F001020260006800F0010005904FF42A
:100F0000C06000900220CDE901010320039007207A
:100F1000049069460448FFF767FB06B010BD000067
:100F20000010014044380240000002402DE9F8431F
:100F3000044690F84100984616460D46202802D0F7
:100F40000220BDE8F88385B17EB1002060642120D5
:100F500084F84100FFF746FCA6848146E684A06839
:100F60002027B0F5805F02D003E00120E9E7206987
:100F700010B12E4600250EE000260CE08021204610
:100F800000F07EFAA8B9C6B116F8010B21684860D6
:100F9000E08C401EE084E08C4B464FF00002CDF820
:100FA00000800028EAD14FF04001204600F068FAA6
:100FB00040B184F841700320C3E735F8020BC0F359
:100FC0000800E3E784F841700020BAE7FEE700007C
:100FD00070B5184C002220212046FFF7FDFB164D6E
:100FE000002280212846FFF7F7FB0022A1142046AB
:100FF000FFF7F2FB002240212846FFF7EDFB00221D
:1010000010212846FFF7E8FB002280212046FFF749
:10101000E3FB012204212846FFF7DEFB0520FFF752
:10102000D1FA002204212846FFF7D6FBBDE8704024
:1010300000F0BEB800040240000002402DE9F04379
:1010400087B014216846FFF7F5F81C4800240168B2
:1010500041F001010160016801F0010105910168A1
:1010600041F0020101600068DFF8548000F00200E6
:101070004FF4FE750590012229464046FFF7ACFB70
:10108000DFF8409041F2E607012239464846FFF773
:10109000A3FB0095022601250396CDE9015469467C
:1010A0004046FFF7A1FA00970396CDE9015469463F
:1010B0004846FFF799FA07B0BDE8F08330380240A0
:1010C00000000240000402400C4810B50A490160CB
:1010D0004FF4E1314160002181600C22C160C0E920
:1010E00004128161C161FFF7B9FE002803D0BDE899
:1010F0001040FFF741BA10BD00100140240000204D
:10110000FEE7FEE770477047FFF772BB30B593B05C
:1011100030216846FFF78EF814210CA8FFF78AF8F3
:101120001D480025016841F080510160006800F011
:10113000805011901948016841F4804101600068B5
:10114000022400F4804011900120039010200490AC
:10115000009406940820CDE90750A820CDE90904A1
:1011600004200B906846FFF7AFFC08B172B6FEE7AB
:101170000CA90F2081E831004FF4A0500F904FF4DC
:101180008050109005210CA8FFF7BEFB002801D06D
:1011900072B6FEE713B030BD403802400070004028
:1011A0000248016841F470010160704788ED00E079
:1011B0002DE9F041364E4FF4807500222946304625
:1011C000FFF70AFB002000F009FA324F0024385DD7
:1011D00000F004FA641CE4B2042CF8D3012229467E
:1011E0003046FFF7F9FA0022521CD2B20A2AFBD38A
:1011F000002229463046FFF7EFFA012000F0EEF911
:10120000244F00243F1D385D00F0E8F9641CE4B26F
:10121000042CF8D3012229463046FFF7DDFA0022DC
:10122000521CD2B20A2AFBD3002229463046FFF7CD
:10123000D3FA022000F0D2F9174F0024385D00F0F5
:10124000CDF9641CE4B2042CF8D3012229463046BF
:10125000FFF7C2FA0020401CC0B20A28FBD30F4C93
:10126000012204212046FFF7B7FA0021491CC9B228
:101270000A29FBD3002204212046FFF7ADFA012002
:10128000FFF7A0F9BDE8F04105A000F04DB900005E
:1012900000000240100000204C160008000402402C
:1012A00054786366725F6F7665720A002DE9F041CB
:1012B000194F4FF48076002231463846FFF78CFAFA
:1012C0000E2000F08BF9154D0024285D00F086F902
:1012D000641CE4B2082CF8D3012231463846FFF7EB
:1012E0007BFA0020401CC0B20A28FBD30C4C012220
:1012F00004212046FFF770FA0021491CC9B20A29CF
:10130000FBD3002204212046FFF766FABDE8F04136
:101310000120FFF757B9000000000240180000202C
:101320000004024001680C3151E8002F22F4907251
:1013300041E80023002BF5D10168143151E8002F5A
:1013400022F0010241E80023002BF5D1016B0129B5
:1013500009D101680C3151E8002F22F0100241E858
:101360000023002BF5D1202180F8421000210163D9
:101370007047000070B5044600680169E26821F416
:101380004051114301612169A068E2690843616924
:10139000114308432168CA6849F20C639A43024327
:1013A000CA6020684169A26921F44071114341611A
:1013B00031492068884202D03049884202D1FFF783
:1013C0004DFB01E0FFF73AFBE26900231921642598
:1013D0003226B2F5004F626828D0A0FB0101930FBE
:1013E0009200FEF7EFFE0146B0FBF5F06FF0180239
:1013F000504301EB800006EB0010B0FBF5F000F06D
:10140000F002B1FBF5F002EB0012B1FBF5F06FF06A
:101410001803584301EB800006EB0010B0FBF5F019
:1014200000F00F0021681044886070BDA0FB01012E
:1014300092185B41FEF7C6FE0146B0FBF5F00201D3
:10144000B1FBF5F06FF01803584301EB800006EB99
:10145000C000B0FBF5F000F0F80002EB4002B1FB79
:10146000F5F0584301EB800006EBC000B0FBF5F04F
:1014700000F00700D6E70000001001400014014012
:101480002DE9F843984617460D460446089E24E089
:10149000701C22D0FFF7A6F9A0EB0800B0421AD8C2
:1014A000CEB12068C168490717D5802D15D0402DD1
:1014B00013D00168C94309070FD4016800254068AB
:1014C00000902046FFF72EFF0820606484F840500B
:1014D0000120BDE8F8830320FBE72068006835EAB7
:1014E000000004D00020B842D2D00020F1E7012053
:1014F000F9E7FEE710B5FEF789FF9FED081B53ECF7
:10150000112BFEF714FFFEF78EFF0649C0F30522EC
:101510000A704870BDE81040FFF7C8BE6E2F0ED3AA
:101520006300A93F18000020014A024900F023B8D7
:1015300099150008200000200907090E002804DB87
:1015400000F1E02080F80014704700F00F0000F177
:10155000E02080F8141D704702E008C8121F08C17F
:10156000002AFAD170477047002001E001C1121F24
:10157000002AFBD170472DE9F04116460F4604467C
:10158000002503E03946B047641C6D1C2078002814
:10159000F8D12846BDE8F08113B5642301226946DD
:1015A0000248FFF7C3FC00981CBD00002400002087
:1015B000FFF726F9FFF7AAFDFFF740FDFFF784FDCF
:1015C0004820FEF7FFFFFFF703FD4FF47A70FEF7A8
:1015D000D5FFC820FFF78EFFFEE700002DE9F041A0
:1015E000124E07468025002208213046FFF7F4F806
:1015F000DFF83C8000242F4201D1002200E00122CC
:1016000040214046FFF7E8F8012208213046FFF765
:10161000E3F86D08002208213046FFF7DDF8641C6E
:10162000E4B2082CE7D3BDE8F081000000000240DE
:10163000000402400000000000000000010203045A
:10164000060708090000000001020304050F4132EB
:10165000000000001F0000003F0000005F000000CD
:101660007F0000009F000000BF000000DF000000BE
:10167000FF0000001F0100003F0100005F010000AB
:101680007F0100009F010000BF010000DF0100009A
:10169000FF0100001F0200003F0200005F02000087
:1016A0007F0200009F020000BF020000DF02000076
:1016B000FF0200001F0300003F0300005F03000063
:1016C0007F0300009F030000BF030000DF03000052
:1016D000FF0300001F0400003F0400005F0400003F
:1016E0007F0400009F040000BF040000DF0400002E
:1016F000FF0400001F0500003F0500005F0500001B
:101700007F0500009F050000BF050000DF05000009
:10171000FF0500001F0600003F0600005F060000F6
:101720007F0600009F060000BF060000DF060000E5
:10173000FF0600001F0700003F0700005F070000D2
:101740007F0700009F070000BF070000DF070000C1
:10175000FF0700001F0800003F0800005F080000AE
:101760007F0800009F080000BF080000DF0800009D
:10177000FF0800001F0900003F0900005F0900008A
:101780007F0900009F090000BF090000DF09000079
:10179000FF0900001F0A00003F0A00005F0A000066
:1017A0007F0A00009F0A0000BF0A0000DF0A000055
:1017B000FF0A00001F0B00003F0B00005F0B000042
:1017C0007F0B00009F0B0000BF0B0000DF0B000031
:1017D000FF0B00001F0C00003F0C00005F0C00001E
:1017E0007F0C00009F0C0000BF0C0000DF0C00000D
:1017F000FF0C00001F0D00003F0D00005F0D0000FA
:101800007F0D00009F0D0000BF0D0000DF0D0000E8
:10181000FF0D00001F0E00003F0E00005F0E0000D5
:101820007F0E00009F0E0000BF0E0000DF0E0000C4
:10183000FF0E00001F0F00003F0F00005F0F0000B1
:101840007F0F00009F0F0000BF0F0000DF0F0000A0
:10185000FF0F00001F1000003F1000005F1000008D
:101860007F1000009F100000BF100000DF1000007C
:10187000FF1000001F1100003F1100005F11000069
:101880007F1100009F110000BF110000DF11000058
:10189000FF1100001F1200003F1200005F12000045
:1018A0007F1200009F120000BF120000DF12000034
:1018B000FF1200001F1300003F1300005F13000021
:1018C0007F1300009F130000BF130000DF13000010
:1018D000FF1300001F1400003F1400005F140000FD
:1018E0007F1400009F140000BF140000DF140000EC
:1018F000FF1400001F1500003F1500005F150000D9
:101900007F1500009F150000BF150000DF150000C7
:10191000FF1500001F1600003F1600005F160000B4
:101920007F1600009F160000BF160000DF160000A3
:10193000FF1600001F1700003F1700005F17000090
:101940007F1700009F170000BF170000DF1700007F
:10195000FF1700001F1800003F1800005F1800006C
:101960007F1800009F180000BF180000DF1800005B
:10197000FF1800001F1900003F1900005F19000048
:101980007F1900009F190000BF190000DF19000037
:10199000FF1900001F1A00003F1A00005F1A000024
:1019A0007F1A00009F1A0000BF1A0000DF1A000013
:1019B000FF1A00001F1B00003F1B00005F1B000000
:1019C0007F1B00009F1B0000BF1B0000DF1B0000EF
:1019D000FF1B00001F1C00003F1C00005F1C0000DC
:1019E0007F1C00009F1C0000BF1C0000DF1C0000CB
:1019F000FF1C00001F1D00003F1D00005F1D0000B8
:101A00007F1D00009F1D0000BF1D0000DF1D0000A6
:101A1000FF1D00001F1E00003F1E00005F1E000093
:101A20007F1E00009F1E0000BF1E0000DF1E000082
:101A3000FF1E00001F1F00003F1F00005F1F00006F
:101A40007F1F00009F1F0000BF1F0000DF1F00005E
:101A5000FF1F00001F2000003F2000005F2000004B
:101A60007F2000009F200000BF200000DF2000003A
:101A7000FF2000001F2100003F2100005F21000027
:101A80007F2100009F210000BF210000DF21000016
:101A9000FF2100001F2200003F2200005F22000003
:101AA0007F2200009F220000BF220000DF220000F2
:101AB000FF2200001F2300003F2300005F230000DF
:101AC0007F2300009F230000BF230000DF230000CE
:101AD000FF2300001F2400003F2400005F240000BB
:101AE0007F2400009F240000BF240000DF240000AA
:101AF000FF2400001F2500003F2500005F25000097
:101B00007F2500009F250000BF250000DF25000085
:101B1000FF2500001F2600003F2600005F26000072
:101B20007F2600009F260000BF260000DF26000061
:101B3000FF2600001F2700003F2700005F2700004E
:101B40007F2700009F270000BF270000DF2700003D
:101B5000FF2700001F2800003F2800005F2800002A
:101B60007F2800009F280000BF280000DF28000019
:101B7000FF2800001F2900003F2900005F29000006
:101B80007F2900009F290000BF290000DF290000F5
:101B9000FF2900001F2A00003F2A00005F2A0000E2
:101BA0007F2A00009F2A0000BF2A0000DF2A0000D1
:101BB000FF2A00001F2B00003F2B00005F2B0000BE
:101BC0007F2B00009F2B0000BF2B0000DF2B0000AD
:101BD000FF2B00001F2C00003F2C00005F2C00009A
:101BE0007F2C00009F2C0000BF2C0000DF2C000089
:101BF000FF2C00001F2D00003F2D00005F2D000076
:101C00007F2D00009F2D0000BF2D0000DF2D000064
:101C1000FF2D00001F2E00003F2E00005F2E000051
:101C20007F2E00009F2E0000BF2E0000DF2E000040
:101C3000FF2E00001F2F00003F2F00005F2F00002D
:101C40007F2F00009F2F0000BF2F0000DF2F00001C
:101C5000FF2F00001F3000003F3000005F30000009
:101C60007F3000009F300000BF300000DF300000F8
:101C7000FF3000001F3100003F3100005F310000E5
:101C80007F3100009F310000BF310000DF310000D4
:101C9000FF3100001F3200003F3200005F320000C1
:101CA0007F3200009F320000BF320000DF320000B0
:101CB000FF3200001F3300003F3300005F3300009D
:101CC0007F3300009F330000BF330000DF3300008C
:101CD000FF3300001F3400003F3400005F34000079
:101CE0007F3400009F340000BF340000DF34000068
:101CF000FF3400001F3500003F3500005F35000055
:101D00007F3500009F350000BF350000DF35000043
:101D1000FF3500001F3600003F3600005F36000030
:101D20007F3600009F360000BF360000DF3600001F
:101D3000FF3600001F3700003F3700005F3700000C
:101D40007F3700009F370000BF370000DF370000FB
:101D5000FF3700001F3800003F3800005F380000E8
:101D60007F3800009F380000BF380000DF380000D7
:101D7000FF3800001F3900003F3900005F390000C4
:101D80007F3900009F390000BF390000DF390000B3
:101D9000FF3900001F3A00003F3A00005F3A0000A0
:101DA0007F3A00009F3A0000BF3A0000DF3A00008F
:101DB000FF3A00001F3B00003F3B00005F3B00007C
:101DC0007F3B00009F3B0000BF3B0000DF3B00006B
:101DD000FF3B00001F3C00003F3C00005F3C000058
:101DE0007F3C00009F3C0000BF3C0000DF3C000047
:101DF000FF3C00001F3D00003F3D00005F3D000034
:101E00007F3D00009F3D0000BF3D0000DF3D000022
:101E1000FF3D00001F3E00003F3E00005F3E00000F
:101E20007F3E00009F3E0000BF3E0000DF3E0000FE
:101E3000FF3E00001F3F00003F3F00005F3F0000EB
:101E40007F3F00009F3F0000BF3F0000DF3F0000DA
:101E5000DF3F0000BF3F00009F3F00007F3F0000CA
:101E60005F3F00003F3F00001F3F0000FF3E0000BB
:101E7000DF3E0000BF3E00009F3E00007F3E0000AE
:101E80005F3E00003F3E00001F3E0000FF3D00009F
:101E9000DF3D0000BF3D00009F3D00007F3D000092
:101EA0005F3D00003F3D00001F3D0000FF3C000083
:101EB000DF3C0000BF3C00009F3C00007F3C000076
:101EC0005F3C00003F3C00001F3C0000FF3B000067
:101ED000DF3B0000BF3B00009F3B00007F3B00005A
:101EE0005F3B00003F3B00001F3B0000FF3A00004B
:101EF000DF3A0000BF3A00009F3A00007F3A00003E
:101F00005F3A00003F3A00001F3A0000FF3900002E
:101F1000DF390000BF3900009F3900007F39000021
:101F20005F3900003F3900001F390000FF38000012
:101F3000DF380000BF3800009F3800007F38000005
:101F40005F3800003F3800001F380000FF370000F6
:101F5000DF370000BF3700009F3700007F370000E9
:101F60005F3700003F3700001F370000FF360000DA
:101F7000DF360000BF3600009F3600007F360000CD
:101F80005F3600003F3600001F360000FF350000BE
:101F9000DF350000BF3500009F3500007F350000B1
:101FA0005F3500003F3500001F350000FF340000A2
:101FB000DF340000BF3400009F3400007F34000095
:101FC0005F3400003F3400001F340000FF33000086
:101FD000DF330000BF3300009F3300007F33000079
:101FE0005F3300003F3300001F330000FF3200006A
:101FF000DF320000BF3200009F3200007F3200005D
:102000005F3200003F3200001F320000FF3100004D
:10201000DF310000BF3100009F3100007F31000040
:102020005F3100003F3100001F310000FF30000031
:10203000DF300000BF3000009F3000007F30000024
:102040005F3000003F3000001F300000FF2F000015
:10205000DF2F0000BF2F00009F2F00007F2F000008
:102060005F2F00003F2F00001F2F0000FF2E0000F9
:10207000DF2E0000BF2E00009F2E00007F2E0000EC
:102080005F2E00003F2E00001F2E0000FF2D0000DD
:10209000DF2D0000BF2D00009F2D00007F2D0000D0
:1020A0005F2D00003F2D00001F2D0000FF2C0000C1
:1020B000DF2C0000BF2C00009F2C00007F2C0000B4
:1020C0005F2C00003F2C00001F2C0000FF2B0000A5
:1020D000DF2B0000BF2B00009F2B00007F2B000098
:1020E0005F2B00003F2B00001F2B0000FF2A000089
:1020F000DF2A0000BF2A00009F2A00007F2A00007C
:102100005F2A00003F2A00001F2A0000FF2900006C
:10211000DF290000BF2900009F2900007F2900005F
:102120005F2900003F2900001F290000FF28000050
:10213000DF280000BF2800009F2800007F28000043
:102140005F2800003F2800001F280000FF27000034
:10215000DF270000BF2700009F2700007F27000027
:102160005F2700003F2700001F270000FF26000018
:10217000DF260000BF2600009F2600007F2600000B
:102180005F2600003F2600001F260000FF250000FC
:10219000DF250000BF2500009F2500007F250000EF
:1021A0005F2500003F2500001F250000FF240000E0
:1021B000DF240000BF2400009F2400007F240000D3
:1021C0005F2400003F2400001F240000FF230000C4
:1021D000DF230000BF2300009F2300007F230000B7
:1021E0005F2300003F2300001F230000FF220000A8
:1021F000DF220000BF2200009F2200007F2200009B
:102200005F2200003F2200001F220000FF2100008B
:10221000DF210000BF2100009F2100007F2100007E
:102220005F2100003F2100001F210000FF2000006F
:10223000DF200000BF2000009F2000007F20000062
:102240005F2000003F2000001F200000FF1F000053
:10225000DF1F0000BF1F00009F1F00007F1F000046
:102260005F1F00003F1F00001F1F0000FF1E000037
:10227000DF1E0000BF1E00009F1E00007F1E00002A
:102280005F1E00003F1E00001F1E0000FF1D00001B
:10229000DF1D0000BF1D00009F1D00007F1D00000E
:1022A0005F1D00003F1D00001F1D0000FF1C0000FF
:1022B000DF1C0000BF1C00009F1C00007F1C0000F2
:1022C0005F1C00003F1C00001F1C0000FF1B0000E3
:1022D000DF1B0000BF1B00009F1B00007F1B0000D6
:1022E0005F1B00003F1B00001F1B0000FF1A0000C7
:1022F000DF1A0000BF1A00009F1A00007F1A0000BA
:102300005F1A00003F1A00001F1A0000FF190000AA
:10231000DF190000BF1900009F1900007F1900009D
:102320005F1900003F1900001F190000FF1800008E
:10233000DF180000BF1800009F1800007F18000081
:102340005F1800003F1800001F180000FF17000072
:10235000DF170000BF1700009F1700007F17000065
:102360005F1700003F1700001F170000FF16000056
:10237000DF160000BF1600009F1600007F16000049
:102380005F1600003F1600001F160000FF1500003A
:10239000DF150000BF1500009F1500007F1500002D
:1023A0005F1500003F1500001F150000FF1400001E
:1023B000DF140000BF1400009F1400007F14000011
:1023C0005F1400003F1400001F140000FF13000002
:1023D000DF130000BF1300009F1300007F130000F5
:1023E0005F1300003F1300001F130000FF120000E6
:1023F000DF120000BF1200009F1200007F120000D9
:102400005F1200003F1200001F120000FF110000C9
:10241000DF110000BF1100009F1100007F110000BC
:102420005F1100003F1100001F110000FF100000AD
:10243000DF100000BF1000009F1000007F100000A0
:102440005F1000003F1000001F100000FF0F000091
:10245000DF0F0000BF0F00009F0F00007F0F000084
:102460005F0F00003F0F00001F0F0000FF0E000075
:10247000DF0E0000BF0E00009F0E00007F0E000068
:102480005F0E00003F0E00001F0E0000FF0D000059
:10249000DF0D0000BF0D00009F0D00007F0D00004C
:1024A0005F0D00003F0D00001F0D0000FF0C00003D
:1024B000DF0C0000BF0C00009F0C00007F0C000030
:1024C0005F0C00003F0C00001F0C0000FF0B000021
:1024D000DF0B0000BF0B00009F0B00007F0B000014
:1024E0005F0B00003F0B00001F0B0000FF0A000005
:1024F000DF0A0000BF0A00009F0A00007F0A0000F8
:102500005F0A00003F0A00001F0A0000FF090000E8
:10251000DF090000BF0900009F0900007F090000DB
:102520005F0900003F0900001F090000FF080000CC
:10253000DF080000BF0800009F0800007F080000BF
:102540005F0800003F0800001F080000FF070000B0
:10255000DF070000BF0700009F0700007F070000A3
:102560005F0700003F0700001F070000FF06000094
:10257000DF060000BF0600009F0600007F06000087
:102580005F0600003F0600001F060000FF05000078
:10259000DF050000BF0500009F0500007F0500006B
:1025A0005F0500003F0500001F050000FF0400005C
:1025B000DF040000BF0400009F0400007F0400004F
:1025C0005F0400003F0400001F040000FF03000040
:1025D000DF030000BF0300009F0300007F03000033
:1025E0005F0300003F0300001F030000FF02000024
:1025F000DF020000BF0200009F0200007F02000017
:102600005F0200003F0200001F020000FF01000007
:10261000DF010000BF0100009F0100007F010000FA
:102620005F0100003F0100001F010000FF000000EB
:10263000DF000000BF0000009F0000007F000000DE
:102640005F0000003F0000001F00000000000000CD
:10265000000000000000000000000000000000007A
:10266000000000000000000000000000000000006A
:10267000000000000000000000000000000000005A
:10268000000000000000000000000000000000004A
:103650006C0B0000510B0000370B00001C0B00002E
:10366000020B0000E80A0000CE0A0000B40A0000C5
:103670009B0A0000820A00006A0A0000520A000049
:103680003B0A0000240A00000E0A0000F9090000AD
:10369000E4090000D1090000BE090000AC090000E7
:1036A0009C0900008C0900007E09000070090000E0
:1036B00064090000590900004F0900004709000093
:1036C000400900003A0900003509000032090000F5
:1036D0003009000030090000310900003309000002
:1036E000370900003C090000420900004A090000B7
:1036F000530900005E090000690900007709000015
:103700008509000095090000A5090000B70900001F
:10371000CB090000DF090000F40900000A0A0000DC
:10372000220A00003A0A0000530A00006C0A000056
:10373000870A0000A20A0000BE0A0000DA0A0000A0
:10374000F70A0000140B0000320B00004F0B0000C2
:103750006D0B00008C0B0000AA0B0000C80B0000D2
:10376000E60B0000040C0000220C00003F0C0000DF
:103770005C0C0000790C0000950C0000B00C0000FF
:10378000CB0C0000E50C0000FE0C0000170D000043
:103790002E0D0000450D00005A0D00006F0D0000B9
:1037A000820D0000940D0000A50D0000B40D000076
:1037B000C20D0000CF0D0000DA0D0000E40D000086
:1037C000ED0D0000F30D0000F90D0000FD0D0000EF
:1037D000FF0D0000FF0D0000FF0D0000FC0D0000BC
:1037E000F80D0000F20D0000EB0D0000E20D0000EE
:1037F000D70D0000CB0D0000BE0D0000AF0D000086
:103800009E0D00008C0D0000790D0000640D00007D
:103810004E0D0000360D00001E0D0000040D0000CE
:10382000E90C0000CD0C0000B00C0000920C000070
:10383000740C0000540C0000340C0000130C000049
:10384000F10B0000CF0B0000AD0B00008A0B000055
:10385000670B0000440B0000210B0000FD0A000074
:10386000DA0A0000B70A0000940A0000720A000099
:10387000500A00002E0A00000E0A0000ED090000A8
:10388000CE090000AF090000910900007509000091
:10389000590900003E090000250900000D0900003B
:1038A000F6080000E1080000CD080000BA0800009A
:1038B000A90800009A0800008D0800008108000097
:1038C000770800006E080000680800006308000028
:1038D000600800005F080000600800006308000046
:1038E000680800006E0800007708000081080000EA
:1038F0008D0800009B080000AB080000BD08000018
:10390000D0080000E6080000FC08000015090000CF
:103910002F0900004B09000068090000860900001B
:10392000A6090000C8090000EA0900000E0A00000C
:10393000320A0000580A00007E0A0000A60A0000B1
:10394000CE0A0000F70A0000200B0000490B00001F
:10395000730B00009E0B0000C80B0000F30B00006F
:103960001D0C0000470C0000710C00009B0C0000B7
:10397000C40C0000EC0C0000140D00003B0D000016
:10398000620D0000870D0000AB0D0000CE0D0000A1
:10399000F00D0000110E0000300E00004D0E000072
:1039A000690E0000830E00009C0E0000B30E0000A4
:1039B000C80E0000DB0E0000EB0E0000FA0E000047
:1039C000070F0000120F00001A0F0000200F000068
:1039D000240F0000260F0000250F0000220F00001A
:1039E0001D0F0000160F00000C0F0000FF0E00005E
:1039F000F10E0000E00E0000CD0E0000B80E000039
:103A0000A00E0000860E00006A0E00004D0E0000A1
:103A10002D0E00000B0E0000E70D0000C20D00008F
:103A20009A0D0000720D0000470D00001B0D0000F4
:103A3000EE0C0000BF0C0000900C00005F0C0000BA
:103A40002D0C0000FA0B0000C70B0000930B0000C8
:103A50005E0B0000290B0000F40A0000BF0A000002
:103A60008A0A0000550A0000200A0000EB09000045
:103A7000B709000084090000510900001F09000077
:103A8000EF080000BF080000910800006408000073
:103A9000380800000E080000E6070000C00700001C
:103AA0009C0700007A0700005A0700003C0700004E
:103AB0002007000007070000F1060000DD060000F7
:103AC000CB060000BD060000B1060000A8060000FD
:103AD000A20600009F0600009F060000A10600004D
:103AE000A7060000B0060000BC060000CA060000E1
:103AF000DC060000F10600000907000023070000B3
:103B0000410700006207000085070000AB070000C6
:103B1000D4070000FF0700002D0800005D0800002A
:103B200090080000C5080000FD08000036090000EC
:103B300071090000AE090000ED0900002D0A000027
:103B40006F0A0000B20A0000F60A00003B0B0000FA
:103B5000810B0000C80B00000F0C0000570C000088
:103B60009F0C0000E70C00002E0D0000760D0000F9
:103B7000BC0D0000030E0000480E00008C0E00007B
:103B8000D00E0000110F0000520F0000900F000037
:103B9000CD0F00000810000040100000761000005B
:103BA000AA100000DB100000091100003411000011
:103BB0005D11000082110000A3110000C11100007E
:103BC000DC110000F31100000612000015120000C5
:103BD00021120000281200002B1200002A120000FF
:103BE000251200001C1200000E120000FC11000043
:103BF000E6110000CB110000AC110000891100009B
:103C0000621100003611000006110000D210000001
:103C1000991000005D1000001D100000D90F000079
:103C2000910F0000460F0000F70E0000A50E0000E7
:103C30004F0E0000F70D00009B0D00003D0D000031
:103C4000DD0C00007A0C0000140C0000AD0B00002D
:103C5000440B0000D90A00006D0A0000000A0000B1
:103C60009209000024090000B50800004608000081
:103C7000D707000068070000FA0600008D06000064
:103C800021060000B60500004D050000E604000016
:103C9000810400001F040000BF0300006303000054
:103CA0000A030000B40200006202000014020000D7
:103CB000CB01000086010000460100000B0100005E
:103CC000D5000000A50000007A00000056000000AA
:103CD00038000000200000000E000000030000007B
:103CE00000000000030000000D0000001F000000A5
:103CF000380000005900000081000000B200000000
:103D0000EA0000002A01000072010000C201000068
:103D10001A0200007A020000E202000053030000D1
:103D2000CB0300004C040000D40400006405000034
:103D3000FC0500009C06000044070000F20700009C
:103D4000A9080000660900002B0A0000F60A00001E
:103D5000C80B0000A10C0000800D0000650E0000E3
:103D60004F0F00004010000035110000301200001D
:103D700030130000341400003C1500004816000009
:103D8000581700006B18000080190000991A0000F5
:103D9000B31B0000D01C0000EE1D00000D1F000032
:103DA0002D2000004D2100006E2200008E23000017
:103DB000AD240000CC250000E92600000428000006
:103DC0001C290000332A0000462B0000562C00005E
:103DD000622D00006A2E00006E2F00006C30000083
:103DE000663100005A3200004833000030340000D1
:103DF00012350000ED350000C03600008C370000A1
:103E0000513800000D390000C13900006D3A000042
:103E1000103B0000AA3B00003A3C0000C13C0000FF
:103E20003F3D0000B33D00001C3E00007C3E000012
:103E3000D13E00001C3F00005D3F0000923F0000AB
:103E4000BE3F0000DE3F0000F43F0000FF3F0000E7
:103E5000FF3F0000F43F0000DE3F0000BE3F0000D7
:103E6000923F00005D3F00001C3F0000D13E00007B
:103E70007C3E00001C3E0000B33D00003F3D0000C2
:103E8000C13C00003A3C0000AA3B0000103B00008F
:103E90006D3A0000C13900000D39000051380000B2
:103EA0008C370000C0360000ED35000012350000F0
:103EB00030340000483300005A3200006631000000
:103EC0006C3000006E2F00006A2E0000622D000092
:103ED000562C0000462B0000332A00001C2900004D
:103EE00004280000E9260000CC250000AD240000D5
:103EF0008E2300006E2200004D2100002D200000C6
:103F00000D1F0000EE1D0000D01C0000B31B0000C0
:103F1000991A0000801900006B1800005817000063
:103F2000481600003C150000341400003013000057
:103F30003012000035110000401000004F0F00004B
:103F4000650E0000800D0000A10C0000C80B0000F1
:103F5000F60A00002B0A000066090000A90800000C
:103F6000F2070000440700009C060000FC0500006A
:103F700064050000D40400004C040000CB030000E2
:103F800053030000E20200007A0200001A0200005F
:103F9000C2010000720100002A010000EA000000D6
:103FA000B20000008100000059000000380000004D
:103FB0001F0000000D0000000300000000000000D2
:103FC000030000000E000000200000003800000088
:103FD000560000007A000000A5000000D500000097
:103FE0000B0100004601000086010000CB0100002B
:103FF0001402000062020000B40200000A03000084
:1040000063030000BF0300001F04000081040000E0
:10401000E60400004D050000B60500002106000082
:104020008D060000FA06000068070000D7070000B0
:1040300046080000B50800002409000092090000AD
:10404000000A00006D0A0000D90A0000440B0000BD
:10405000AD0B0000140C00007A0C0000DD0C000019
:104060003D0D00009B0D0000F70D00004F0E0000FD
:10407000A50E0000F70E0000460F0000910F000093
:10408000D90F00001D1000005D1000009910000005
:10409000D21000000611000036110000621100006D
:1040A00089110000AC110000CB110000E6110000E6
:1040B000FC1100000E1200001C120000251200006E
:1040C0002A1200002B12000028120000211200000A
:1040D0001512000006120000F3110000DC110000B0
:1040E000C1110000A3110000821100005D11000049
:1040F0003411000009110000DB100000AA100000BC
:10410000761000004010000008100000CD0F0000E5
:10411000900F0000520F0000110F0000D00E0000A1
:104120008C0E0000480E0000030E0000BC0D0000C5
:10413000760D00002E0D0000E70C00009F0C000023
:10414000570C00000F0C0000C80B0000810B000092
:104150003B0B0000F60A0000B20A00006F0A0000E4
:104160002D0A0000ED090000AE09000071090000F1
:1041700036090000FD080000C50800009008000096
:104180005D0800002D080000FF070000D4070000B4
:10419000AB07000085070000620700004107000030
:1041A0002307000009070000F1060000DC060000FC
:1041B000CA060000BC060000B0060000A70600000A
:1041C000A10600009F0600009F060000A206000056
:1041D000A8060000B1060000BD060000CB060000E6
:1041E000DD060000F10600000707000020070000C0
:1041F0003C0700005A0700007A0700009C070000F7
:10420000C0070000E60700000E08000038080000A4
:104210006408000091080000BF080000EF080000DB
:104220001F0900005109000084090000B7090000BF
:10423000EB090000200A0000550A00008A0A00006D
:10424000BF0A0000F40A0000290B00005E0B00000A
:10425000930B0000C70B0000FA0B00002D0C0000B0
:104260005F0C0000900C0000BF0C0000EE0C000082
:104270001B0D0000470D0000720D00009A0D00009C
:10428000C20D0000E70D00000B0E00002D0E000017
:104290004D0E00006A0E0000860E0000A00E000009
:1042A000B80E0000CD0E0000E00E0000F10E000080
:1042B000FF0E00000C0F0000160F00001D0F000085
:1042C000220F0000250F0000260F0000240F000021
:1042D000200F00001A0F0000120F0000070F00004F
:1042E000FA0E0000EB0E0000DB0E0000C80E00000E
:1042F000B30E00009C0E0000830E0000690E00004B
:104300004D0E0000300E0000110E0000F00D0000F8
:10431000CE0D0000AB0D0000870D0000620D000007
:104320003B0D0000140D0000EC0C0000C40C00005C
:104330009B0C0000710C0000470C00001D0C0000DD
:10434000F30B0000C80B00009E0B0000730B000075
:10435000490B0000200B0000F70A0000CE0A000005
:10436000A60A00007E0A0000580A0000320A000077
:104370000E0A0000EA090000C8090000A6090000B2
:1043800086090000680900004B0900002F090000A1
:1043900015090000FC080000E6080000D008000035
:1043A000BD080000AB0800009B0800008D0800005D
:1043B00081080000770800006E080000680800000F
:1043C00063080000600800005F080000600800004B
:1043D00063080000680800006E080000770800000D
:1043E000810800008D0800009A080000A90800005C
:1043F000BA080000CD080000E1080000F60800003F
:104400000D090000250900003E09000059090000BF
:104410007509000091090000AF090000CE090000F5
:10442000ED0900000E0A00002E0A0000500A0000EC
:10443000720A0000940A0000B70A0000DA0A0000BD
:10444000FD0A0000210B0000440B0000670B000078
:104450008A0B0000AD0B0000CF0B0000F10B000039
:10446000130C0000340C0000540C0000740C00000D
:10447000920C0000B00C0000CD0C0000E90C000014
:10448000040D00001E0D0000360D00004E0D000052
:10449000640D0000790D00008C0D00009E0D0000E1
:1044A000AF0D0000BE0D0000CB0D0000D70D0000C9
:1044B000E20D0000EB0D0000F20D0000F80D000011
:1044C000FC0D0000FF0D0000FF0D0000FF0D0000BF
:1044D000FD0D0000F90D0000F30D0000ED0D0000D2
:1044E000E40D0000DA0D0000CF0D0000C20D000049
:1044F000B40D0000A50D0000940D0000820D000019
:104500006F0D00005A0D0000450D00002E0D00003B
:10451000170D0000FE0C0000E50C0000CB0C0000A5
:10452000B00C0000950C0000790C00005C0C000041
:104530003F0C0000220C0000040C0000E60B000001
:10454000C80B0000AA0B00008C0B00006D0B0000D4
:104550004F0B0000320B0000140B0000F70A0000A4
:10456000DA0A0000BE0A0000A20A0000870A000062
:104570006C0A0000530A00003A0A0000220A0000F8
:104580000A0A0000F4090000DF090000CB0900005E
:10459000B7090000A5090000950900008509000081
:1045A00077090000690900005E0900005309000056
:1045B0004A090000420900003C09000037090000D8
:1045C0003309000031090000300900003009000003
:1045D00032090000350900003A09000040090000D6
:1045E000470900004F090000590900006409000054
:1045F000700900007E0900008C0900009C09000081
:10460000AC090000BE090000D1090000E409000067
:10461000F90900000E0A0000240A00003B0A00000D
:10462000520A00006A0A0000820A00009B0A000089
:10463000B40A0000CE0A0000E80A0000020B0000E5
:104640001C0B0000370B0000510B00006C0B00002E
:1046500070460008000000202400000058150008E3
:1046600094460008240000204C040000681500084F
:104670000100000010000000000000000024F40011
:1046800000400000010000003FFF000025097B42C0
:044690000000000026
:040000050800018965
:00000001FF
