:020000040800F2
:10000000B8050020C50100083B220008FD170008C4
:10001000392200080108000805240008000000003B
:100020000000000000000000000000004322000863
:1000300003080008000000004122000845220008D3
:10004000DF010008DF010008DF010008DF01000810
:10005000DF010008DF010008DF010008DF01000800
:10006000DF010008DF010008DF010008DF010008F0
:10007000DF010008DF010008DF010008DF010008E0
:10008000DF010008DF010008DF010008DF010008D0
:10009000DF010008DF010008DF010008DF010008C0
:1000A000DF010008DF010008DF010008DF010008B0
:1000B000DF010008DF010008DF010008DF010008A0
:1000C000DF010008DF010008DF010008DF01000890
:1000D000DF010008DF010008DF010008DF01000880
:1000E000DF010008DF010008DF010008DF01000870
:1000F000DF010008DF010008DF010008DF01000860
:10010000DF010008DF010008DF010008DF0100084F
:10011000DF010008DF010008DF010008DF0100083F
:10012000DF010008DF010008DF010008DF0100082F
:10013000DF010008DF010008DF010008DF0100081F
:10014000DF010008DF010008DF010008DF0100080F
:10015000DF010008DF010008DF010008DF010008FF
:10016000DF010008DF010008DF010008DF010008EF
:10017000DF010008DF010008DF01000800000000C7
:10018000DF010008DF010008DF010008DF010008CF
:10019000DF010008DF010008DF010008DF010008BF
:1001A000DF010008DF010008DF010008DFF810D0E0
:1001B00000F014FB00480047552B0008AFF3008007
:1001C000B80500200648804706480047FEE7FEE7DE
:1001D000FEE7FEE7FEE7FEE7FEE7FEE7FEE7FEE7F7
:1001E000E9220008AD0100082DE9F05F0546002076
:1001F00092469B4688460646814640241BE0284698
:1002000041464746224600F018FA53465A46C01A5D
:10021000914110D311461846224600F0FFF92D1ADD
:1002200067EB01084F4622460120002100F0F6F955
:1002300017EB00094E41201EA4F10104DFDC484603
:1002400031462A464346BDE8F09FD2B201E000F8AD
:10025000012B491EFBD270470022F6E710B513466A
:100260000A4604461946FFF7F0FF204610BD2DE967
:10027000FE4F804681EA0300C00F0C46009021F03B
:10028000004123F00045B8EB0200A94105D24046E9
:10029000214690461C460B46024623F00040104380
:1002A00047D0270DC7F30A00C3F30A510290401A42
:1002B000019040286BDAC3F3130040F4801B0098D0
:1002C000924620B10023D2EB030A63EB0B0B01989B
:1002D0005946C0F14002504600F0A0F906460D46CE
:1002E00050465946019A00F0B8F910EB08006141F8
:1002F000002487EA115284EAE7731A4340D0009A37
:1003000062B3019A012A4FEA075215DC001B61EB28
:1003100002014FF0004202EA0752CDE90042001C00
:1003200041F5801132462B4600F0B8F903B0BDE824
:10033000F08F40462146F9E7001B61EB0201001CEB
:1003400041F5801300185B412018A2F5001747EB18
:10035000030140EAD570B6196D4111E06D084FEA0E
:10036000360645EAC0754FEA0752001B61EB0201F1
:10037000001C41F5801149084FEA30000019514135
:1003800032462B4603B0BDE8F04F00F078B9009834
:10039000012240000023D0EB020263EBE0730098DF
:1003A00021464FEAE074B8EB000061EB0401E9E795
:1003B00083F000435BE781F0004158E72DE9FE4FF1
:1003C00081EA030404F0004421F0004100944FF05E
:1003D000000B23F0004350EA01045ED052EA03040C
:1003E0005BD0C3F30A54C1F30A552C44A4F2F3348E
:1003F0000194A0FB0254C1F3130141F48011C3F333
:10040000130343F4801301FB024400FB034E840AF0
:10041000970A44EA815447EA8357A4FB0768029588
:100420008D0A05FB07854FEA932C04FB0C54270526
:10043000029D4FEA065847EA1637B5EB08056EEB02
:10044000070C870E920E47EA811742EA8312A7FB38
:100450000201B6EB0B0164EB00042B0D43EA0C33F5
:100460005E1844EB1C50DA465146E7FB0201C5F327
:1004700013044FEA0B3343EA14534FEA0432019C4E
:1004800043EA0603A4F10C040294009CCDE900B4F5
:1004900000F004F903B0BDE8F08F00200146F9E751
:1004A0002DE9F04D81EA030404F0004B21F00045F2
:1004B00014464FF0000A23F0004150EA050220D014
:1004C00054EA01021DD0C5F30A570246C5F31303CF
:1004D000C1F31300C1F30A5640F4801543F48013AE
:1004E000A7EB0608101BD64608F2FD3873EB050093
:1004F00002D308F1010801E092185B41B8F1000F46
:1005000003DA00200146BDE8F08D00204FF4801191
:10051000064684460EE0171B73EB050705D3121B36
:1005200063EB050306434CEA010C49084FEA30002F
:1005300092185B4150EA0107EDD152EA030012D054
:1005400082EA040083EA0501084305D0101BAB4191
:1005500006D20122002306E000224FF0004302E011
:100560006FF0010253101AEB06004CEB085110EB30
:100570000A0041EB0B01BDE8F04D00F080B80EB56C
:10058000C10F80EAE0700844CA07002140F23343FB
:100590008DE80E000A460B4600F080F803B000BD5F
:1005A0000EB540F2334102910021CDE900110A4617
:1005B0000B4600F073F803B000BD000030B5041E18
:1005C00071F1000404DB4FF00044404264EB010190
:1005D000141E73F1000405DB1C464FF00043524229
:1005E00063EB04038B4208BF824230BD30B5041E6A
:1005F00071F1000404DB4FF00044404264EB010160
:10060000141E73F1000405DB1C464FF000435242F8
:1006100063EB0403994208BF904230BD202A04DBFB
:10062000203A00FA02F1002070479140C2F1200305
:1006300020FA03F3194390407047202A04DB203A44
:1006400021FA02F00021704721FA02F3D040C2F1F2
:1006500020029140084319467047202A06DBCB1739
:10066000203A41FA02F043EAE07306E041FA02F36D
:10067000D040C2F12002914008431946704710B59E
:10068000141E73F1000408DA401C41F100019218B5
:100690005B411A4301D120F0010010BD2DE9F04D5E
:1006A00092469B4611B1B1FA81F202E0B0FA80F2B3
:1006B00020329046FFF7B2FF04460F4640EA0A0098
:1006C00041EA0B0153465A46084313D0114653EAF8
:1006D000010019D0C8F140025046FFF7AEFF0546B1
:1006E0000E46504659464246FFF798FF084305D04C
:1006F000012004E020463946BDE8F08D0020054386
:1007000046EAE0762C4337430A986305E40AA0EBF7
:1007100008000022FD0A44EA47540A3002D50020AE
:100720000146E9E7010510196941DDE908450019AD
:100730006941BDE8F04DA2E72DE9F04D00231A46CE
:100740001B1A8A4103DB00200146BDE8F08DC1F38E
:100750000A52C1F3130141F480154FF0000BD10789
:1007600002D100186D41521E0027044640F2FF11CD
:10077000384601EB620A3E468046024600204FF4AE
:100780008011FFF75AFFC2197141BB1846EB0100F7
:10079000B4EB030C75EB000C04D3E41A65EB000515
:1007A00017460E46241908F101006D418046342891
:1007B000E3DDF91946EB0600091BA84103D24FF00F
:1007C000FF32134601E0002213461BEB070046EB05
:1007D0000A51BDE8F04DFFF752BF0000064C074D2F
:1007E00006E0E06840F0010394E807009847103401
:1007F000AC42F6D3FFF7DEFC602C0008802C00082A
:10080000FEE7704772B6FEE770B5044600F028F9BF
:100810000546601C02D004480078044400F020F92A
:10082000401BA042FAD370BD100000202DE9F84F04
:10083000DFF8F8A10022012403254FF00F090AF187
:10084000040BAAF1040E00BF0B6804FA02F6334051
:10085000B34270D10F7907F00307012F01D0022FA7
:1008600016D187684FEA420805FA08FC27EA0C0708
:10087000D1F80CC00CFA08FC4CEA070CC0F808C010
:100880004768B7430E79C6F3001696403E4346606C
:100890000E79F643B6070AD0C7684FEA420C05FA4C
:1008A0000CF6B7438E6806FA0CF63E43C6600E7926
:1008B00006F00306022E10D1D60800EB8608D8F801
:1008C000206057074FEAD76C09FA0CF7BE430F694F
:1008D00007FA0CF73743C8F8207006684FEA420C55
:1008E00005FA0CF7BE430F7907F0030707FA0CF778
:1008F000374307604E6816F4403F1CD04C4E3768B3
:1009000047F480473760366822F0030706F48046D4
:100910000096484E07EB060CDCF8086897073F0F77
:1009200009FA07F826EA0806DFF80C81404503D1EA
:100930004FF0000841E072E0DFF80081404502D14D
:100940004FF0010839E0DFF8F880404502D14FF060
:10095000020832E0DFF8EC80404502D14FF0030896
:100960002BE0DFF8E480404502D14FF0040824E09A
:10097000DFF8D880404502D14FF005081DE0DFF8D0
:10098000D080404502D14FF0060816E0DFF8C48061
:10099000404502D14FF007080FE0DFF8BC8040452A
:1009A00002D14FF0080808E0DFF8B080404502D1DE
:1009B0004FF0090801E04FF00A0808FA07F848EA82
:1009C0000608CCF80888DAF800605746D1F804C069
:1009D0009E435FEACC2C00D51E433E60DBF80060EE
:1009E0005F46D1F804C09E435FEA8C2C00D51E43BD
:1009F0003E60DEF800607746D1F804C09E435FEAAF
:100A00008C3C00D51E433E60084F083F3E68D1F83D
:100A100004C09E435FEACC3C00D51E433E60521C9E
:100A2000102AFFF411AFBDE8F88F0000083C014028
:100A300044380240003001400000024000040240FF
:100A400000080240000C0240001002400014024066
:100A500000180240001C0240002002400024024016
:100A600001488068704700001000002090F83D2089
:100A7000202A01D002207047242280F83D200268FD
:100A8000136823F0010313600268536A23F0100314
:100A900053620268536A0B43536201680A6842F06A
:100AA00001020A60202180F83D100020704790F874
:100AB0003D20202A01D002207047242280F83D20CA
:100AC0000268136823F00103136003685A6A22F076
:100AD0000F020A4391B2596201680A6842F00102AA
:100AE0000A60202180F83D100020704770B5040096
:100AF00025D094F83D00002520B984F83C502046CC
:100B000000F052FA242084F83D002068016821F0AA
:100B1000010101602068016841F400410160206822
:100B2000016821F40041016000F0D8FB4D4A616882
:100B3000914201D84C4900E04C49884201D2012041
:100B400070BD4B492368B0FBF1F15E6826F03F06AB
:100B50000E435E606368934206D94FF4967359431F
:100B60004FF47A73B1FBF3F12368491C1E6A26F037
:100B70003F06314319626168914210D84900401E16
:100B8000B0FBF1F2521CC2F30B02042A01D2042082
:100B900022E0B0FBF1F0401CC0F30B001CE0A268A7
:100BA000F2B301EBC10303EB0116431EB3FBF6F3F3
:100BB0005B1C43F480431B0549D092B301EBC10297
:100BC00002EB0111401EB0FBF1F0401CC0F30B0022
:100BD00040F4804040F400402168CA694CF6FF733D
:100BE0009A431043C861D4E90710014320680268A2
:100BF00022F0C00211430160D4E9030101432068DF
:100C0000826848F2FF339A4311438160D4E90501B9
:100C100008432168CA6822F0FF021043C86001E05F
:100C20000EE016E02068016841F0010101602564D2
:100C3000202084F83D00256384F83E50002070BDDC
:100C400001EB4106431EB3FBF6F35B1CB3E7012047
:100C5000C2E701EB4101401EB0FBF1F0401CC0F3C4
:100C60000B00B7E7A086010080841E0000093D004C
:100C700040420F002DE9FF4F83B09A46DDE911870E
:100C800093460446DDF84090FFF7EAFE054694F8E7
:100C90003D00202870D11923012274492046009577
:100CA00000F0C2FE0028F5D194F83C00012863D082
:100CB000012084F83C0020680168C90703D101685D
:100CC00041F0010101602068016821F400610160C8
:100CD000222084F83D00402084F83E00002626644F
:100CE000C4F82490A4F82A80608D20856048E062D2
:100CF000CDE9007553465A462046049900F096FD0A
:100D0000002879D1208DD0B1012821D00228206877
:100D100024D0416980690090208D032866D801287D
:100D20002BD0544902283B464FF00002009557D083
:100D30008846204600F078FE00285DD13AE0206821
:100D4000416981690091016841F4007101607DE0B1
:100D50002068016821F480610160F0E7016821F4F6
:100D6000806101602068016841F4006101602068D1
:100D700041698069009069E075E02A46394620465D
:100D800000F0F8FE88BB54E02068016841F400716F
:100D9000016020680069616A0870606A401C6062D6
:100DA000218D491E2185618D491E61852168096952
:100DB000017042E02068016821F4806101602068D0
:100DC0000069616A0870606A401C6062208D401E84
:100DD0002085608D401E60853B460022414600957F
:100DE000204600F021FE00B9CEE705E02A4639464C
:100DF000204600F0BFFE18B1012007B0BDE8F08F1B
:100E000020680069616A0870606A401C6062208D19
:100E1000401E81B22185608D401E60852068426938
:100E2000D243520712D4032903D1016821F480610F
:100E3000016020680069616A0870606A401C606235
:100E4000208D401E2085608D401E6085208D0028ED
:100E50007FF462AF202084F83D0084F83E6084F87F
:100E60003C600020C9E70220C7E700000200100034
:100E70000000FFFF040001002DE9FF4F83B09A46F8
:100E8000DDE9119793460446DDF84080FFF7E8FD61
:100E9000054694F83D0020287FD1192301224049BE
:100EA0002046009500F0C0FD002876D194F83C0063
:100EB000012872D0012084F83C0020680168C9072D
:100EC00003D1016841F0010101602068016821F44B
:100ED00000610160212084F83D00402084F83E003C
:100EE00000262664C4F82480A4F82A90608D20850A
:100EF0002C48E062CDE9007553465A4620460499D5
:100F000000F012FD70B930E02A463946204600F064
:100F100069FE58B1206C042804D12068016841F4AE
:100F200000710160012007B0BDE8F08F606A2168A0
:100F300000780861606A401C6062218D491E89B298
:100F40002185628D521E628522685369DB435B07EF
:100F50000BD469B100781061606A401C6062208D1A
:100F6000401E2085608D401E6085208D0028CBD1DD
:100F70002A463946204600F02BFD0028CAD154F8F5
:100F80003D0B016841F400710160202004F81E0946
:100F9000E67766770020C6E7FFE70220C3E7000098
:100FA000020010000000FFFF10B586B004461421B7
:100FB0006846FFF751F913492068884220D112484A
:100FC0000021026842F002020260006800F00200A4
:100FD0000590C02000901220CDE90101032003906C
:100FE0000420049069460948FFF720FC06481030A9
:100FF000016841F400110160006800F400100590E0
:1010000006B010BD005400403038024000040240D9
:101010000248816802781144816070471000002006
:101020000B4810B5016841F400710160016841F49A
:1010300080610160016841F480710160032000F06B
:1010400061F80F2000F006F800F024F8002010BD31
:10105000003C024070B50D4D04464FF47A7128787B
:10106000B1FBF0F00A490968B1FBF0F000F04AFB6F
:1010700048B9102C07D200222146501E00F022F859
:1010800000206C6070BD012070BD000010000020C9
:101090001C0000200A4808B5016841F48041016045
:1010A000006800F4804000900548001F016841F08E
:1010B00080510160006800F08050009008BD000081
:1010C00044380240F0B40E4B1B680C46C3F30223B5
:1010D000C3F10705042D00D90425191D072901D2E4
:1010E000002300E0DB1E012606FA05F1491E21401F
:1010F00099409E40761E16403143F0BC01F09BB9EA
:101100000CED00E0064900F0070208684FF6FF0307
:10111000184040EA0220034A10430860704700006C
:101120000CED00E00000FA052DE9F84317480168CE
:1011300041F0805101600068154F00F08050012699
:1011400000903E64FFF78CFC05464FF47A78114C12
:1011500005E000BFFFF784FC401B40450DD86068E8
:10116000C003F7D57E64FFF77BFC0546464607E0E3
:10117000FFF776FC401BB04202D90320BDE8F8839C
:1011800060688003F4D50020F8E700004038024092
:1011900000000E4200700040704700002DE9F0474B
:1011A0000E46050065D0DFF81481D8F80000F7B2CC
:1011B00000F00F00B04207D288F80070D8F80000A5
:1011C00000F00F00B04254D128683D4C810712D581
:1011D000400703D5206840F4E050206028780007DD
:1011E00003D5206840F4604020602068A96820F0A2
:1011F000F000084320602878C0072DD03049686887
:101200000839012812D0022813D0032811D0096808
:10121000890700292DDA216821F0030101432160AB
:10122000FFF71EFC814641F2883A0EE00968890307
:10123000EFE709688901ECE7FFF712FCA0EB090171
:10124000514502D90320BDE8F0872068696800F0A5
:101250000C00B0EB810FEFD1D8F80010404601F040
:101260000F01B14207D90770006800F00F00B042CB
:1012700001D00120E7E72878400705D52068E96814
:1012800020F4E050084320602878000706D5206845
:10129000296920F4604040EAC100206000F03EF877
:1012A0002168084AC1F30311515CC840064908602F
:1012B00006480068FFF7CEFE0020C4E7003C02406D
:1012C00008380240A42B00081C0000201400002055
:1012D00001490120C864704700004742044805499D
:1012E00000680968044AC1F38221515CC840704714
:1012F0001C00002008380240B42B000804480549AF
:1013000000680968044AC1F34231515CC840704723
:101310001C00002008380240B42B0008154810B506
:10132000006810F00C02144813D04110042A0FD0AA
:10133000082A0ED10F4C241F2268236802F03F02B6
:101340005B0207D52068C0F38810A0FB010106E00E
:10135000084610BD2168C1F38811A1FB00010023DC
:10136000FEF742FF2168C1F30141491C4900B0FB6F
:10137000F1F010BD083802400024F400054810B513
:101380000068000605D5FFF707FF02498020891C89
:10139000087010BD0C3802402DE9F84F04006ED0E3
:1013A0002078DFF84C93C007A9F104054AD009F171
:1013B00004000168C1F38101012908D00068C0F36D
:1013C000810002280AD1D9F80000400206D5286819
:1013D000800337D560680028E1D033E06068B0F55D
:1013E000803F10D0B0F5A02F286810D020F48030B6
:1013F0002860286820F4802028606068A8B1FFF782
:101400002FFB06460DE0286840F48030F4E740F4F6
:1014100080202860F7E700BFFFF722FB801B6428CD
:1014200073D828688003F7D50CE0FFF719FB064650
:1014300005E000BFFFF714FB801B6428F0D8286884
:101440008003F7D42078DFF8AC8280074FF0000AE1
:101450003ED5A748001D016811F00C0F08D00068A8
:10146000C0F3810002280BD1D9F80000400207D454
:101470002868800716D5E068012800D112E033E122
:10148000E068B8B10120C8F80000FFF7E9FA0646A5
:1014900005E000BFFFF7E4FA801B0228C0D82868E7
:1014A0008007F7D52868216920F0F80040EAC100DC
:1014B00028600DE0C8F800A0FFF7D2FA064604E065
:1014C000FFF7CEFA801B02281FD828688007F7D4C0
:1014D0002078000722D5864F87486169703771B13F
:1014E00001210160FFF7BCFA064604E0FFF7B8FAF5
:1014F000801B022809D838688007F7D50EE0C0F8AD
:1015000000A0FFF7ADFA064605E082E0FFF7A8FA73
:10151000801B02287DD838688007F7D420784007E0
:1015200068D5DFF8CCB100270BF13C0BDBF80000ED
:10153000C0000BD4DBF8001041F08051CBF8001054
:10154000DBF80000012700F0805000906B4E3068FF
:10155000C00510D4306840F480703060FFF780FA26
:10156000009005E0FFF77CFA0099401A022850D855
:101570003068C005F6D55E4EA0686C3601280FD0E5
:101580000528306810D020F001003060306820F06D
:1015900004003060A068B8B1FFF762FA00900FE075
:1015A000306840F00100F4E740F004003060F7E7F5
:1015B000FFF756FA0099411A41F28830814266D805
:1015C00030688007F4D50EE0FFF74AFA009007E094
:1015D000FFF746FA0099411A41F28830814256D805
:1015E00030688007F4D42FB1DBF8001021F080516F
:1015F000CBF80010A069C8B33D49091D0968C1F3C3
:10160000810102294AD00228504607D0C8F860005C
:1016100000E03CE0FFF724FA04463BE04746C8F808
:101620006000FFF71DFA064605E000BFFFF718FA55
:10163000801B02282BD828688001F7D4D4E9070141
:101640000843A16A2E4A490802EB0141626A41EA55
:101650008211084394F82C1040EA0161C9F8001087
:1016600001203866FFF7FCF9044606E03EE000BFC3
:10167000FFF7F6F9001B022809D828688001F7D582
:1016800034E000BFFFF7ECF9001B022802D9032069
:10169000BDE8F88F28688001F4D427E00128F7D04E
:1016A000D9F80000E26900F4800191421CD1226A5D
:1016B00000F03F01914217D147F6C071626A0140C4
:1016C000B1EB821F10D1A26A4FF0FF3300F440311A
:1016D00003EB5202B1EB024F06D194F82C1000F04C
:1016E0007060B0EB016F01D00120D1E70020CFE79F
:1016F0000438024000004742800E4742007000401C
:101700000000FFFF10B5401EB0F1807F01D3012023
:1017100010BD4FF0E02460610F21601700F08BFED8
:101720000020A06107202061002010BD70B50400DA
:1017300004D094F84100002510B106E0012070BDEE
:1017400084F84050204600F023F8242084F841001B
:101750002068C16821F40051C160204600F0CCFD32
:101760002068016921F4904101612068416921F0FC
:101770002A0141612068C16841F40051C16065647B
:10178000202084F8410084F842006563002070BD89
:1017900010B586B0044614216846FEF75DFD144975
:1017A0002068884221D113480021026842F01002CB
:1017B0000260006800F0100005900E4814380268BE
:1017C00042F001020260006800F0010005904FF451
:1017D000C06000900220CDE90101032003900720A2
:1017E000049069460448FFF721F806B010BD0000D8
:1017F000001001404438024000000240FEE701684A
:101800004A69D24352050FD46FF480624A610021C5
:1018100040F8301F202242738173026942F00402B3
:101820000261017301207047002070472DE9F84FD5
:101830000446006889460B9D01689846174641F4A6
:10184000806101602068016841F480710160009549
:101850004FF0011B0022594620460A9B00F0E4F895
:101860004FF4007A40B120680068C00501D5C4F883
:1018700040A00320BDE8F88F216809F0FE00086150
:101880002B46284920460A9A00F016F9F0BB20683A
:101890004169806900902A4620460A9900F0A2F921
:1018A00040B1206C04283AD12068016841F40071ED
:1018B000016034E0FEB2B8F1010F09D02168380AA6
:1018C00008612A4620460A9900F08CF90028E8D1E0
:1018D000206806612A4620460A9900F083F900280C
:1018E000DFD12068016841F4807101600095002219
:1018F000594620460A9B00F097F80028B3D121688A
:1019000009F0FF0040F00100086100E007E02B460D
:10191000044920460A9A00F0CFF80028AAD00120F6
:10192000A8E70000020001002DE9F8430446006822
:101930000D46DDE9089701689846164641F4807126
:1019400001604B4600224FF001112046009700F045
:101950006BF848B120680068C00502D54FF40070EC
:1019600020640320BDE8F883216805F0FE000861CB
:101970003B464A461549204600F09EF888B9206843
:101980004169806900903A464946204600F02AF9AC
:1019900048B1206C042804D12068016841F400712A
:1019A00001600120DEE7F5B2B8F1010F09D021682E
:1019B000300A08613A464946204600F013F90028EB
:1019C000E7D1206805610020CCE70000020001009B
:1019D00070B516460D4604461EE02046FFF70FFF81
:1019E00008B1012070BD681C16D0FFF739F8801BC4
:1019F000A84200D885B920684069C04340070BD58C
:101A0000002044F8300F20216173A073216941F058
:101A1000200121612073E4E720684069C04340074A
:101A2000DBD4002070BD00002DE9F0479846174632
:101A30000D460446C1F30746DDF820902AE000BFBA
:101A4000B8F1FF3F26D0FFF70BF8A0EB09014145A5
:101A500002D8B8F1000F1DD12068012E16D0806980
:101A600025EA00000004000C12D00020B84211D179
:101A7000002044F8300F20216173A073216941F0E8
:101A80002001216120730120BDE8F0874069E7E76C
:101A90000120EBE72068012E0AD0806925EA0000CA
:101AA0000004000C06D00020B842C9D00020EBE7AB
:101AB0004069F3E70120F7E72DE9F047984616461D
:101AC0000D4604464FF000094FF0200AC1F30747C6
:101AD00023E020684069C043400515D420680168B0
:101AE00041F40071016021686FF480604861C4F8BE
:101AF000309084F83DA084F83E90216C41F00401C0
:101B0000216484F83C9021E0701C06D0FEF7A8FF09
:101B1000A0EB0800B04203D816B1012F1FD021E07E
:101B20002068012F15D0806925EA00000004000C10
:101B300018D000BF44F8309F84F80DA084F80E90B0
:101B4000216941F02001216184F80C900120BDE859
:101B5000F087406925EA00000004000CEAD1206803
:101B6000406901E02068806925EA00000004000C5B
:101B7000AFD1ECE72DE9F041002590460E46044632
:101B8000202728E04069C043C0060CD454F8301B1D
:101B90006FF01000486144F810596777A577206A04
:101BA0002062257714E0FEF75BFFA0EB0800B0424F
:101BB00000D886B920684069C04340060BD544F878
:101BC000305F6773A573206940F0200020612573A2
:101BD0000120BDE8F08120684169C9434906D1D49C
:101BE0000020F6E770B516460D4604461EE0204676
:101BF000FFF705FE08B1012070BD681C16D0FEF786
:101C00002FFF801BA84200D885B920684069C043D7
:101C100000060BD5002044F8300F20216173A0731B
:101C2000216941F0200121612073E4E720684069C7
:101C3000C0430006DBD4002070BD70B504462DED16
:101C4000108B82B0B0EE429AF0EE629AB0EE40FA9B
:101C5000F0EE60FA90ED08EB51EC110B53EC1E2BFB
:101C6000FEF7A6FB41EC100B51EC190B53EC102BBB
:101C7000FEF7A4FB94ED061B53EC112BFEF7F7FACD
:101C800094ED10DB41EC1A0B53EC1D2B51EC190BAE
:101C9000FEF794FB0E4646EC100B94ED0CCB05467C
:101CA00053EC1C2B51EC100BFEF782FB94ED0EBB9A
:101CB00053EC1B2BFEF77CFB94ED001B53EC112B1C
:101CC000FEF7D5FA53EC192BFEF778FB94ED0A1BBF
:101CD00053EC112BFEF7CBFA46EC105B41EC180BE2
:101CE00053EC1C2B51EC100BFEF765FB46EC105B24
:101CF00041EC1C0B53EC1B2B51EC100BFEF75BFB68
:101D000094ED020B41EC1B0B53EC192B51EC100B17
:101D1000FEF754FB53EC1D2BFEF7A9FA41EC100B18
:101D200051EC180B8DED000B94ED040B53EC102BC4
:101D3000FEF79DFA41EC190B51EC180B53EC192BE3
:101D4000FEF7AEFB41EC1D0B53EC192B51EC1B0BBA
:101D5000FEF7A6FB41EC190B53EC1A2B51EC1F0BB1
:101D6000FEF726FB41EC1F0B51EC1D0B53EC1F2B18
:101D7000FEF724FB53EC1A2BFEF779FA41EC1A0B11
:101D800053EC1F2B84ED06AB51EC190BFEF716FB41
:101D900053EC1E2BFEF76BFAC4E9080153EC182B29
:101DA00051EC1D0BFEF70AFB53EC182BFEF703FB5F
:101DB000C4E90A0153EC1C2B51EC1D0BFEF7FEFA93
:101DC00053EC1C2BFEF7F7FAC4E90C0153EC182B6B
:101DD00051EC190BFEF7F2FA53EC1B2BFEF7EBFA62
:101DE000C4E90E0153EC1C2B51EC190BFEF7E6FA7B
:101DF0009DED000B53EC102BFEF7DDFAC4E910014A
:101E000002B0B0EE4A0AF0EE6A0ABDEC108B70BD6B
:101E10002DE9F04186B08046012504A8CDE90005F2
:101E200064242B467522D02102944046FEF722FFFF
:101E30009DF81000682803D0012006B0BDE8F081AD
:101E4000002703AE8DF80C700096CDE901540123F4
:101E50006B22D0214046FFF70FF807208DF80C00C9
:101E60000096CDE9015401231922D0214046FFF705
:101E700003F88DF80C700096CDE9015401231C2263
:101E8000D0214046FEF7F8FF8DF80C700096CDE9A2
:101E9000015401231B22D0214046FEF7EDFF002014
:101EA000CBE700002DE9F0470C462DED0C8B88B0F8
:101EB0009FED9A9B9FED9BDB9FED9CBB9FED9DABA8
:101EC00064230E2203A98DE80E0001233B22D021BA
:101ED000FEF7D0FEBDF80C0040BA00B22080BDF87D
:101EE0000E1049BA0EB26680BDF8101049BA0DB294
:101EF000A580BDF8121049BA0FFA81FABDF8141086
:101F000049BA0FB22784BDF8161049BA09B26184E4
:101F10008946BDF8181049BA09B2A1848846FEF76F
:101F20002EFB9FED868B53EC182BFEF747FAC4E986
:101F300002013046FEF723FB53EC182BFEF73EFA66
:101F4000C4E904012846FEF71AFB9FED7E1B53EC03
:101F5000112BFEF7A5FA00EE10AAB8EEC00A9FED0D
:101F60007B1AC0EE010A9FED7A0AC4E906013846E1
:101F700030EE800A84ED100AFEF701FB9FED758BB1
:101F800053EC182BFEF78CFAC4E90A014846FEF719
:101F9000F6FA53EC182BFEF783FAC4E90C0140461D
:101FA000FEF7EDFA53EC182BFEF77AFAC4E90E01AE
:101FB000FEF756FD694D2968401AFEF7F1FA9FEDCC
:101FC000681B53EC112BFEF76BFA41EC1C0BFEF770
:101FD00047FD2860208810FB00F1A08810FB00104E
:101FE000FEF7CDFA41EC100B00F0ACFCB0EE408AED
:101FF000F0EE608A53EC192B51EC180BFEF7DEFA69
:1020000013D0B4F90200FEF7BAFA53EC182BFEF71E
:1020100047FA41EC100B00F01FFA53EC1D2B51EC6A
:10202000100BFEF7CBF941EC190BB4F90400FEF7E5
:10203000A6FA41EC180BB4F900004042FEF79FFAF3
:1020400041EC100BB0EE481AF0EE681A00F070FB8D
:1020500053EC1D2B51EC100BFEF7B0F941EC180BB3
:1020600053EC1B2BFEF7AAFA08D294ED140B53EC99
:102070001A2B51EC100BFEF7B9FA0FD353EC1A2BB5
:1020800051EC180BFEF7B2FA11D294ED140B53EC8D
:102090001B2B51EC100BFEF791FA08D22F48503051
:1020A00080ED068B84ED148B94ED140B0FE02B4820
:1020B00094ED0C1BB0EE4C2AF0EE6C2AB0EE480A00
:1020C000F0EE680A5030FFF7B8FD84ED140B00F015
:1020D0002FFC53EC1A2B51EC100BFEF787FA07D2AA
:1020E00094ED0A0B51EC100B81F00041C4E90A0198
:1020F0001A4894ED0A1BB0EE4C2AF0EE6C2AB0EEB2
:10210000490AF0EE690A0830FFF797FD84ED120BDB
:1021100008B0BDEC0C8BBDE8F087000000000000AB
:1021200000000000F8C1631ADCA54C40000000006C
:10213000008056C0000000000080564000000000F3
:102140000000103F000000000029CC400000AA431E
:10215000B81E124200000000006060402000002015
:102160000000000000408F400D4808B5016841F0B4
:1021700080010160016801F080010091016841F077
:1021800001010160016801F001010091016841F065
:1021900002010160006800F00200009008BD00002C
:1021A00030380240144810B51249016013494160AB
:1021B00000214FF480428160C0E9031241618161D6
:1021C000C1610162FEF792FC08B1FEF71BFB002122
:1021D0000948FEF74BFC08B1FEF714FB0021064846
:1021E000FEF765FC002803D0BDE81040FEF70ABBEF
:1021F00010BD00000054004018010020801A0600A5
:102200000C4810B50A4901604FF4E13141600021EA
:1022100081600C22C160C0E904128161C161FFF7D5
:1022200085FA002803D0BDE81040FEF7EBBA10BDD8
:10223000001001406C010020FEE7FFF79FF8FEE769
:1022400070477047FEF7E4BE30B593B03021684662
:10225000FEF702F814210CA8FDF7FEFF2048002528
:10226000016841F080510160006800F080501190D9
:102270001C48016841F4404101600068022400F4F8
:102280004040119001200090000401908001CDE9B0
:10229000064008AA0420B42182E813000B90684687
:1022A000FFF77AF808B172B6FEE7FEF73DFF08B116
:1022B00072B6FEE70CA90F2081E831004FF4A05060
:1022C0000F904FF48050109005210CA8FEF766FF88
:1022D00008B172B6FEE7FEF7FBFF13B030BD000099
:1022E00040380240007000400248016841F470012B
:1022F0000160704788ED00E070B504460068016930
:10230000E26821F44051114301612169A068E2694A
:1023100008436169114308432168CA6849F20C63A4
:102320009A430243CA6020684169A26921F440715E
:102330001143416131492068884202D030498842C6
:1023400002D1FEF7DBFF01E0FEF7C8FFE2690023E0
:10235000192164253226B2F5004F626828D0A0FB0F
:102360000101930F9200FDF73FFF0146B0FBF5F02E
:102370006FF01802504301EB800006EB0010B0FB39
:10238000F5F000F0F002B1FBF5F002EB0012B1FB4A
:10239000F5F06FF01803584301EB800006EB0010D6
:1023A000B0FBF5F000F00F0021681044886070BDAC
:1023B000A0FB010192185B41FDF716FF0146B0FB3F
:1023C000F5F00201B1FBF5F06FF01803584301EB93
:1023D000800006EBC000B0FBF5F000F0F80002EB67
:1023E0004002B1FBF5F0584301EB800006EBC00062
:1023F000B0FBF5F000F00700D6E700000010014048
:1024000000140140FEE703B401984100009850EA2F
:10241000C12018BF04204A0D18BF40F0010040F24F
:10242000FF72B2EB515F08BF40F00200012808BF05
:10243000052002B070470907090E002804DB00F1EF
:10244000E02080F80014704700F00F0000F1E02059
:1024500080F8141D7047000070B59B482DED020BED
:102460002DED068B079D25F00044A04218DC97480F
:10247000844202DC0AD1069840B19DED060BBDEC0A
:10248000068B02B0BDE8704000F015BB002DCCBF3C
:102490009FED8F0B9FED900BBDEC068B02B070BDD6
:1024A0008F48A04215DD8F48A042D8BF4FF0FF34BF
:1024B00058DD9DED060B51EC100BFFF7A4FF04282F
:1024C00008BF00F00DFB9DED060BBDEC068B02B0C6
:1024D00070BD9DED060B51EC100B00F02FFBCDE90C
:1024E000060181489FED828BA0423CDD8248A042DC
:1024F0001FDD00249FED82AB9DED060B53EC1A2BE4
:1025000051EC100BFDF7B3FE9DED060B41EC190BE2
:1025100053EC1A2B51EC100BFDF750FF53EC182B1A
:10252000FDF746FF53EC192BFDF7BAFFCDE9060185
:1025300049E09DED060B012453EC182B51EC100BD8
:10254000FDF795FE9DED060B41EC190B53EC182B96
:1025500051EC100BFDF72CFF53EC192BFDF7A0FFEE
:10256000CDE906012FE06848A0421FDD02249FED5F
:10257000689B9DED060B53EC192B51EC100BFDF7EE
:102580001DFF53EC182BFDF772FE9DED060B41EC81
:10259000180B53EC192B51EC100BFDF709FF53EC02
:1025A000182BFDF77DFFCDE906010CE09DED060B34
:1025B000032453EC102B9FED580B51EC100BFDF73F
:1025C0006FFFCDE906019DED060B53EC102B51EC8E
:1025D000100BFDF7F3FE41EC180B53EC182BFDF735
:1025E000EDFE41EC190B4E480621B0EE490AF0EE23
:1025F000690A784400F0E3F953EC182B51EC100B06
:10260000FDF7DCFE41EC180B4648B0EE490AF0EE4F
:10261000690A0521784400F0D2F953EC192B51ECEA
:10262000100BFDF7CBFE41EC100B51EC180B53ECEB
:10263000102B002C0EDAFDF71AFE9DED061B53EC55
:10264000112BFDF7BBFE9DED061B53EC112BFDF787
:10265000B2FE35E0FDF70BFE9DED061B53EC112B92
:10266000FDF7ACFE41EC100B2F48784400EBC400A2
:1026700090ED001B51EC100B53EC112BFDF798FE65
:102680009DED061B53EC112BFDF792FE41EC100B58
:102690002648784400EBC40090ED001B51EC100B71
:1026A00053EC112BFDF787FE41EC100B002DA2BF60
:1026B000BDEC068B02B070BD51EC100B81F00041F7
:1026C00041EC100B01E70000000010440000F07F17
:1026D000182D4454FB21F93F182D4454FB21F9BF18
:1026E0000000DC3F0000203E0000F33F000000003F
:1026F000000000000000F03F0000E63F0000000086
:1027000000000000000000400080034000000000C6
:10271000000000000000F83F000000000000F0BFD3
:1027200032060000E8050000720500002A050000DE
:1027300070B56F4E2DED040B2DED048B82B0DDF8DE
:1027400024C0DDE907235C422CF000411C4341EA30
:10275000D474069D22F00040B44205D86C422C434C
:1027600040EAD474B4420BD99DED081B9DED060BD5
:1027700002B0BDEC048B04B0BDE8704000F0A5B918
:10278000ACF14054A4F17F641C430BD0022404EA52
:10279000AC7444EAD27405439FED578B9FED582BE0
:1027A00007D015E09DED060B51EC100B00F0BEF9C3
:1027B00042E0002C11BF012C9DED060B02B0BDECD8
:1027C000048B04BF04B070BD022C38D0032C3BD066
:1027D0000B439FED4D1B9FED4E0B0AD0B14218D11C
:1027E000B04209D121F0804120F08040099107904A
:1027F0000FE0002A15DA10E0474B7B44002C08BF9D
:1028000093ED000B0DD0012C10D0022C17D0032C0F
:102810001AD0B0421DD1002A03DAB0EE410AF0EE20
:10282000610A02B0BDEC048B04B070BD93ED000BE7
:1028300051EC100B81F0004141EC100BF1E7B0EED0
:10284000480AF0EE680AECE7B0EE420AF0EE620ADF
:10285000E7E7401A00159FED329B3C28C8BF8DED7D
:10286000000B17DCBCF1000FBCBF10F13C0F8DED6D
:10287000009B0FDB9DED080B53EC102B9DED060B21
:1028800051EC100BFDF70CFE00F058F900F04EF97A
:10289000CDE90001B4B1012C10D0022C9FED220B28
:1028A00053EC102B9DED000B51EC100B19D0FDF7E4
:1028B0007FFD53EC182BFDF77BFDBDE7019880F001
:1028C000004001909DED000B53EC192B51EC100BC7
:1028D000FDF774FE04BF022000F022F99DED000B0D
:1028E0009FE7FDF765FD53EC182BFDF764FDA3E7AB
:1028F0000000F07F00000000182D4454FB21094027
:10290000182D4454FB2109C0182D4454FB21F9BF54
:10291000182D4454FB21F93F5A0400000000000028
:102920000000000000000000075C143326A6A13C54
:102930002DED020B019820F0004001909DED000B61
:1029400002B0704700B52DED048BB0EE409AF0EE6A
:10295000609A83B051EC190BFDF7EEFE41EC180BB9
:1029600018EE100A18EE901A8DED008B002818BF93
:102970000120084320F00040C0F17F6000F1E040FA
:10298000C00F14D019EE101A19EE900A8DED009BAD
:10299000002918BF0121084320F00040C0F17F60EA
:1029A00000F1E040C00F04BF012000F0B9F8B0EE24
:1029B000480A03B0F0EE680ABDEC048B00BD70B5A8
:1029C00004462DED028B4D1E00EBC500B0EE408A93
:1029D000F0EE608A90ED000B35F0060017D053EC56
:1029E000182B51EC100BFDF7E9FC41EC100B6D1EA0
:1029F00004EBC50090ED001B51EC100B53EC112BB8
:102A0000FDF735FC41EC100B35F00600E7D1022D47
:102A100036D0042D1CD0062D1CBFBDEC028B70BD22
:102A200053EC182B51EC100BFDF7C8FC94ED0A1B6E
:102A300053EC112BFDF71BFC53EC182BFDF7BEFCE0
:102A400094ED081B53EC112BFDF711FC41EC100B1E
:102A500053EC182B51EC100BFDF7B0FC94ED061B5A
:102A600053EC112BFDF703FC53EC182BFDF7A6FCE0
:102A700094ED040B53EC102BFDF7F9FB41EC100B1C
:102A800053EC182B51EC100BFDF798FC94ED021B46
:102A900053EC112BFDF7EBFB53EC182BFDF78EFCE1
:102AA00094ED001B53EC112BFDF7E1FBBDEC028B09
:102AB00041EC100B70BD10B553EC102B51EC100B0A
:102AC000FDF7D5FB41EC100B10BD10B553EC112BED
:102AD00051EC100BFDF7CBFB41EC100B10BD0000CF
:102AE0009FED050B10B553EC102B51EC100BFDF7BF
:102AF00065FC41EC100B10BD000000000000001050
:102B000002E008C8121F08C1002AFAD170477047B6
:102B1000002001E001C1121F002AFBD17047000014
:102B20000149086070470000B800002010B541EC72
:102B3000100BFFF791FC51EC100B10BD82B0CDE9EA
:102B4000000121F0004001909DED000B02B051EC1E
:102B5000100B7047FEF764FAFFF776FBFFF704FBF4
:102B6000FFF720FBFFF74CFB0B48FFF751F901285B
:102B7000FAD00A4D0A4C09490748FFF793F9642037
:102B8000FDF742FE95ED120B84ED000B95ED140B55
:102B900084ED020BEFE7000018010020C0000020C8
:102BA00000000020000000000000000001020304FB
:102BB00006070809000000000102030400000000ED
:102BC0004FBB610567ACDD3F182D4454FB21E93F45
:102BD0009BF681D20B73EF3F182D4454FB21F93F34
:102BE000E2652F227F2B7A3C075C143326A6813CBA
:102BF000BDCBF07A8807703C075C143326A6913C65
:102C0000C4EB98999999C9BF711623FEC671BCBFD0
:102C10006D9A74AFF2B0B3BF9AFDDE522DDEADBF38
:102C20002F6C6A2C44B4A2BF0D5555555555D53F50
:102C3000FF8300922449C23F6E204CC5CD45B73F6B
:102C4000513DD0A0660DB13FEB0D76244B7BA93FE3
:102C500011DA22E33AAD903F0000000000000000CE
:102C6000802C000800000020BC000000002B0008A1
:102C70003C2D0008BC000020FC040000102B0008C4
:102C80000000000000000000000000000000000044
:102C90000100000010000000000000000024F4000B
:102CA0000000000000000000000000E04D62503F06
:102CB000000000C07493683F000000E051B89E3FE0
:102CC0000000000000000000000000000000000004
:102CD00000000000000000000000000000000000F4
:102CE00000000000000000000000000000000000E4
:102CF000000000E04D62503F000000C07493683F48
:102D0000000000E051B89E3F0000000000000000FD
:102D100000000000000000000000000000000000B3
:102D200000000000000000000000000000000000A3
:0C2D300000000000000000000000000097
:04000005080001AD41
:00000001FF
