:020000040800F2
:1000000048070024B1020008572F0008D92D000826
:10001000552F0008AD090008953A000800000000BF
:100020000000000000000000000000009F320008F7
:10003000E909000800000000592F0008A13200085B
:10004000CF020008CF020008CF020008CF0200084C
:10005000CF020008CF020008CF020008CF0200083C
:10006000CF020008CF020008CF020008CF0200082C
:10007000CF020008CF020008CF020008CF0200081C
:10008000CF020008CF020008CF020008CF0200080C
:10009000CF020008CF020008CF020008CF020008FC
:1000A000CF020008CF020008CF020008CF020008EC
:1000B000CF020008CF020008CF020008CF020008DC
:1000C000CF020008CF020008CF020008CF020008CC
:1000D000CF020008CF020008CF020008CF020008BC
:1000E000CF020008CF02000800000000CF02000885
:1000F000CF020008CF020008CF020008CF0200089C
:10010000CF020008CF020008CF020008CF0200088B
:10011000CF020008CF020008CF020008CF0200087B
:10012000CF020008CF020008CF020008CF0200086B
:10013000CF020008CF020008CF020008CF0200085B
:1001400000000000000000000000000000000000AF
:10015000CF020008CF020008CF020008CF0200083B
:10016000CF020008CF020008CF020008CF0200082B
:10017000CF020008CF020008CF02000800000000F4
:10018000CF020008CF020008CF020008CF0200080B
:10019000CF020008CF020008CF020008CF020008FB
:1001A000CF020008CF020008CF020008CF020008EB
:1001B000CF020008CF020008CF020008CF020008DB
:1001C000CF020008CF020008CF020008CF020008CB
:1001D000CF020008CF020008CF020008CF020008BB
:1001E000CF020008CF020008CF020008CF020008AB
:1001F000CF020008CF020008CF020008CF0200089B
:10020000CF020008CF020008CF020008CF0200088A
:10021000CF020008CF020008CF020008CF0200087A
:10022000CF020008CF020008CF0200080000000043
:10023000CF020008CF02000800000000CF02000833
:10024000CF020008CF020008CF020008CF0200084A
:10025000CF020008CF020008CF020008CF0200083A
:10026000CF020008CF020008CF020008CF0200082A
:10027000CF020008CF020008CF02000800000000F3
:10028000CF020008CF020008CF02000800000000E3
:1002900000000000CF020008DFF810D000F04EFA96
:1002A00000480047AD430008AFF300804807002432
:1002B000074880470748804707480047FEE7FEE7B2
:1002C000FEE7FEE7FEE7FEE7FEE7FEE7FEE7FEE706
:1002D000F109000851330008990200082DE9F05F88
:1002E0000546002092469B468846064681464024A5
:1002F0001BE0284641464746224600F057F8534641
:100300005A46C01A914110D311461846224600F0B1
:100310003EF82D1A67EB01084F46224601200021C6
:1003200000F035F817EB00094E41201EA4F101043E
:10033000DFDC484631462A464346BDE8F09FD2B24C
:1003400001E000F8012B491EFBD270470022F6E7BE
:1003500010B513460A4604461946FFF7F0FF20463B
:1003600010BD30B50B46014600202022012409E0D3
:1003700021FA02F59D4205D303FA02F5491B04FA5E
:1003800002F52844151EA2F10102F1DC30BD202A3D
:1003900004DB203A00FA02F1002070479140C2F1DC
:1003A000200320FA03F3194390407047202A04DB0E
:1003B000203A21FA02F00021704721FA02F3D040DE
:1003C000C2F1200291400843194670472DE9FE4FC3
:1003D000804681EA0300C00F0C46009021F00041E6
:1003E00023F00045B8EB0200A94105D24046214662
:1003F00090461C460B46024623F00040104347D06F
:10040000270DC7F30A00C3F30A510290401A019066
:1004100040286BDAC3F3130040F4801B0098924627
:1004200020B10023D2EB030A63EB0B0B0198594672
:10043000C0F140025046FFF7AAFF06460D4650465F
:100440005946019A00F08CF910EB08006141002434
:1004500087EA115284EAE7731A4340D0009A62B3E4
:10046000019A012A4FEA075215DC001B61EB0201D9
:100470004FF0004202EA0752CDE90042001C41F56C
:10048000801132462B4600F08CF903B0BDE8F08FA6
:1004900040462146F9E7001B61EB0201001C41F5D3
:1004A000801300185B412018A2F5001747EB0301E9
:1004B00040EAD570B6196D4111E06D084FEA360675
:1004C00045EAC0754FEA0752001B61EB0201001CB0
:1004D00041F5801149084FEA300000195141324678
:1004E0002B4603B0BDE8F04F00F04CB90098012254
:1004F00040000023D0EB020263EBE073009821463A
:100500004FEAE074B8EB000061EB0401E9E783F027
:1005100000435BE781F0004158E72DE9FE4F81EA97
:10052000030404F0004421F0004100944FF0000B5C
:1005300023F0004350EA01045ED052EA03045BD08A
:10054000C3F30A54C1F30A552C44A4F2F3340194C2
:10055000A0FB0254C1F3130141F48011C3F3130350
:1005600043F4801301FB024400FB034E840A970A04
:1005700044EA815447EA8357A4FB076802958D0A31
:1005800005FB07854FEA932C04FB0C542705029DBD
:100590004FEA065847EA1637B5EB08056EEB070C2D
:1005A000870E920E47EA811742EA8312A7FB0201E7
:1005B000B6EB0B0164EB00042B0D43EA0C335E1821
:1005C00044EB1C50DA465146E7FB0201C5F3130425
:1005D0004FEA0B3343EA14534FEA0432019C43EAD7
:1005E0000603A4F10C040294009CCDE900B400F0D1
:1005F000D8F803B0BDE8F08F00200146F9E72DE9F7
:10060000F04D81EA030404F0004B21F0004514464C
:100610004FF0000A23F0004150EA050220D054EACE
:1006200001021DD0C5F30A570246C5F31303C1F3F7
:100630001300C1F30A5640F4801543F48013A7EB6E
:100640000608101BD64608F2FD3873EB050002D3EE
:1006500008F1010801E092185B41B8F1000F03DADC
:1006600000200146BDE8F08D00204FF480110646C1
:1006700084460EE0171B73EB050705D3121B63EBD3
:10068000050306434CEA010C49084FEA3000921872
:100690005B4150EA0107EDD152EA030012D082EA31
:1006A000040083EA0501084305D0101BAB4106D2C4
:1006B0000122002306E000224FF0004302E06FF029
:1006C000010253101AEB06004CEB085110EB0A0024
:1006D00041EB0B01BDE8F04D00F054B8C1F30A52F4
:1006E000C1F3130140F2FF3341F480119A4202DA60
:1006F00000200146704740F233439A42A2F233424F
:1007000002DC5242FFF752BEFFF741BE30B5041E75
:1007100071F1000404DB4FF00044404264EB01013E
:10072000141E73F1000405DB1C464FF000435242D7
:1007300063EB0403994208BF904230BD064C074D5D
:1007400006E0E06840F0010394E8070098471034A1
:10075000AC42F6D3FFF7A4FD344500085445000829
:10076000202A06DBCB17203A41FA02F043EAE07375
:1007700006E041FA02F3D040C2F120029140084362
:100780001946704710B5141E73F1000408DA401CB6
:1007900041F1000192185B411A4301D120F00100A0
:1007A00010BD2DE9F04D92469B4611B1B1FA81F290
:1007B00002E0B0FA80F220329046FFF7E8FD0446EE
:1007C0000F4640EA0A0041EA0B0153465A460843E5
:1007D00013D0114653EA010019D0C8F14002504627
:1007E000FFF7E4FD05460E46504659464246FFF7E0
:1007F000CEFD084305D0012004E020463946BDE87F
:10080000F08D0020054346EAE0762C4337430A98F2
:100810006305E40AA0EB08000022FD0A44EA4754FD
:100820000A3002D500200146E9E7010510196941A7
:10083000DDE9084500196941BDE8F04DA2E7000077
:10084000F8B50646144C13A04FF48075006800906C
:100850002946204600F0F0F90028F9D04FF48065D1
:1008600020460022294600F0ECF90C4864230122BE
:10087000694602F03FF8052003F083FD0748642332
:100880000322314601F0FCFE01222946204600F0F9
:10089000D8F9F8BD01000000000C0258280000241F
:1008A0002DE9F84F9A4617460E4683460F2000F072
:1008B0002FF8DFF8589000254FF4807822E00024CC
:1008C0001DE000BF1BF80410012000F043F8FC20DD
:1008D00000F01EF84146484600F0AEF90028F9D174
:1008E00000F016F86846FFF7ABFF684600F060F8C6
:1008F00005FB0641641C0AEB810080ED000AB4424E
:10090000E0D36D1CBD42DAD3BDE8F88F000C02586D
:1009100031B50E4C4FF480752946204600F08CF915
:100920000028F9D04FF4806520460022294600F0C7
:1009300088F9074864230122694601F0DBFF0122A0
:100940002946204600F07DF938BD0000000C025811
:100950002800002438B500F00F02124C002000904F
:1009600042F050028DF800204FF480758DF802108F
:100970002946204600F060F90028F9D04FF4806540
:1009800020460022294600F05CF907486423032230
:10099000694601F0AFFF01222946204600F051F9D7
:1009A00038BD0000000C025828000024FEE70000BB
:1009B000037800214278807841EA034141EA02212C
:1009C0000843010201D540F07F4000EE100A9FED80
:1009D000041BB8EEC00B20EE010BB7EEC00B704746
:1009E000C9353DDC99FFA33E704772B6FEE70000B3
:1009F000054805490839026842F0020202600868A9
:100A00008004FCD5704700000C4802582DE9F84FCF
:100A100003247D4D00234FF001094FF0B04B4FF000
:100A20000F0AE9E009FA03F73A4076D00E7906F0AA
:100A30000306012E01D0022E18D1D0F808C04FEACB
:100A4000430ECE6804FA0EF82CEA080C06FA0EF6ED
:100A500046EA0C068660D0F804C00E792CEA070C32
:100A6000C6F300169E4046EA0C0646600E79F64331
:100A7000B6070BD0C6684FEA43088F6804FA08FC33
:100A800026EA0C0607FA08F73743C7600E7906F026
:100A90000306022E12D1DE080F694FEA437C00EBF9
:100AA0008606B646366A4FEADC6C0AFA0CF807FA94
:100AB0000CF726EA08063743CEF820700F7906684F
:100AC0004FEA430807F0030704FA08FC07FA08F79F
:100AD00026EA0C06374307604E6816F4403F1CD0E8
:100AE0004A4E376847F00207376036689F0706F0BE
:100AF0000206009623F0030606F1B046B6463F0F05
:100B0000D6F80864DFF808810AFA07FC404526EAAF
:100B10000C0603D14FF0000C41E06CE0DFF8F4C0AC
:100B2000604502D14FF0010C39E0DFF8ECC06045C0
:100B300002D14FF0020C32E0DFF8E0C0604502D194
:100B40004FF0030C2BE0DFF8D8C0604502D14FF026
:100B5000040C24E0DFF8CCC0604502D14FF0050C56
:100B60001DE0DFF8C4C0604502D14FF0060C16E06E
:100B7000DFF8B8C0604502D14FF0070C0FE0DFF896
:100B8000B0C0604502D14FF0080C08E0DFF8A4C007
:100B9000604502D14FF0090C01E04FF00A0C0CFA4D
:100BA00007FC4CEA060CCEF808C44F68DBF800607E
:100BB000FF0226EA020600D516435F46CBF8006026
:100BC000D1F804C0DBF804605FEA8C2C26EA020648
:100BD00000D516437E606E684F6826EA0206BF03A2
:100BE00000D516436E602E684F6826EA0206FF03A2
:100BF00000D516432E605B1C0A6832FA03F67FF4B8
:100C000011AFBDE8F88F000080000058F44402588E
:100C1000000002580004025800080258000C025854
:100C2000001002580014025800180258001C025804
:100C300000200258002402580069084000D001201A
:100C400070470AB1816170470904FBE701480068F9
:100C5000000C70470010005C01488068704700007D
:100C600008000024024881680278114481607047BE
:100C700008000024032010B500F0C6F801F0A0F829
:100C80000F4A104914681368C4F3032203F00F03DA
:100C90008A5CC95C02F01F0201F01F01D0400A4AC1
:100CA00020FA01F11160094908600F2000F010F8E6
:100CB00008B1012010BD00F079F8002010BD00003F
:100CC0001844025824450008180000241400002489
:100CD00070B50D4D04462878A0B14FF47A71B1FB80
:100CE000F0F00A490968B1FBF0F001F024FF48B9BF
:100CF000102C07D200222146501E00F065F800207B
:100D00006C6070BD012070BD080000241400002438
:100D1000154BF0B5083B427813491A600B680A1F5F
:100D200023F001030B6043681360057BC67A827A67
:100D3000437B2D07847B45EA0665C77B90F809C095
:100D4000067A90F800E045EAC24040EA834040EA73
:100D5000444040EA074040EA0C2040EA460040EAAE
:100D60000E000860F0BD0000A0ED00E0BFF35F8F53
:100D7000044800210368034A23F48033036070327F
:100D80001160704724ED00E0074A40F00100064979
:100D900070321060086840F480300860BFF34F8FF5
:100DA000BFF36F8F7047000024ED00E0054808B5E1
:100DB000016841F002010160006800F0020000904B
:100DC00008BD0000F44402580E4BF0B41B680D46F9
:100DD000C3F30223C3F10706042E00D90426191D0C
:100DE000072901D2002300E0DB1E012404FA06F1EA
:100DF0009C40491E2940641E994014402143F0BC88
:100E000002F05ABE0CED00E0064900F0070210B5F2
:100E10004FF6FF040868044B204040EA02201843C4
:100E2000086010BD0CED00E00000FA05134970B534
:100E30000A68D243520705D5096801F007018142CB
:100E400013D118E00A6822F0070202430A60FFF794
:100E500003FF0A4D4FF47A760446083D07E000BFD1
:100E6000FFF7FAFE001BB04201D9012070BD2868CF
:100E7000C0438004F4D4002070BD00000C48025828
:100E800010B500F057FF05490968054AC1F3021182
:100E9000515C01F01F01C84010BD00002044025801
:100EA00024450008494930B5484C0B1D0A681434E4
:100EB00009681D68246802F00303C5F30012C1F33A
:100EC0000531C4F3CC04002914FB02F200EE102A11
:100ED000F8EE400A75D03F4A9FED3D1AB7EE000A82
:100EE0006BB1DFED3D1A012B01D0022B64D002EE75
:100EF000101A1168F8EE422A81EEA22A21E0334C42
:100F0000283C23689B0612D5344B246801EE901AC6
:100F10001168C4F3C104F8EE612AE34001EE903A8F
:100F2000C1F30801F8EE611A81EEA22A0BE001EE8E
:100F3000901ADFED2B2A00BFF8EE611A116882EEDD
:100F4000A12AC1F3080101EE901A1168F8EE611AA6
:100F500040EE811A71EE800A62EE200AC1F346214A
:100F600001EE101AB8EE411A31EE001AC0EE811AE5
:100F7000BCEEE11A80ED001A1168C1F3064101EEE2
:100F8000101AB8EE411A31EE001AC0EE811ABCEE0A
:100F9000E11A80ED011A1168C1F3066101EE101A21
:100FA000B8EE411A31EE000A80EE801ABCEEC10A9A
:100FB00080ED020A30BD04E001EE901ADFED092A4F
:100FC000BAE70021016041608160F3E728440258DC
:100FD00000000039384402580024744A0090D003BD
:100FE0000024744C20BCBE4B494930B5484C0B1D05
:100FF0000A681C3409681D68246802F00303C5F3FD
:101000000022C1F30551C4F3CC04002914FB02F201
:1010100000EE102AF8EE400A75D03F4A9FED3D1AC7
:10102000B7EE000A6BB1DFED3D1A012B01D0022BA8
:1010300064D002EE101A1168F8EE422A81EEA22A5C
:1010400021E0334C283C23689B0612D5344B24689E
:1010500001EE901A1168C4F3C104F8EE612AE3406E
:1010600001EE903AC1F30801F8EE611A81EEA22A6E
:101070000BE001EE901ADFED2B2A00BFF8EE611AAB
:10108000116882EEA12AC1F3080101EE901A1168DD
:10109000F8EE611A40EE811A71EE800A62EE200AC3
:1010A000C1F3462101EE101AB8EE411A31EE001AD2
:1010B000C0EE811ABCEEE11A80ED001A1168C1F38E
:1010C000064101EE101AB8EE411A31EE001AC0EED8
:1010D000811ABCEEE11A80ED011A1168C1F30661B4
:1010E00001EE101AB8EE411A31EE000A80EE801AB5
:1010F000BCEEC10A80ED020A30BD04E001EE901A98
:10110000DFED092ABAE70021016041608160F3E761
:101110002844025800000039404402580024744A10
:101120000090D0030024744C20BCBE4B2DE9FE4F30
:101130000546DFF8E48350F8081B0024F64FC94346
:10114000019005F12800264608F1240800900801C6
:101150001DD4A86E50B1B0F5801F0CD0B0F5001FA3
:101160000ED0B0F5401F1ED001240FE0386840F4C7
:101170000030386017E00198022101F0EFFE03E033
:101180000098022101F07AFF04000CD0264628883E
:10119000C043C00523D4A86D05281ED2DFE800F0A7
:1011A0000C11161B1B00AA6ED8F8001021F4401178
:1011B0001143C8F80010EAE7386840F4003038609E
:1011C00009E00198002101F0C9FE03E00098002128
:1011D00001F054FF044674B100E00124264628883B
:1011E000C043800528D4E86D80281ED00CDC90B167
:1011F00040280ED114E0AA6DD8F8001021F00701A4
:101200001143C8F80010EAE7C02813D0B0F5807F7A
:1012100010D001240FE0386840F40030386009E055
:101220000198002101F09AFE03E00098002101F0EE
:1012300025FF04469CB126462888DFF8DC92C0438F
:1012400009F12C0940052CD4D5F8A800B0F5800F81
:1012500020D00DDCA0B1B0F5001F0FD115E0EA6D74
:10126000D8F8001021F4E0711143C8F80010E3E74A
:10127000B0F5C00F13D0B0F5000F10D001240FE06F
:10128000386840F40030386009E00198002101F02E
:1012900065FE03E00098002101F0F0FE04467CB1F9
:1012A00026462888C04300052DD4D5F8AC00B0F1FF
:1012B000007F21D00EDCA8B1B0F1807F10D116E004
:1012C000D5F8A820D9F8001021F460011143C9F81D
:1012D0000010E6E7B0F1407F13D0B0F1806F10D07E
:1012E00001240FE0386840F40030386009E00198CC
:1012F000002101F033FE03E00098002101F0BEFE62
:10130000044674B126462868C04380011FD4E86CA7
:10131000D8B110280FD0202812D0302815D00124A1
:1013200014E0D5F8AC20D9F8001021F0E0611143A9
:10133000C9F80010E7E7386840F40030386004E08E
:101340000198022101F00AFE044674B1264628885D
:10135000C043C0042BD4286EB0F5005F20D00DDC54
:10136000A0B1B0F5805F0FD115E06B48EA6C20307A
:10137000016821F0300111430160E8E7B0F5405FFA
:1013800013D0B0F5804F10D001240FE0386840F43E
:101390000030386009E00198002101F0DFFD03E032
:1013A0000098002101F06AFE04468CB12646288888
:1013B000C043800429D4686EB0F5403F23D010DCD0
:1013C00008B3B0F5803F14D0B0F5003F0FD115E061
:1013D0002A6ED8F8001021F4E0411143C8F800103B
:1013E000E5E7B0F5802F0ED0B0F5A02F0BD001248B
:1013F0000AE00198012101F0B1FD03E0009801210C
:1014000001F03CFE044694B126462888C0434004BF
:101410002AD4D5F8B000B0F1405F23D010DC08B377
:10142000B0F1805F14D0B0F1005F0FD115E06A6EAB
:10143000D8F8001021F4E0211143C8F80010E4E7C7
:10144000B0F1804F0ED0B0F1A04F0BD001240AE0D4
:101450000198012101F082FD03E00098012101F0D3
:101460000DFE044674B126462888C04300041FD4EC
:10147000286FD8B1B0F1805F0ED0B0F1005F10D00E
:10148000012414E0D5F8B020D9F8001021F0E04193
:101490001143C9F80010E7E7386840F400303860BD
:1014A00004E00198012101F059FD044674B126467B
:1014B0002868C043C0011ED4A86CD0B101280ED04A
:1014C000022811D0032814D0012413E02A6FD8F881
:1014D000001021F040511143C8F80010E8E73868C7
:1014E00040F40030386004E00198022101F036FD3C
:1014F0000446ACB126462868DFF81CB0C043ABF107
:101500001C0B400252D40548016841F4807101600F
:10151000FFF7A2FB824611E02C4402580048025813
:10152000FA48AA6C016821F0030111430160E2E767
:10153000FFF792FBA0EB0A00642835D8F448006856
:10154000C005F5D58CBBDFF8C4A3B5F8B4100AF11B
:10155000240ADAF8000001F4407100F44070884277
:1015600011D0DAF80010DAF8002021F4407142F4CA
:101570008032CAF80020DAF8002022F48032CAF85B
:101580000020CAF80010D5F8B400B0F5807F1AD159
:10159000FFF762FB029012E0FFF75EFB0299411A2F
:1015A00041F2883081420AD9032426462878DFF8A0
:1015B0005CA3C0430AF1080AC00721D03CE0DAF876
:1015C00000008007E8D5D5F8B410C1F30120032846
:1015D00058460DD0016821F47C510160B5F8B42063
:1015E000DAF80010C2F30B021143CAF80010DDE76D
:1015F000C84A036802EA111223F47C511143ECE754
:10160000E86F182816D005DCA0B1082808D01028EB
:1016100004D10AE020280DD028280BD001240AE0AC
:101620000198012101F09AFC03E00098012101F0EA
:1016300025FD044664B126462878C04380071ED4A1
:10164000A86F062819D2DFE800F0160C111616163E
:10165000EA6FDAF8001021F038011143CAF80010DF
:10166000EAE70198012101F079FC03E000980121EB
:1016700001F004FD04467CB100E0012426462878F0
:10168000C04340071FD4D5F89400062819D2DFE8DC
:1016900000F0160C11161616AA6FDAF8001021F0D9
:1016A00007011143CAF80010E9E70198012101F090
:1016B00055FC03E00098012101F0E0FC0446A4B1D0
:1016C00000E0012426462878C04380062BD4D5F8B4
:1016D0009000B0F1405F24D011DC10B3B0F1805F16
:1016E00015D0B0F1005F10D116E0D5F89420D9F8EC
:1016F000001021F007011143C9F80010E3E7B0F131
:10170000804F0ED0B0F1A04F0BD001240AE0019819
:10171000002101F023FC03E00098022101F0AEFC5F
:10172000044694B126462878C04340062BD4D5F809
:101730009C00B0F5406F24D011DC10B3B0F5806F81
:1017400015D0B0F5006F10D116E0D5F89020DAF87A
:10175000001021F0E0411143CAF80010E3E7B0F5B2
:10176000805F0ED0B0F5A05F0BD001240AE0019895
:10177000002101F0F3FB03E00098022101F07EFC60
:10178000044694B126462878C04300062BD4D5F8E9
:10179000A000B0F5C04F24D011DC10B3B0F5005F4D
:1017A00015D0B0F5804F10D116E0D5F89C20D9F8AF
:1017B000001021F4E0511143C9F80010E3E7B0F53F
:1017C000004F0ED0B0F5204F0BD001240AE0019855
:1017D000002101F0C3FB03E00098022101F04EFC60
:1017E000044654B126462878C04300071ED4D5F8D5
:1017F0008400B0F5805F0AD00FE0D5F8A020D9F8BA
:10180000001021F460411143C9F80010EBE7009883
:10181000022101F033FC00B10126D5F88420DAF86A
:10182000001021F440511143CAF800102878C04339
:10183000C00613D4D5F89800B0F5807F05D1009884
:10184000022101F01BFC00B10126D5F89820D9F83F
:10185000001021F440711143C9F800102868C043FA
:10186000000316D4D5F8A40038B1B0F5803F09D0F4
:10187000B0F5003F0BD001240AE00198002101F0EF
:101880006DFB03E00098022101F0F8FB04468CB1E7
:1018900026462868C043400322D4D5F88800B0F516
:1018A000801F11D0B0F5001F13D0B0F5401F15D028
:1018B000012414E0D5F8A420D9F8001021F4403117
:1018C0001143C9F80010E4E7386840F4003038608C
:1018D00004E00098012101F0D1FB04465CB12646EA
:1018E0002868C043C00323D4286DA8B1B0F5803F59
:1018F00017D001241BE0D5F88820DAF8001021F475
:1019000040111143CAF80010EAE700004C440258A5
:1019100000480258CFFFFF00386840F400303860BC
:1019200004E00198022101F019FB0446E4B12646C7
:101930002868C043800005D40098022101F09EFB76
:1019400000B101262868C04380031BD4D5F880006D
:10195000B0B1B0F5807F0FD0B0F5007F10D0B0F5FA
:10196000407F0DD001240CE05A482A6D016821F413
:10197000803111430160DBE7386840F400303860A3
:10198000ECB326462868C043C00207D46A6FD8F873
:10199000001021F000411143C8F800102868C0432E
:1019A000C00008D4D5F8B820DBF8001021F480413D
:1019B0001143CBF800102868C043800207D4EA6EB8
:1019C000D8F8001021F080711143C8F80010286881
:1019D000C04340000CD4DBF8001021F40041CBF8E8
:1019E0000010DBF80010D5F8BC201143CBF8001034
:1019F0002868C04308D437486A6D016800E018E0E1
:101A000021F04051114301602868C043000208D40E
:101A1000D5F88C20DAF8001021F440011143CAF8FF
:101A2000001028790024C04300F0010020430AD0B0
:101A30000FE0D5F88020DAF8001021F4407111434E
:101A4000CAF800109EE70198002101F087FA00B162
:101A500006462879C04300F00200204305D10198D2
:101A6000012101F07BFA00B106462879C04300F05D
:101A70000400204305D10198022101F06FFA00B162
:101A800006462879C04300F00800204305D100989D
:101A9000002101F0F3FA00B106462879C04300F0B6
:101AA0001000204305D10098012101F0E7FA00B1B0
:101AB00006462879C04300F02000044304D1009872
:101AC000022101F0DBFA00B916B10120BDE8FE8F5A
:101AD0000020FBE74C4402582DE9F05F04000F465C
:101AE0007ED0DFF83882D8F8000000F00F00B8424E
:101AF0000CD2D8F8001021F00F013943C8F80010BB
:101B0000D8F8000000F00F00B84269D12078844D69
:101B100040070AD52069296801F07001884204D97C
:101B2000296821F070010143296020787C4E361D20
:101B300000070AD56069316801F07001884204D954
:101B4000316821F07001014331602078C0060AD568
:101B5000A069316801F4E061884204D9316821F458
:101B6000E061014331602078DFF8B4B180060BF109
:101B7000080B0CD5E1695846DBF8002002F0700232
:101B8000914204D9026822F070020A430260207870
:101B900080070AD5E068296801F00F01884204D95E
:101BA000296821F00F01014329602078C0073ED049
:101BB0005B49A2682868183920F4706010432860D7
:101BC0006068022818D0032819D00968012819D0A4
:101BD000490700294ADADFF848A1AAF1080A00E01B
:101BE00044E0DAF8002022F007020243CAF800209D
:101BF000FFF732F8814612E009688903E9E70968CE
:101C00008901E6E7C905E4E7FFF726F8A0EB09013B
:101C100041F28830814202D90320BDE8F09F61681B
:101C2000DAF8000000F03800B0EBC10FECD12078FA
:101C300080070AD5E068296801F00F01884204D2C4
:101C4000296821F00F0101432960D8F800104046AF
:101C500001F00F01B9420BD9016821F00F0139439E
:101C60000160006800F00F00B84201D00120D4E705
:101C7000207840070AD52069296801F07001884260
:101C800004D2296821F070010143296020780007FF
:101C90000AD56069316801F07001884204D2316868
:101CA00021F07001014331602078C0060AD5A06997
:101CB000316801F4E061884204D2316821F4E061C6
:101CC00001433160207880060CD5E1695846DBF885
:101CD000002002F07002914204D2026822F07002E9
:101CE0000A43026000F06CF80E492A682B68C2F3C0
:101CF000032203F00F038A5CC95C02F01F0201F0AB
:101D00001F01D040084A20FA01F11160074908601C
:101D100007480068BDE8F05FFEF7DABF0020005218
:101D20001844025824450008180000241400002418
:101D30000C00002430B500F043F80B4A0B490C4B63
:101D400015681468C5F3032204F00F048A5C095D6A
:101D500002F01F0201F01F01D040064A20FA01F1F3
:101D600019601060084630BD184402582445000828
:101D7000180000241400002400B5FFF7DBFF05491C
:101D80000968054AC1F30211515C01F01F01C84006
:101D900000BD00001C4402582445000800B5FFF7B0
:101DA000C9FF05490968054AC1F30221515C01F0E8
:101DB0001F01C84000BD00001C4402582445000813
:101DC000454970B545480968434B103B11F038024E
:101DD00008D00111082A03D0102A0BD0182A0BD0E2
:101DE000084670BD19688906FBD51968C1F3C101A1
:101DF000C84070BD3A4870BD3749374D18310C1D89
:101E000024350A68096826682D6802F0030406F084
:101E10000102C1F30511C5F3CC0515FB02F200EE7A
:101E2000102AB8EE400AE9B32F4ADFED2E0AB7EECA
:101E3000001A6CB1DFED2D1A012C01D0022C43D019
:101E400002EE101A1068F8EE422A81EEA22A1EE075
:101E50001C68A40611D51B6801EE901A1168C3F323
:101E6000C103F8EE612AD84001EE900AC1F30800E0
:101E7000F8EE611A81EEA22A0BE001EE901ADFED76
:101E80001C2A00BFF8EE611A106882EEA12AC0F386
:101E9000080001EE900AF8EE611A40EE201A31EEC9
:101EA000810A00E015E022EE000A1068C0F3462027
:101EB000401C00EE900AF8EE600A80EE201ABCEE9C
:101EC000C10A10EE100A70BD01EE901ADFED092A6A
:101ED000D8E7002070BD0000104402580090D003E5
:101EE00040787D0100000039304402580024744AD3
:101EF0000024744C20BCBE4B2DE9F05F04007DD063
:101F0000FF4F2078FE4D1837DFF8F493103DC007DF
:101F100048D0D9F80000396800F03800102815D0F2
:101F2000182803D101F0030002280FD06068B0F533
:101F3000803F12D010B1B0F5A02F18D0286820F43F
:101F400080302860286820F4802009E02868800319
:101F500028D560680028D2D024E0286840F480307A
:101F60002860606888B1FEF777FE064609E02868B9
:101F700040F480202860F0E7FEF76EFE801B6428A6
:101F80006FD828688003F7D50CE0FEF765FE06469B
:101F900005E000BFFEF760FE801B6428F0D82868CB
:101FA0008003F7D4207841F20308D54E0C3E800719
:101FB00069D5D9F80000396810F038000ED018281B
:101FC00001D188070AD0E06890B3296821F019018F
:101FD00001432960FEF740FE824631E02868400751
:101FE00002D5E06800288AD0E168286820F019004E
:101FF00008432860FEF730FE824607E0DFE000BFBE
:10200000FEF72AFEA0EB0A000228B9D8286840078C
:10201000F6D500BFFEF71AFE40451BD820694028C0
:1020200012D0316821F47C3141EA003030602AE07E
:1020300018E000BFFEF710FEA0EB0A0002289FD8B0
:1020400028684007F6D5E5E7306820F47C3040F496
:102050000030EBE7207C316821F0FE4141EA00606E
:10206000E4E70DE1286820F001002860FEF7F4FDA8
:10207000824605E0FEF7F0FDA0EB0A0002288DD8AD
:1020800028684007F6D42078C0065DD5D9F800004E
:10209000DFF86CB2396800F03800ABF1040B0828A7
:1020A00010D0182803D101F0030001280AD0E069FC
:1020B0000028286838D040F080002860FEF7CCFD6A
:1020C000824623E02868C00523D5E069802876D1C0
:1020D0001FE0206A202821D0316821F0F84141EA30
:1020E0008060306030E000BF94F82010DBF8002002
:1020F00022F07C5242EA0161CBF8001024E000BFDC
:10210000FEF7AAFDA0EB0A00022898D82868C005AF
:10211000F6D5FEF79BFD4045E6D8DAE7306820F0BB
:10212000F84040F08040DCE720F080002860FEF7B7
:1021300093FD064605E000BFFEF78EFD801B0228DA
:102140009DD82868C005F7D42078000729D56C48A9
:102150006169643000298046016811D041F00101B5
:102160000160FEF779FD064605E000BFFEF774FD4D
:10217000801B0228C9D8D8F800008007F6D510E0E7
:1021800021F001010160FEF767FD064605E000BF92
:10219000FEF762FD801B022872D8D8F80000800785
:1021A000F6D42078800623D5A0690028286810D0AE
:1021B00040F480502860FEF74FFD064605E036E10A
:1021C000FEF74AFD801B02285AD828688004F7D5FC
:1021D0000EE020F480502860FEF73EFD064604E045
:1021E000FEF73AFD801B02284AD828688004F7D4FD
:1021F000207840074FD5DFF80C81D8F8001041F463
:102200008071C8F80010FEF727FD064605E000BF04
:10221000FEF722FD801B642832D8D8F80000C005E4
:10222000F6D5374EA068603601280AD008B10528D7
:1022300013D0306820F001003060306820F00400D6
:1022400002E0306840F001003060A06841F2883A56
:1022500090B1FEF701FD80460AE0306840F00400CE
:102260003060EEE7FEF7F8FCA0EB0801514507D817
:1022700030688007F6D50EE0FEF7EEFC804607E0FA
:1022800084E000BFFEF7E8FCA0EB080151457DD8D3
:1022900030688007F6D4606AB0B3DFF86480D9F89C
:1022A000001008F120084FF6F87B08F10409C1F38B
:1022B000C2010329A8F1040A69D00228286820F085
:1022C0008070286003D0FEF7C7FC044684E0FEF768
:1022D000C3FC064605E000BFFEF7BEFC801B0228DB
:1022E00077D828688001F7D4E26A40F2F331386881
:1022F00054F8283F884340EA02101843386004E04D
:102300001044025800480258B5E0217B4346228918
:102310004FF4FE0C208A4FF0FE474902267D521EE4
:10232000401EA1F50071C2F308088AB2761E0CEABD
:10233000004042EA08020243504607EA06610A43A7
:102340001A60DAF8002022F00102CAF80020D9F859
:102350000020266A22EA0B0242EAC602C9F80020DF
:10236000DAF80010A26921F00C011143CAF800103C
:102370000168E26921F0020111430160016841F442
:1023800080310160016841F4003101E021E027E083
:102390000160016841F480210160016841F00101A0
:1023A0000160286840F080702860FEF755FC044604
:1023B00005E000BFFEF750FC001B022809D8286882
:1023C0008001F7D557E000BFFEF746FC001B02284E
:1023D00002D90320BDE8F09F28688001F4D44AE0C8
:1023E00039680128D8F8000021D0A26A01F003035F
:1023F00093421CD1E26AC1F305118A4217D1216BC5
:10240000C0F30802491E8A4211D1616BC0F3462213
:10241000491E91420BD1A16BC0F30642491E914265
:1024200005D1E16BC0F30660491E814201D0012055
:10243000D0E7A16C4E46D9F80000C0F3CC00814231
:1024400019D0DAF80000554620F00100CAF8000063
:10245000FEF702FC4FEA0007FEF7FEFBB842FBD096
:10246000A26C306820EA0B0040EAC20030602868A5
:1024700040F0010028600020ACE700002DE9F047A3
:10248000040029D0594A4FF000092068584B594D93
:102490009042C4F8289006D0984204D0A84202D0B6
:1024A000E1680F2918D8E1684FF0010AE76B08319D
:1024B000C9080AEB57167143904205D0984203D0E1
:1024C000A84201D0082907D8904203D0984201D0F1
:1024D000A84204D1102902D90120BDE8F08794F860
:1024E000810020B9204684F8809000F085F8022011
:1024F00084F881002068016821F0010101602068F2
:10250000A1698268B1F1806F02F4F81110D162689C
:10251000B2F5800F01D01AB10AE0A26B22B107E038
:10252000A26BB2F1805F03D1026842F48052026074
:102530006068400209D5E068072806D32068236D4B
:10254000026822F480721A4303E02068026822F4D1
:1025500080720260A66AE069E26B25683043E36836
:102560000A4310431843A860D4E90D02D4E9058159
:10257000636A25691843D4F820C00A4326681043CB
:102580002843A56DD4E90172D4E9123140EA08006C
:1025900040EA0C0038430843104318432843F060D6
:1025A000606868B92068816821F4C05141F4006115
:1025B00081602068816821F4C06141F4806181609C
:1025C0002068016D21F0010101656068400206D5B7
:1025D0002068626DC16821F000411143C160C4F8F8
:1025E000849084F881A0002077E70000003001404B
:1025F00000380040003C004010B5B6B0044614213D
:1026000030A8FDF7A3FEC0216846FDF79FFE1949DB
:10261000206888422CD18114002018900446CDE90E
:1026200000106846FEF782FD08B1FEF7DEF9124899
:10263000016841F480510160006800F480503590D9
:102640000D481038016841F00101016000680DF18A
:10265000C00C022100F001003590E02005238CE839
:10266000130003220548CDE9332330A9FEF7CEF944
:1026700036B010BD00300140F0440258000002584E
:102680002DE9F84F8946C16B044600689A46164604
:102690004909491C1FFA81F830300090FEF7DCFA36
:1026A000834694F88100012838D1B9F1000F6FD02A
:1026B000002EFCD094F8800001282FD0A1680025BE
:1026C000012784F88070042084F88100C4F88450C5
:1026D000C4F86490E565A4F86050256765672C34FC
:1026E000B1F5C02FA687E687E58654F82C0D18D0E3
:1026F000C16821F4C02141F48021C1602068416893
:102700006FF30F01314341602068016841F001011E
:1027100001606068B0F5800F08D00CE00220BDE8D1
:10272000F88F016821F400610160E7E72068016823
:1027300041F400710160E0680F2824D829E0206886
:1027400041694269D20705D1B4F86A3043450DD2D8
:1027500009040BD5006B616E0860606E001D606639
:10276000B4F86A00401EA4F86A000CE0FEF774FAA0
:10277000A0EB0B01514503D3BAF1FF3F03D0AAE010
:10278000BAF1000F40D0B4F86A000028D7D194E025
:102790009FE007283CD88CE0216848694969C9074F
:1027A0000AD000980088616E0880606E801C6066A8
:1027B000B4F86A00401E15E0B4F86A20424514D20D
:1027C000010412D500980088616E0880606E801C3C
:1027D0006066009909880180606E801C6066B4F8AC
:1027E0006A00801EA4F86A0012E0B4F86A10012999
:1027F00001D18004D5D4FEF72FFAA0EB0B0151458F
:1028000003D3BAF1FF3F03D065E0BAF1000F62D005
:10281000B4F86A000028BFD14FE0206841694269DE
:10282000D2070AD090F83000616E0870606E401CCC
:102830006066B4F86A00401E24E0B4F86A3043458C
:1028400023D20A0421D590F83000616E0870606EC2
:10285000401C6066216891F830100170606E401C69
:102860006066216891F830100170606E401C6066EF
:10287000216891F830100170606E401C6066B4F8F9
:102880006A00001FA4F86A0013E0B4F86A20042A62
:1028900002D211F4C04FC5D1FEF7DEF9A0EB0B0157
:1028A000514503D3BAF1FF3F03D014E0BAF1000F52
:1028B00011D0B4F86A000028AFD1204600F06EFCB9
:1028C00084F88170D4F8840084F8805000283FF4A4
:1028D00026AF012023E7204600F060FCD4F88400F6
:1028E00084F8805040F48070C4F8840084F88170CB
:1028F000032014E72DE9F84F04460068994617466F
:1029000000F1200B8A46FEF7A7F9064694F88100ED
:10291000012839D1BAF1000F7ED0002FFCD094F8F5
:102920008000012830D0A26800254FF0010884F80B
:102930008080032184F88110C4F88450C4F85CA01E
:102940006566A4F86850656725672C34B2F5C02F1A
:10295000A786E786E58754F82C0D18D0C16821F4C6
:10296000C02141F40031C160206841686FF30F015C
:10297000394341602068016841F0010101606068ED
:10298000B0F5800F08D00CE00220BDE8F88F016898
:1029900041F400610160E7E72068016841F40071DB
:1029A0000160E0680F281CD820E020684169890791
:1029B0000BD5E16D09680162E06D001DE065B4F8BA
:1029C0006200401EA4F862000BE0FEF745F9811B8F
:1029D000494503D3B9F1FF3F03D09DE0B9F1000FA2
:1029E00032D0B4F862000028DFD179E007282FD870
:1029F00072E02068416989071ED5B4F86210012988
:102A00000DD9E16B59B1E16D09680162E06D001DFE
:102A1000E065B4F8620000E07CE0801E09E0E06D53
:102A20000188ABF80010E06D801CE065B4F862002E
:102A3000401EA4F862000BE0FEF70EF9811B494529
:102A400003D3B9F1FF3F03D066E0B9F1000F63D0C3
:102A5000B4F862000028CCD142E0206841698907BF
:102A60002ED5B4F8621003290CD9E16B402909D99D
:102A7000E16D09680162E06D001DE065B4F8620077
:102A8000001F1AE0B4F8621001290CD9E16B51B1B2
:102A9000E06D0188ABF80010E06D801CE065B4F8D3
:102AA0006200801E09E0E16D097880F82010E06D79
:102AB000401CE065B4F86200401EA4F862000BE020
:102AC000FEF7CAF8811B494503D3B9F1FF3F03D094
:102AD00022E0B9F1000F1FD0B4F862000028BCD189
:102AE00000224B4608212046009600F0B5FB28B195
:102AF000D4F8840040F02000C4F88400204600F0A0
:102B00004DFB84F88180D4F8840084F8805000283C
:102B10003FF43BAF012038E7204600F03FFBD4F8FC
:102B2000841084F8805041F48071C4F8841084F8D3
:102B30008180032029E7401EB0F1807F10B501D3CA
:102B4000012010BD4FF0E02460610F21601700F0FC
:102B5000B3FF0020A0610721216110BD30B590F8BE
:102B60008410012918D0012280F884202421C0F883
:102B700088100022202401680B680D6823F00053A0
:102B800025F001050D60426601680B60C0F88840C1
:102B900080F88420104630BD022030BD70B5044658
:102BA00090F8840001281DD0012284F8842024207C
:102BB000C4F8880020680568026822F001020260FB
:102BC0002068826822F060620A438260204600F03A
:102BD0003BFC2268202100201560C4F8881084F88E
:102BE000840070BD022070BD70B5044690F884006A
:102BF00001281DD0012284F884202420C4F88800F4
:102C000020680568026822F001020260206882687C
:102C100022F060420A438260204600F015FC2268E0
:102C2000202100201560C4F8881084F8840070BD4D
:102C3000022070BD10B5040003D0D4F8880010B194
:102C400007E0012010BD002084F88400204600F039
:102C500027F82420C4F888002068016821F00101C9
:102C60000160A06A10B1204600F010FC204600F080
:102C7000F1FC0128E6D02068416821F490414160D0
:102C80002068816821F02A0181602068016841F094
:102C9000010101602046BDE8104000F05BBC00006F
:102CA00010B5B6B00446142130A8FDF74FFBC02183
:102CB0006846FDF74BFB1949206888422BD100205C
:102CC0001F9001210446CDE900106846FEF72EFA58
:102CD00008B1FDF78AFE1248016841F01001016059
:102CE000006800F0100035900D481038016841F080
:102CF00002010160006830AB022100F00200359053
:102D00004FF44040042283E81300064830A9CDE97F
:102D10003342FDF77BFE36B010BD000000100140CD
:102D2000F0440258000402582DE9F8430446D0F854
:102D30008800984616460D46202802D00220BDE89D
:102D4000F883A5B19EB10021C4F890102120C4F8E9
:102D500088001834FDF780FF814654F8100CA687D0
:102D6000E6872027183CB0F5805F02D003E0012001
:102D7000E5E7206910B12E46002510E000260EE0A0
:102D80008021204600F03CFEC0B9DEB116F8010BF0
:102D900021688862B4F85600401EA4F85600B4F8C2
:102DA00056004B464FF00002CDF800800028E7D1D6
:102DB0004FF04001204600F023FE48B1C4F888706F
:102DC0000320BCE735F8020B2168C0F30800E0E7F8
:102DD000C4F888700020B2E7FEE7000070B586B046
:102DE00014216846FDF7B2FA2648016841F08001D7
:102DF0000160016801F080010591016841F0010165
:102E00000160016801F001010591016841F00201D2
:102E10000160016801F002010591016841F00801BB
:102E2000016000680022184E4FF4C06100F00800F5
:102E300005903046FDF705FF01223046D102FDF72F
:102E400000FF002469464FF480700294CDE900042D
:102E50003046FDF7DBFD01256946CDE902546802E5
:102E6000CDE900053046FDF7D1FD4FF440600090FC
:102E7000CDE90154694630460394FDF7C7FD06B01D
:102E800070BD0000E0440258000C02582DE9F041EA
:102E9000154807254FF48006124F0021B400C0E901
:102EA0000215A3008361C0E904144FF0A042C0E9F9
:102EB000072141628162C16241638163C163016430
:102EC00041648164C164016541658165C0E9007642
:102ED000FFF7D4FA002803D0BDE8F041FDF785BD27
:102EE000BDE8F0810030014028000024184800218E
:102EF00010B5164C0C224FF4E1330460C0E90131E7
:102F0000C160C0E904128161C161016241628162F4
:102F1000FFF790FE08B1FDF768FD0D480021FFF7AF
:102F200063FE08B1FDF761FD09480021FFF736FE99
:102F300008B1FDF75AFD0648FFF710FE002803D040
:102F4000BDE81040FDF751BD10BD0000001001406C
:102F5000B0000024FEE7FEE7704700002DE9F047CF
:102F6000454D044689464FF0000A2868C043800753
:102F70000AD0414E283E306820F080603060FDF776
:102F80006BFE0746B04608E00120BDE8F08700BFB1
:102F9000FDF762FEC01B022867D8D8F800000001C8
:102FA000F6D4206829684FF4FE0721F47C313E02F4
:102FB00041EA00302860207AA389B4F804C04002B6
:102FC0002D4D2D495B1E227CACF1010C1035091DE5
:102FD000A0F5007080B2521ECCF3080C07EA034340
:102FE00040EA0C00184306EA0262104328600868B1
:102FF000626920F0C000104308600A68A06922F0EE
:10300000200202430A60281D0A6822F010020A60AA
:1030100002684FF6F873E4699A4342EAC402026018
:103020000868B9F1000F40F010020A6011D008687A
:10303000B9F1010F11D040F400100860D8F8000079
:10304000444640F08060C8F80000FDF705FE0546E4
:103050000DE0086840F40020EFE740F48010ECE752
:10306000FDF7FAFD401B022801D903208DE72068F7
:103070000001F5D5504688E7284402582DE9F0476D
:10308000454D044689464FF0000A2868C043800732
:103090000AD0414E283E306820F080503060FDF765
:1030A000DBFD0746B04608E00120BDE8F08700BF21
:1030B000FDF7D2FDC01B022867D8D8F800008000B9
:1030C000F6D4208829684FF4FE0721F07C713E0277
:1030D00041EA00502860207AA389B4F804C0400275
:1030E0002D4D2D495B1E227CACF1010C1835091DBC
:1030F000A0F5007080B2521ECCF3080C07EA03431F
:1031000040EA0C00184306EA02621043286008688F
:10311000626920F44060104308600A68A06922F4E4
:10312000007202430A60281D0A6822F480720A6055
:1031300002684FF6F873E4699A4342EAC4020260F7
:103140000868B9F1000F40F480720A6011D0086875
:10315000B9F1010F11D040F080700860D8F800007C
:10316000444640F08050C8F80000FDF775FD054664
:103170000DE0086840F48000EFE740F40000ECE761
:10318000FDF76AFD401B022801D903208DE7206866
:103190008000F5D5504688E72844025810B50268EB
:1031A00040F26F335169946944F0080494610268F5
:1031B000946944F0100494610268146824F00104D6
:1031C0001460026814699C4314610268936823F4D4
:1031D0004043936090F88120042A0CD08A060AD5D7
:1031E000D0F8842042F08002C0F8842002689369FD
:1031F00043F02003936190F88120032A0CD04A0603
:103200000AD5D0F8842042F00402C0F88420026875
:10321000936943F0400393618A050AD5D0F884206E
:1032200042F00102C0F884200268936943F40073FD
:103230009361C9050AD5D0F8841041F00801C0F89F
:10324000841001688A6942F480728A610021A0F8C2
:103250006210A0F86A1010BD2DE9F0411C46164618
:103260000D460746DDF818800AE000BFFDF7F4FCC4
:10327000A0EB0800A04202D3601C01D00BE054B1C7
:103280003868406935EA000007D00020B042EDD030
:103290000020BDE8F0810320FBE70120F6E770473E
:1032A000FDF7E0BC70B59CB04C216846FDF74EF8C8
:1032B000202113A8FDF74AF80220FDF7B7FD2249A7
:1032C0000A68224822F001020A600968016821F4B4
:1032D000404141F4804101600168002401F4404113
:1032E0001B9101688904FCD5022009900DF1280C7E
:1032F000402501210091C203019205238CE8290099
:1033000004260FAB0821CDE90D0683E813006846BB
:103310001294FEF7F1FD08B172B6FEE713AB3F2041
:10332000032183E813004FF4A0621A95CDE91645F6
:1033300013A8CDE91852FEF7CFFB002801D072B6D2
:10334000FEE71CB070BD00002C040058184802585D
:103350003348F0B5334A016841F4700101601068E8
:1033600000F00F00072804D2106820F00F00C01DE5
:1033700010602D4900202C4C10340B682B4D43F06D
:1033800001030B6020600B682B400B60136803F097
:103390000F03072B04D9136823F00F03DB1D136001
:1033A000214C234A1834234B261D371D20601E4C08
:1033B000214D28343060261D3860371D23603B1DA9
:1033C00035601C1D3A60251D2E1D1860331D2260BE
:1033D0002860326018600A68134B184C22F480226F
:1033E00060330A60186020686FF30F00B0F1005F6F
:1033F00003D213490120C1F808010B48D4300168F9
:10340000C9040BD4026843F2D2010E4B42F480523D
:1034100002601960016821F480510160F0BD000074
:1034200088ED00E000200052004402587FEDF6EAEB
:1034300080020101000202020000FF010010005C96
:10344000008000510040005230B5416EB9B10168B2
:103450000D4B03F108048A688968C2F34262490F80
:103460005D5C615C2D01B5FBF1F1A0F86A10995C1F
:10347000A25C0901B1FBF2F1A0F8681030BD012196
:10348000A0F86A10F8E700001445000890F828102A
:10349000090706D50168836B4A6822F400421A4383
:1034A0004A6090F82810C90706D00168C36A4A68C4
:1034B00022F400321A434A6090F82810890706D592
:1034C0000168036B4A6822F480321A434A6090F81C
:1034D0002810490706D50168436B4A6822F4802208
:1034E0001A434A6090F82810C90606D50168C36BD4
:1034F0008A6822F480521A438A6090F8281089065C
:1035000006D50168036C8A6822F400521A438A6067
:1035100090F82810490611D50168436C4A6822F4D6
:1035200080121A434A60416CB1F5801F06D10168D0
:10353000836C4A6822F4C0021A434A6090F828104B
:10354000090606D50168C26C486820F400201043C3
:10355000486070472DE9F84300250446C0F89050B4
:10356000FDF77AFB8046206820266FF07E470068D2
:10357000000713D50022434631042046009700F08F
:103580003FFA58B1216851E8000F20F0800041E86F
:103590000002002AF6D1C4F8886021E020680068A3
:1035A000400722D5002243464FF480012046009771
:1035B00000F026FAC8B1206850E8001F21F490718D
:1035C00040E80012002AF6D12068083050E8001FB9
:1035D00021F0010140E80012002AF5D1C4F88C6006
:1035E000032084F88450BDE8F883C4F88860C4F8E8
:1035F0008C60E5662567002084F88450F3E70000BE
:1036000010B5026852E8001F21F4907142E80013DF
:10361000002BF6D10E4B0268083252E8001F194009
:1036200042E80014002CF6D1C16E012908D10268CD
:1036300052E8001F21F0100142E80013002BF6D1E0
:1036400000212022C0F88C20C166416710BD000017
:10365000FEFFFFEF2DE9F04304468068D84E87B0A7
:10366000D84B2168D4E90427D4F81CC010430A6859
:10367000002547EA0C073843324002430A602068BD
:10368000E268416821F44051114341602268A16918
:103690009A4201D0206A01439768DFF82CC3CB4ED1
:1036A000CB4807EA0C070F4397602168676ACA6A2C
:1036B00022F00F023A43CA622268B2420ED1006879
:1036C00000F03800182873D047DCB8B3082879D048
:1036D00010286FD178E028287ED17BE0BD498A424E
:1036E00009D1006800F00700062875D2DFE800F075
:1036F000546A6C6E7072B8498A4209D1006800F051
:103700000700062868D2DFE800F0475D5F61636567
:10371000B2498A4209D1006800F0070006285BD24E
:10372000DFE800F03A5052545658AD498A420BD166
:10373000006800F0070006284ED200E010E0DFE845
:1037400000F02B4143454749A6498A420AD1006807
:1037500000F03800182839D0B7DD2028BBD13CE074
:1037600001203AE0A0498A4209D1006800F0070030
:10377000062831D2DFE800F01026282A2C2E9B499B
:103780008A420BD1006800F00700062824D2DFE847
:1037900000F003191B1D1F2100201EE09A421BD1BF
:1037A0008B48001D006800F00700062814D202E0D4
:1037B0000CE007E010E0DFE800F0030507090B0D5F
:1037C00002200AE0042008E0082006E0102004E0BF
:1037D000202002E0402000E080208549DFF81482AC
:1037E0009A42854A4FF400434FEA21174FF00006F2
:1037F0004ED110281AD006DC022809D004280BD09C
:1038000008287CD10DE020283ED0402877D13DE02B
:10381000FDF736FB014610E06846FDF743FB0199D2
:103820000BE003A8FDF7E0FB049906E010688006B2
:1038300005D51068C0F3C100C140002970D0606A8E
:10384000676838F8102007EB4703B1FBF2F08342BA
:1038500055D8B0EB073F52D8002308461946FCF76D
:103860003DFD02467808130E120243EA01211018AA
:103870003A4671410023FCF731FD604AA0F54071E2
:1038800091423CD821688FE03946D8E71946D6E7FF
:10389000D4F81CC04FF6EF799C4546D1082819D0C2
:1038A00005DC58B101280CD0042875D10DE0102892
:1038B00015D0202835D040286ED134E0FEF75CFAD0
:1038C00001E0FEF76BFA014610E06846FDF7EAFA00
:1038D00001990BE003A8FDF787FB049906E0106847
:1038E000800604D51068C0F3C100C140C1B1636A4D
:1038F000606838F81330B1FBF3F1490000E04BE0A9
:1039000001EB5001B1FBF0F0A0F11001494543D8A3
:103910004FF6F0732168C0F342021840104343E0B1
:1039200043E03946E3E71946E1E7082819D005DC0A
:1039300058B101280CD004282ED10DE0102815D044
:1039400020282BD0402827D12AE0FEF715FA01E0E5
:10395000FEF724FA014610E06846FDF7A3FA019944
:103960000BE003A8FDF740FB049906E01068800611
:1039700004D51068C0F3C100C140B1B1636A60688A
:1039800038F81330B1FBF3F101EB5001B1FBF0F06B
:10399000A0F11001494505D9012506E03946EDE7BA
:1039A0001946EBE7216880B2C8600120A4F86A00DC
:1039B000A4F8680028466667A66707B0BDE8F083EC
:1039C000F369FFCF000C0058FFF4FF110010014015
:1039D000544402580044004000480040004C00405D
:1039E000005000400014014000780040007C00407E
:1039F0000090D003FC44000800440258FFFC0F0074
:103A00002DE9F047994617460D460446089E4FF0AB
:103A1000000833E0701C31D0FDF71EF9A0EB09005F
:103A2000B04218D8BEB120680168490726D5802D5C
:103A300024D0402D22D0C169C94309070DD40825DF
:103A400005622046FFF7DCFDC4F89050012084F8A1
:103A50008480BDE8F0870320FBE7C069C043000510
:103A60000CD421684FF4006008622046FFF7C8FDBF
:103A70002021C4F8901084F88480ECE72068C069A5
:103A800035EA000004D00020B842C3D00020E0E7AF
:103A90000120F9E7FEE700000FB4054B10B503A9BC
:103AA000044A029800F0EAF810BC5DF814FB00002C
:103AB000954300081C000024090700284FEA116103
:103AC00004DB00F1E02080F80014704700F00F00E4
:103AD00000F1E02080F8141D704702E008C8121FB2
:103AE00008C1002AFAD170477047002001E001C1E7
:103AF000121F002AFBD170472DE9FF5F82B0002121
:103B0000DDE90430020DDDF840B0034318D044F67F
:103B10001050A2F2FF3242431514119801281FD011
:103B2000A5EB0B00401C5FEA000A4FF000064E4F69
:103B3000DFF83891B046504615D5CAF1000413E0BD
:103B4000119801244AA3012801D16FEA0B010298C0
:103B5000119AC0E90031C0E9024206B0BDE8F09F09
:103B6000CBF10000DFE704460021404A491842EB50
:103B70000450CDE9001012E0E00707D032463B4682
:103B800040464946FCF7C9FC8046894632463B46DA
:103B900010461946FCF7C1FC06460F466410002C7F
:103BA000EAD1DDE90401DDE90023BAF1000F06DA0C
:103BB000FCF7B3FC42464B46FCF7AFFC05E0FCF7D4
:103BC0001EFD42464B46FCF71AFD04460E460022F7
:103BD000284BFCF79BFD03D84FF0FF30014607E070
:103BE0000022254B20463146FCF7F0FBFCF776FD22
:103BF000102409E0002C0ADB0A220023FCF76EFBEC
:103C0000039B30321A55641E50EA0102F2D1641C43
:103C1000039AC4F111031444119A012A03D001221A
:103C200008430DD10AE0084304D000204FF0110BE7
:103C3000119072E7A3EB0B056D1E0DE05B4504DDF3
:103C40004FF0000205F1010504E003DA4FF0000235
:103C5000A5F10105002AECD002981199C0E90231C2
:103C6000C0E9004579E70000000014400000F03F83
:103C7000300000000000F0430000E03F2DE9FF4F5E
:103C800095B09A46884606460025EEE1252877D16C
:103C900000242746F94A0121039400E0044316F862
:103CA000013F203B01FA03F01042F7D130782A2877
:103CB00011D06FF02F033078A0F13002092A16D806
:103CC000039A44F0020402EB820203EB4202104426
:103CD000761C0390EFE758F8042B0392002A03DACE
:103CE000504244F40054039044F00204761C3078AF
:103CF0002E2816D116F8010F44F004042A280DD0FE
:103D00006FF02F023078A0F13003092B09D807EBB0
:103D1000870302EB4303C718761CF3E758F8047BCC
:103D2000761C30786C280FD006DC4C2817D0682819
:103D30000DD06A2814D104E0742810D07A280FD14D
:103D40000DE044F400140AE044F4801401E044F46B
:103D500040147278824202D104F58014761C761CDD
:103D6000307866280BD013DC582877D009DC00287F
:103D700075D04528F6D04628F4D047281AD193E1CB
:103D800018E0632835D0642879D0652812D18BE1FA
:103D9000702873D008DC6728F1D069286FD06E28AE
:103DA0000DD06F2806D1ACE073282CD0752874D0C4
:103DB000782853D05246179990476D1C54E1C4F3AC
:103DC0000250022809D003280DD0D8F8001004288A
:103DD0000DD00D6008F1040846E1D8F80010EA178C
:103DE000C1E90052F6E7D8F800100D80F2E70D7037
:103DF000F0E718F8041B8DF8001000208DF8010082
:103E0000EB46012003E058F804BB4FF0FF30610798
:103E10004FF0000102D40DE009F101018946B942D9
:103E20000FDA8145F8DB1BF809100029F4D108E00E
:103E300009F1010189468142FADB1BF809100029CA
:103E4000F6D103985346A0EB090721463846179A46
:103E500000F080FA284400EB090507E044E008E19F
:103E60000DE01BF8010B524617999047B9F1010973
:103E7000F7D2534621463846179AF2E039E00A2134
:103E8000C4F302524FF0000B0091022A06D058F8FA
:103E9000040BC117032A09D00AE023E008F1070048
:103EA00020F00702F2E80201904605E000B2C117D7
:103EB000042A01D140B2C117002906DA0A460021BE
:103EC000404261EB02012D2202E0220504D52B22A3
:103ED0008DF80420012203E0E20701D02022F7E759
:103EE000914657E00A2100E010214FF0000B0091AD
:103EF0000BE010214FF0000B44F004040827009160
:103F000003E008204FF0000B0090C4F30252022A95
:103F100005D058F8040B0021032A08D008E008F166
:103F2000070020F00702F2E80201904603E080B2A9
:103F3000042A00D1C0B24FF0000922072AD53278F6
:103F4000702A07D0DDF800C08CF0100C5CEA0B0C76
:103F500005D00EE040228DF80420012208E050EA4E
:103F6000010306D030238DF804308DF8052002229D
:103F70009146009B83F0080353EA0B030AD150EAF1
:103F8000010201D1620705D530228DF804204FF0DF
:103F900001097F1E3278582A04D039A20C920CAA4B
:103FA00002920BE03BA2F9E75B46009AFCF796F918
:103FB0000C9B9B5C029A521E0292137050EA010203
:103FC000F2D1029804A9081A00F1200B600702D56B
:103FD00024F4803400E001275F4502DDA7EB0B00ED
:103FE00000E0002000EB0B01009003984944401AC8
:103FF0000390E00306D453462146179A039800F035
:10400000A9F90544002706E001A85246C05D1799AA
:1040100090476D1C7F1C4F45F6DBE0030CD55346E3
:104020002146179A039800F095F9054404E03020E2
:104030005246179990476D1C0099481E0090002920
:10404000F5DC08E00298029952460078491C02917A
:10405000179990476D1CBBF10001ABF1010BF1DC2E
:104060005BE100F065F90544761C307800287FF4A8
:104070000DAE19B02846BDE8F08F000009280100F8
:1040800030313233343536373839616263646566CE
:104090000000000030313233343536373839414290
:1040A0004344454600000000600700D4062708F19D
:1040B000070020F00700F0E80223804603F0004CE0
:1040C0005FEA0C0001D097A009E0200501D596A079
:1040D00005E0E00701D095A001E0AFF24C0013909D
:1040E000307823F0004365280CD006DC452809D041
:1040F00046281DD047287FD13BE0662818D0672886
:104100007AD136E00021112F01DB112000E0781C6C
:10411000CDE9000104A90CA8FFF7EEFCDDE90D01D3
:104120000C9A4FF0000B07F10109109200914EE03C
:104130004FF000400097CDE9011004A90CA8FFF74B
:10414000DBFCDDE90D020C9B0F994FF0000B914653
:104150001093009211B9791C00EB0109B7EB09002B
:1041600003D4C0F1FF3B07F10109A9EB070001905F
:1041700042E0012F00DA01270021112F01DD11207B
:1041800000E03846CDE9000104A90CA8FFF7B4FC13
:10419000DDE90D010C9A00914FF0000BB946109229
:1041A00021070FD4009A4A4503DA914601E0A9F1AC
:1041B0000109B9F1010F05DD109AA9F10101515C66
:1041C0003029F4D0B84202DA10F1040F03DA0121E9
:1041D000CDE9011010E0002803DC8344A9EB0001C5
:1041E00002E0411C494500DD8946A0EB0B00401C64
:1041F00001904FF000400290200705D401984845F7
:1042000002DB4FF0FF30019000208DF84B00029848
:104210000DF14B07B0F1004F25D002200C902B2060
:104220000D90029800280CDA404202902D200D904B
:1042300007E00A210298FCF794F83031029007F861
:10424000011D0C99481E0C900029F2DC02980028F0
:10425000EFD1791E0D980870307800F0200040F002
:10426000450007F8020D11A8C01BC01D029013984D
:10427000007800B1012000EB0901019801EBE07129
:10428000029801440398401A401E0390E00306D4AC
:1042900053462146179A039800F05CF8054413989A
:1042A000007818B15246179990476D1CE00323D54A
:1042B00053462146179A039800F04CF805441BE03A
:1042C000BBF1000F07DB0098584504DD10981799E3
:1042D00010F80B0001E017993020524690470198E2
:1042E0000BF1010B401E05F10105019004D12E20B8
:1042F0005246179990476D1CB9F10001A9F10109C7
:10430000DEDC05E017F8010B5246179990476D1C4B
:104310000299481E02900029F4DC53462146179A60
:1043200003989EE62D0000002B00000020000000F6
:104330002DE9F041044600251E461746880404D4A2
:1043400005E039462020B0476D1C641EF9D528468B
:10435000BDE8F0812DE9F041044600251E46904657
:10436000C80301D5302700E02027880404D505E0E4
:1043700041463846B0476D1C641EF9D52846BDE855
:10438000F08100EBC000C000800800BF401EFCD2DE
:104390007047000013B5044801224FF0FF3369460F
:1043A000FEF7C2FC00981CBDB00000241FB500241D
:1043B0000094019402940394FCF7D8FC01208DF83A
:1043C0000C001F218DF8081087228DF809208DF828
:1043D0000D008DF8000068468DF80A408DF80E40FB
:1043E0008DF8014001948DF80B408DF80F40FCF7DB
:1043F0008FFC0420FCF7C8FCFCF73CFCFEF752FFE6
:10440000FEF7ECFCFEF742FDFEF770FD174C20783E
:1044100061684843800000F03BF8217807466268F5
:104420000346601CFCF73CFA002611A03146FFF75A
:1044300033FB00250FE000BF06FB0050294607EBC9
:10444000800090ED000A0DA0B7EEC00A53EC102BCF
:10445000FFF722FB6D1C20788542EDDB0BA0FFF7F8
:104460001BFB761C052EE0DBFEE7000000000024AD
:10447000B2C9D1F9B5E32025643A200041494E255F
:10448000643D252E34665620000000000A0000001E
:10449000F0B50B30154D20F007010024144A0FE051
:1044A00003688B420BD38B4205D95E1A43184768C9
:1044B000C3E9006700E04368136002C004E0021D26
:1044C00010680028ECD12046002802D1286808B1E5
:1044D0000020F0BD064A07481060074A121A22F071
:1044E0000702C0E9002401202860D7E72400002447
:1044F000200000244C010024480300240100020095
:104500000400060008000A000C0010002000400013
:1045100080000001010101030701000008040204FA
:10452000080101010000000001020304010203046C
:104530000607080954450008000000242800000070
:10454000DA3A00087C450008280000242007000013
:10455000EA3A000803081828E803000001000000F8
:1045600010000000000000000090D0030090D00375
:0C4570000000000000000000000000003F
:040000050800029954
:00000001FF
